:100000000C941E010C943B010C943B010C943B019D
:100010000C943B010C943B010C943B010C943B0170
:100020000C943B010C943B010C94441B0C94181C45
:100030000C9428160C943B010C943B010C943B014E
:100040000C943B010C943B010C943B010C943B0140
:100050000C943B010C94AF160C943B010C943B01A7
:100060000C943B010C943B010C943B010C943B0120
:100070000C943B010C943B010C943B010C943B0110
:100080000C943B010C943B010C943B010C943B0100
:100090000C943B010C943B010C943B010C943B01F0
:1000A0000C943B010C943B010C943B0114001A008E
:1000B00008001500170004001600070009000A00D8
:1000C0001D001B000600190005001E001F00200077
:1000D0002100220012036A006900730061006B00B6
:1000E00075003200300000000A036D002E006B0026
:1000F000690000000403090409023B00020100A09A
:10010000FA090400000103010100092111010001A5
:1001100022400007058103080001090401000103D2
:1001200000000009211101000122B6000705820329
:100130002000011201000200000008434D200000D1
:10014000010102000105010902A10185020901A1C5
:100150000005091901290815002501950875018177
:10016000020501093009311581257F950275088145
:100170000609381581257F950175088106050C0A49
:1001800038021581257F950175088106C0C00501DB
:100190000980A101850319012AB700150126B700BE
:1001A000950175108100C0050C0901A10185041994
:1001B000012AA002150126A002950175108100C038
:1001C00005010906A1018506050719E029E71500C3
:1001D00025019508750181020507190029EF150011
:1001E000250195F07501810205081901290595057C
:1001F00075019102950175039101C005010906A1E0
:1002000001050719E029E715002501950875018109
:10021000029501750881010507190029FF150026BF
:10022000FF00950675088100050819012905950547
:1002300075019102950175039101C00011241FBE43
:10024000CFEFDAE0DEBFCDBF11E0A0E0B1E0E8E241
:10025000FDE302C005900D92A238B107D9F722E064
:10026000A2E8B1E001C01D92A138B207E1F70E94F7
:10027000CD0F0C947C1E0C94000081E0089581E069
:1002800008950E943F01089508950E944401089531
:10029000A5E0B0E0EEE4F1E00C94E81D49835A8358
:1002A0003091890189819A81311119C0662399F0B1
:1002B000222389F00E94CF06182F682F89819A8106
:1002C0000E94AB0669817A81812F0E94420D25969A
:1002D000E3E00C94041E0E94BD06182FF3CF0E9489
:1002E000CF0669817A81F1CFFC01262F40815181AF
:1002F0006281738184810E944801089581E008959C
:10030000CF93DF93EC0160E00E947401BE010E9474
:100310004501DF91CF9108950E94850E08950E94B6
:10032000890E089508950E9476050E9492012FEF8C
:1003300084E39CE0215080409040E1F700C0000041
:1003400008950E9493010E94D31608950E9493017C
:100350000E94E41608950F931F93CF93DF938C01AF
:1003600061E00E947401EC01B8010E944101811119
:1003700006C080E0DF91CF911F910F910895B801E1
:10038000CE010E945A148823A1F3B801CE010E9425
:100390005E12882371F3B801CE010E94CC1388232A
:1003A00041F3F8018281882361F0CB35FDE5DF0759
:1003B00001F158F4C115ECE5DE0791F0CF3DDC45C5
:1003C00091F0C8010E943D01D5CFCD358DE5D8070C
:1003D00069F090F0C83ADD45A1F70E94A601C9CFA7
:1003E0000E94A101C6CF0E94890BF7CF0E94C70AC5
:1003F000E8CF0E94D10AE5CF0E94D50AE2CF0E9441
:1004000005160E941C0208950E9420020E940A16EE
:10041000089508950E940902089581E008950E94B8
:100420000D0208950895CF93C82F0E940A028C2FC1
:100430000E940F02CF91089580E00E941302089558
:100440000E94B6140E9413020895CF930E94B6141E
:10045000C82F809184018C1779F0C09384010E9489
:100460009416609385017093860180938701909321
:1004700088018C2F0E941302CF910895ABE0B0E069
:10048000E4E4F2E00C94E91D4F83588769877A878A
:100490008B8761110E94120A1E821D8285E0FE0177
:1004A0003796DE01119601900D928A95E1F78C81C5
:1004B0009D81892B61F449815A816B817C818D8179
:1004C0009E810E943B092B96E2E00C94051E8981D7
:1004D0009A8189238F3F79F3CE0101960E947E0194
:1004E0008111E9CFF0CFFC01808191810E94010749
:1004F0000895CF93C82F8823B9F08CEF8C0F813AE1
:10050000A8F46C2F80910001909101010E942B159D
:10051000882329F08C2F0E94D2090E94330A8C2F45
:100520000E94CA090E94330ACF91089580E28C0F7D
:10053000883048F4C77081E001C0880FCA95EAF797
:100540000E94F509EFCFEBE5EC0FE33040F4F0E06B
:10055000EB5BFE4F808190E00E94EB14E5CFE8E575
:10056000EC0FE73150F4F0E0EE0FFF1FE95EFE4FB5
:10057000808191810E940115D7CFCD3EA8F28C2FAA
:100580000E9451100E942411CFCF882379F19CEF53
:10059000980F913A28F40E94D2090E94330A0895D4
:1005A00090E2980F983050F4877091E001C0990F55
:1005B0008A95EAF7892F0E94FB09EFCF9BE5980FF8
:1005C000933028F490E080E00E94EB14089598E5C1
:1005D000980F973128F490E080E00E94011508956B
:1005E0008D3E20F00E94AB100E94241108951F93AD
:1005F000CF93DF93182FEB010E947902209739F4F3
:10060000812F0E94C502DF91CF911F9108958FE93C
:100610009FE00197F1F700C000002197EFCF70E055
:1006200060E0893311F460E570E00E94F7020895FC
:10063000882321F00E94F5090E94330A0895882337
:1006400021F00E94FB090E94330A0895B0E0A0E067
:10065000ECE2F3E00C94E21D6C01D62FC72FFC01F5
:100660001281F580F2949FE0F9220E94EB09E82EB6
:100670008823B9F0E12E1123A1F08C2F807F8034E4
:1006800021F080E28D0F8830D0F08091670282FFE8
:1006900016C082E00E94960A0E94EB0991E0E82EC3
:1006A000E926BC2EB2948FE0B822FBE0FB1508F4DB
:1006B00068C0EB2DF0E0E258F14E0C94D31DE12C14
:1006C000F0CF0C2F0F70C07F11F00295007F112327
:1006D00099F0002359F080E28D0F883010F0D1118D
:1006E00007C0802F0E94F5090E94330A8D2F41C058
:1006F000802F0E94050AF8CF8D2F0E94C50200238B
:1007000009F43FC080E28D0F883010F0D11104C091
:10071000802F0E94FB0903C0802F0E940B0A0E94B9
:10072000330A2FC00C2F0F70C07FC03211F002951A
:10073000007FDD2381F0D13009F463C0112309F477
:100740006DC0FF2009F463C0F601858180FFCECF24
:100750008F7085835CC08091670282FD33C0112356
:1007600059F0002329F0802F0E94F5090E94330AD6
:1007700080E00E94790205C080E00E94C50201115C
:10078000C7CFEB2DE850FF0B349720F40E94B6142E
:100790000E941302EE2089F00E94E70980FD0DC03F
:1007A000F60112820E94E1090E940906C6010E9418
:1007B00036050E94E1090E941906CDB7DEB7E9E0CF
:1007C0000C94FE1D112389F0F11006C00E94150A39
:1007D000802B0E941803D5CF21E0F212F7CF0E94A0
:1007E000150A802B0E941C0ACCCFF11006C00E9473
:1007F000290A802F0E941F03C4CF31E0F31609F2AB
:10080000F6CF112331F085E08F1508F4BACF802F91
:10081000E0CF94E09F1508F4B4CFEBCFFF2049F36D
:10082000D93349F4FFEF27EE33E0F1502040304058
:10083000E1F700C000008D2F0E94C502A2CF8C2FCF
:1008400086958695837069F0813009F09ACF8D2F57
:100850009C2F9370111102C090E080E00E9401155E
:1008600090CF8D2F9C2F9370111102C090E080E0EB
:100870000E94EB1486CF8D2F112329F00E94511076
:100880000E9424117ECF0E94AB10FACF8C2F837070
:10089000A1F5111176CF4D2F429546954770440F23
:1008A000440F2D2F2F7030E0042E02C0220F331F73
:1008B0000A94E2F790E080E0D4FF09C08FE090E076
:1008C00002C0880F991F4A95E2F780959095C695CA
:1008D000C695C370822B932BC23049F058F4C130B7
:1008E00019F00E94D7054DCF0E94CE054ACF0E9435
:1008F000E00547CF0E94CB0544CF8695112311F028
:100900008C2F8170882309F43CCF4D2F429546955A
:100910004770440F440F2D2F2F7030E0042E02C07B
:10092000220F331F0A94E2F790E080E0D4FF09C061
:100930008FE090E002C0880F991F4A95E2F78095FA
:100940009095C695C695C370822B932BC23049F003
:1009500058F4C13019F00E94440613CF0E943B06A0
:1009600010CF0E944D060DCF0E94EF050ACFCF7029
:10097000112329F08C2F0E9409068D2F2ACF8D2F4D
:100980000E941F038C2F0E941906FBCED23F51F10B
:1009900060F4D03FB9F0D13F81F0112309F449C090
:1009A000F110A4CE8C2F8F7121C0D33F11F1D43F11
:1009B000A1F78091670282FD26C08C2F8F711123D1
:1009C00011F314C0112349F084E08F1508F4D9CE37
:1009D0008C2F8F710E942B06D4CE95E09F1508F4C2
:1009E000D0CEF6CF8C2F8F711111CDCF0E9409067A
:1009F000C8CE112329F08C2F8F710E94FD05C1CE26
:100A00000E94F805BECE112349F0CF718C2F0E94B1
:100A1000090663E08C2F0E94780AB3CE81E00E9421
:100A2000960AE1E0EF1508F0ACCE82E00E94960A4B
:100A3000A8CEF110F5CE8C2F8F71A5CF0F931F93F9
:100A4000CF93DF93EC01688179818A810E940C0742
:100A50008C010E9456060E94CA05B801CE010E9470
:100A60002603DF91CF911F910F910895CF93DF93CC
:100A7000EC018B819C81892B29F0888199818923C4
:100A80008F3F51F4DF91CF910895CE010E941E0552
:100A9000CE010E948001F6CFCE010E94AB018111F0
:100AA000F4CF0E94EB09882369F38A81882351F3EC
:100AB0008091670282FFE6CF82E00E94960AE2CF31
:100AC00090E080E00E94EB1490E080E00E9401152D
:100AD0000E94120A0E94330A0E9440110E942411AF
:100AE00008950E94DA090E94600508950E94020A92
:100AF0000E947105089592959F70963091F058F478
:100B0000925F9F70923058F4803F19F030F4883E25
:100B100030F481E008959A5FF4CF843FD1F380E010
:100B20000895883EB0F3813FD1F7F3CFFC01838174
:100B30009481892B29F08081918189238F3F11F441
:100B400080E00895808191810E9401070E947B05C9
:100B50000895A5E0B0E0EFEAF5E00C94E91D2596D4
:100B6000E2E00C94051EA6E0B0E0E9EBF5E00C94A1
:100B7000E91D2696E2E00C94051E08950E94BD052D
:100B800008950E94BE0590939901809398010E9458
:100B90006005089508950E94C10508952091980167
:100BA00030919901822B932B0E94C10508952091C9
:100BB000980130919901822393230E94C1050895E1
:100BC0002091980130919901822793270E94C105B5
:100BD00008950E94BD0508950E94E90508950E94A8
:100BE000EC0590939701809396010E94600508950B
:100BF00090E080E00E94EF05089521E030E0A90137
:100C000002C0440F551F8A95E2F7CA010E94EF0502
:100C1000089521E030E002C0220F331F8A95E2F7E9
:100C20008091960190919701822B932B0E94EF0562
:100C3000089521E030E002C0220F331F8A95E2F7C9
:100C4000209530958091960190919701822393236E
:100C50000E94EF05089521E030E002C0220F331F0B
:100C60008A95E2F7809196019091970182279327C8
:100C70000E94EF0508952091960130919701822BF3
:100C8000932B0E94EF0508952091960130919701D2
:100C9000822393230E94EF050895209196013091BD
:100CA0009701822793270E94EF0508950895262F24
:100CB000277091E001C0990F2A95EAF723E0769515
:100CC00067952A95E1F7660F771F660F771FFA0180
:100CD000E60FF71F50E040E0682F70E08191DF01E0
:100CE00011979B01042E02C0369527950A94E2F7CE
:100CF000217021952827292328272C934F5F5F4FA8
:100D00004430510559F70895A82FA77023E0969510
:100D100087952A95E1F7880F991F880F991FFB0186
:100D2000E80FF91F50E040E080E0219130E00A2E0A
:100D300002C0369527950A94E2F721703327042ED6
:100D400001C0220F0A94EAF7822B4F5F5F4F4430B5
:100D5000510559F70895262F943070F4853060F4CA
:100D6000682F70E085E0989F600D711D11244AE89E
:100D700051E0822F0E9457060895292F943068F47D
:100D8000853058F490E06AE871E035E0239F800DEB
:100D9000911D11240E948406089580E00895B0E01A
:100DA000A0E0E5EDF6E00C94E21D7C0100919601D7
:100DB000109197018091980190919901082B192B1E
:100DC000CFE0D0E0CC24C394D12CBC2EC6010C2E95
:100DD00002C0880F991F0A94E2F780239123892B80
:100DE00049F4219790F7B12C8B2DCDB7DEB7E9E010
:100DF0000C94FE1DB7018C2F0E945D0D019789F3A5
:100E0000F3CFCF93DF93EC010E94CF06BE010E9487
:100E10005D0DDF91CF9108951F93CF93DF93EB0189
:100E200090918901992339F0CB010E940107DF914C
:100E3000CF911F910895882369F0CB010E94CF06BE
:100E4000182F682FCE010E94AB06BE01812F0E9491
:100E50005D0DEDCFCB010E94BD06182FF6CF1F937D
:100E6000CF93DF93C0919A0116E080919B018C1380
:100E700004C0DF91CF911F910895D0E01C9FF00135
:100E80001D9FF00D1124E456FE4F40815181628177
:100E90007381848195810E94B3052196C770E5CF47
:100EA0004091CC015091CD016091CE017091CF0164
:100EB0008091D0019091D1010E94B30508951F93B4
:100EC000CF93DF938091D101807F09F049C0809159
:100ED000CE01882309F444C080919A01C0919B01FE
:100EE0006091CC017091CD01A091CF01B091D00162
:100EF000D62FD72316E0C81799F190E0109711F07C
:100F0000DF3F19F401968770F6CF189F9001199F63
:100F1000300D1124F901E456FE4F41814713F2CF01
:100F200040814613EFCF42814111ECCF4381548180
:100F30004A1B5B0B483C510528F78091D1018F700B
:100F400080618093D101F901EF55FE4F80818F7050
:100F5000806180838CEC91E00E9436050E942F070F
:100F6000DF91CF911F910895A1E1B0E0EAEBF7E0A6
:100F70000C94E11D8C0185E0F801DE011D960190C5
:100F80000D928A95E1F7F801E2808CECC82E81E0A1
:100F9000D82E6091CF017091D0016115710509F4CF
:100FA0004EC19091CC012091CD01892F82238F3F9A
:100FB00009F445C140815181A380B480F090CE01F5
:100FC000F501E61BF70BFF2009F4EAC08091D1017F
:100FD000382F307FE83CF10508F0A3C031116DC017
:100FE000FE2C251316C0941314C0E11012C08F708C
:100FF00080618093D1010E945007C6010E9436058E
:101000008091D101F80185838F2D6196EAE00C94DF
:10101000FD1DA114B10429F0842F85238F3F09F011
:1010200027C180E0F82FF170DF2E80FF3CC0809157
:101030009A0120919B0136E0821315C04D875E878F
:101040008D859E850E940107292F22952F702230C1
:10105000F0F0243018F59F70F1F0F8019581907F41
:10106000D1F4D12C1EC090E0389FF001399FF00DD3
:101070001124E456FE4F6181651306C0608164133C
:1010800003C06281E6120FC001968770D5CF9F70B2
:1010900011F0882331F3805E883018F3C8010E9474
:1010A0003605FD2CB1CFEE2009F4AECF8091D101F1
:1010B00081608093D101F12CA7CF251306C0941332
:1010C00004C0F801EE2009F487C0C8010E9496050B
:1010D000882319F1EE2009F18091D101803270F05E
:1010E0002091CC013091CD0138872F831986BB86A2
:1010F000AA868C87CE0107960E94360586E0F80105
:10110000ACECB1E001900D928A95E1F70E945F0787
:101110000E945007FF24F39477CFC8010E94360540
:10112000F9CF311113C07A2DB98AA88A6E2D898919
:101130000E94A9058CEC91E00E94360586E0F6013C
:1011400011928A95E9F70E945007B5CF25130FC079
:1011500094130DC0E1100BC0F8018583C8010E94F3
:10116000360586E0F60111928A95E9F74DCFC80160
:101170000E949605882389F2EE2079F28091D101B0
:10118000803208F4BBCF2091CC013091CD013A835D
:1011900029831B82BD82AC828E83CE010196ACCFA7
:1011A000E83CF10508F03EC0FE2CEE2009F4B5CF76
:1011B00025132AC0941328C08091D10180FD1BC043
:1011C000982F907FC1F0F8018583903F31F0982FE0
:1011D000907F905F8F70892B8583C8010E943605B0
:1011E00086E0F801ACECB1E001900D928A95E1F750
:1011F0000E94500709CF86E0F801ACECB1E0019005
:101200000D928A95E1F700CFC8010E9496058111E1
:1012100075CF8091D10181608093D101C8010E9476
:101220003605F2CE7A2DB98AA88A6E2D89890E9458
:10123000A90586E0F60111928A95E9F7D9CFEE204B
:1012400009F46BCFC8010E949605F82E882309F493
:1012500064CF86E0F801ACECB1E001900D928A9584
:10126000E1F78CEC91E00E9473020E945F07C0CF0F
:1012700081E08E25D7CEACE0B0E0E1E4F9E00C945B
:10128000E81D4F83588769877A878B879C87CE01B3
:1012900007960E94B407882369F08A859B85892B6D
:1012A00039F04F815885842F85238F3F09F06BC01B
:1012B00016E05FC086E0FE013796DE0111960190D0
:1012C0000D928A95E1F78A859B85892B89F38F8119
:1012D000988589238F3F61F320919B0130E0C901FC
:1012E00001968770992740919A014817190671F461
:1012F0000E94760510929B0110929A0186E0ECEC18
:10130000F1E0DF011D928A95E9F7D2CF96E0929F36
:10131000D001939FB00D1124A456BE4FFE0131960B
:1013200001900D929A95E1F780939B010E942F07FF
:10133000BFCF819FC001112484569E4F0E94B407E5
:101340008823E9F0E0919A011E9FF0011124E456F0
:10135000FE4F4081518162817381848195810E9419
:10136000B30580919A0190E0019687709927809348
:101370009A0180919A0190919B018913DACF2C9662
:10138000E3E00C94041E69857A858B859C850E9418
:10139000B3058ECF682F80910001909101010E94CA
:1013A000AB150895682F80910001909101010E9472
:1013B000B915089580910001909101010E94C7150F
:1013C00008958091F2018595859585950895809180
:1013D000F201877008959091F201977081E009F40D
:1013E00080E0089580911502089590911502892B4F
:1013F00080931502089580959091150298239093FB
:101400001502089510921502089590911402892BE7
:1014100080931402089580959091140298239093DC
:10142000140208951092140208958091F301089512
:1014300008950E94180A08959091670292FF08C0CB
:101440009091F301981721F08093F3010E94190AFB
:1014500008958091F301882329F01092F30180E030
:101460000E94190A0895CF93DF93E0910001F09153
:101470000101809115028083E0910001F09101014A
:10148000808190911402892B80839091F30199239C
:1014900081F0E0910001F09101018081892B80832E
:1014A00080910001909101010E94171581110E9405
:1014B000290AC0910001D091010140E250E062EDA3
:1014C00071E0CE010E94241E892B59F080E2FE01BA
:1014D000A2EDB1E001900D928A95E1F7CE010E9454
:1014E000C314DF91CF91089508950E94740A08955E
:1014F0009091670292FF11C098E0899F900111249A
:10150000622B6093F2010E9409068091F201859599
:10151000859585950E94750A08950E94090608958B
:101520001092F20180E00E94750A08959091F201F4
:10153000809589238093F201282F277091F4282F1A
:10154000082E000C330B9217130659F09091670286
:1015500092FF07C08595859585950E9419060E9482
:10156000900A08959091670292FB222720F928178C
:1015700069F080FB92F990936702809166029091E6
:1015800067020E94030B82E00E94960A08958091F0
:10159000670282FB882780F991E089270E94B20ABE
:1015A000089581E00E94B20A089580E00E94B20A84
:1015B00008956FEF7FEF90E080E00E94661E08952F
:1015C00090E080E00E94421E21E0883E9E4F09F09C
:1015D00020E0822F089582E090E00E943A1E089554
:1015E00083E090E00E943A1E0895CF9384E090E05B
:1015F0000E943A1EC82F82E290E00E943A1E982F65
:101600008C2FCF910895CF93C92F682F84E090E05D
:101610000E94481E6C2F82E290E00E94481ECF91EB
:101620000895AB01BC018FE090E00E945A1E08951E
:10163000AB01BC0183E190E00E945A1E089560E076
:1016400070E0CB010E94180B089560E070E0CB01C0
:101650000E94110B0E941F0B089568EE7EEF90E030
:1016600080E00E94661E60E082E090E00E94481EDA
:1016700060E083E090E00E94481E10929901109271
:10168000980160E084E090E00E94481E64E082E2FD
:1016900090E00E94481E60E085E090E00E94481EB5
:1016A00060E086E090E00E94481E6FEF87E090E0E7
:1016B0000E94481E40E050E0BA0188E090E00E949D
:1016C0005A1E60E08DE090E00E94481E40E050E02D
:1016D000BA0188E190E00E945A1E60E087E190E044
:1016E0000E94481E40E050E0BA018CE190E00E9468
:1016F0005A1E70E060E080E290E00E94661E40E0CA
:1017000050E0BA0188E190E00E945A1E0E94250B29
:1017100008950E942D0B0895682F8EE090E00E949E
:10172000481E08950E94941660932002709321022F
:10173000809322029093230260931C0270931D02F7
:1017400080931E0290931F020895089508950E94A9
:10175000A60B089508950E94AA0B089587E49EE0C1
:101760000E94AC140E94A50B0E94A70B089581E073
:1017700008950E94B70B0895089508950E94BC0B28
:101780000E94BD0B08950E94660E0E9412020895E9
:101790000E947F160E942E0F0E94C30B0E94AB0B6B
:1017A0000895AAE0B0E0E7EDFBE00C94E11D0E9493
:1017B000440F88E1A82E82E0B82E750110E0F701F1
:1017C00001917F01812F0E948C0E1F5F143009F45C
:1017D00040C00817A1F38091240281FD0E94920E5F
:1017E0000E94B90BC82E10E0812F0E948C0E082F8A
:1017F000F50181915F01081731F1D02ED826F12C27
:10180000EE24E3948D2D8E21B1F0CC20A1F0FE8248
:101810001F8391E0802F8E2109F490E098870E9429
:1018200088168160782F9A8789874E815F816885C5
:101830008A850E943E02F394EE0CF5E0FF12E2CF9F
:10184000F501319700831F5F143071F60E94920BEF
:1018500020C00813C0CF0E9488168C018091160208
:101860009091170208171907A1F08FEF89838A83D7
:101870001B820E9488168160782F9D838C8349810A
:101880005A816B818D810E943E0210931702009352
:1018900016020E9462110E9425022A96EAE00C9428
:1018A000FD1DCF93DF930E94620DEC01811521E5B0
:1018B000920708F042C0811530E5930708F09FC0F9
:1018C000883E910530F5803E910508F094C0883A35
:1018D000910588F4853A910508F086C0813091051C
:1018E00009F489C0009709F486C0049708F083C002
:1018F000D0E0C0E080C08F3B9105D0F7C85AD0E05F
:10190000CC0FDD1FC85BDE4F0990D881C02DD46499
:1019100072C0811540E2940750F4C11581E0D807E8
:1019200008F069C0CD3ED10518F3D06564C08115BB
:101930009044F0F2DF70D06A5EC0811535E5930700
:1019400018F5811544E5940708F085C0C11583E5B5
:10195000D80708F06CC0C11522E5D20708F462C0B0
:10196000CE018370992721E030E002C0220F331F9F
:101970008A95E2F7C695C69580E2C89FE0011124DA
:10198000C22BD32BDC6837C0811539E59307A8F447
:10199000811548E5940708F063C0C11586E5D807AE
:1019A00008F0A6CF8C2F0E94040EC82FD0E0DC2FA9
:1019B000CC27CC27DF71D0621EC081152AE59207A3
:1019C00008F453C090568115904208F091CF8D2FA6
:1019D0008F710E94040E90E0982F882788279F71AE
:1019E0009C012C2BE901E7CFC55AD0E0CA58DE4F45
:1019F000C881D0E0D064CE01DF91CF91089583708B
:101A0000992721E030E002C0220F331F8A95E2F7C8
:101A1000C695C69540E2C49FE0011124C22BD32B8A
:101A2000DD68E9CFDC2FCC27C16FD06AE4CFCE01CF
:101A30008370992721E030E002C0220F331F8A957E
:101A4000E2F7C695C69540E2C49FE0011124C22B7F
:101A5000D32BDA68D0CFD82FCC27C46FD06ACBCFA6
:101A6000D82FCC27C06FD06AC6CF8F700E94040ECB
:101A700034E0D695C7953A95E1F7CF709C2FEC01ED
:101A8000D069B9CF972F7430A8F4653098F470E01E
:101A900025E0929F600D711D1124FB0194E1899F47
:101AA000E00DF11D1124EE0FFF1FE455FF4F85914E
:101AB0009491089580E090E008950E94420D0E9464
:101AC000510C089582389105B9F1B0F48133910534
:101AD00009F47DC048F48932910509F46DC08A3259
:101AE000910509F47BC008958533910509F45FC021
:101AF0008933910509F10895833E9105D9F138F4B0
:101B0000803E910529F1823E910579F10895863E46
:101B10009105D9F1873E910509F43EC0843E9105B7
:101B200041F52091670221FF24C08091660284FD67
:101B300019C087EE90E0089520916602237009F0A5
:101B40005AC02091670223FF14C089E290E00895F3
:101B50002091660220FD38C03091670230FF09C035
:101B600024FF43C090E080E008952091660222FDAA
:101B7000F7CF08952091660222FD3AC030916702A6
:101B800030FD39C024FFF5CFEDCF2091660223FF51
:101B9000F0CF24FDE7CFCDCF2091660223FD2EC0EC
:101BA0003091670231FFEECF84EE90E008952091EE
:101BB000660225FFDECFC9CF2091660225FD21C038
:101BC0002091670223FFD5CF89E390E0D2CF209107
:101BD000660226FFCECF8AE290E008952091660249
:101BE00026FFC7CF81E390E0089583EE90E008954B
:101BF00082EE90E0089580EE90E0089586EE90E009
:101C0000089585E390E008959091660292FF06C0E2
:101C1000282F28712830F9F4877F846093FF06C04D
:101C2000282F28712831F1F4877E84612091670282
:101C300020FF06C0382F38713830D9F4877F816093
:101C400021FF06C0282F28712831D1F4877E8161B9
:101C500094FD877E0895282F24712430F9F68B7F18
:101C60008860DCCF282F2471243101F78B7E8861B6
:101C7000DDCF382F3171313019F78E7F8860E0CF9A
:101C8000282F2171213121F78E7E8861E1CF80E0FC
:101C900008950E94D90A08950E94440F2FEF86E705
:101CA00091E0215080409040E1F700C000000E9488
:101CB000440F80E00E948C0E80FF04C00E94490EF9
:101CC0000E94D31608950E944C0E08950E94E00AC7
:101CD000811102C00E94890B0E94EB0A80932402AA
:101CE0000E94F50A90936702809366020E94630E39
:101CF0000E94F00A90E00E94CB058091960190919D
:101D000097010E94EC05089508950E94840E08959D
:101D100008950E94880E0895E82FF0E0E459FD4FE1
:101D200080810895089580EA8A95F1F7089500C0AA
:101D300008950E94930E0895F894E82FE295EF70AD
:101D4000F0E031A1282F2F7081E090E001C0880FD2
:101D50002A95EAF7982F9095932391A392A1892B26
:101D600082A378940895CF93DF9384EF0E949C0E12
:101D700085EF0E949C0E86EF0E949C0E87EF0E94CA
:101D80009C0EC9E7D1E089918F3F11F00E949C0E13
:101D900081E0CE37D807B9F7DF91CF910895B0E051
:101DA000A0E0E5EDFEE00C94E31DEC01D62E062F3D
:101DB00010E0C80182589E4F7C01FC0180818F3F5A
:101DC00009F445C0F894E82FE295EF70F0E091A196
:101DD0008F7021E030E001C0220F8A95EAF7892F49
:101DE000822B81A382A12095282322A378940E948C
:101DF000970EE9E7F1E04EE751E031E0C12C219187
:101E00002F3F51F1A22FA295AF70B0E090968C9128
:101E100090E02F7002C0959587952A95E2F780FD96
:101E20001BC0832FC82A330F4E175F0741F7F701F6
:101E300080818F3F11F00E949C0E61E0C11001C0B3
:101E400060E08D2D0E94990EC00FD11FC882CDB7C2
:101E5000DEB7E8E00C94FF1D80E0E4CF0E94B30EF3
:101E600084E0ECE6F2E0DF01982F1D929A95E9F705
:101E7000E8E6F2E0DF011D928A95E9F784E00E942E
:101E8000810F0E948C010895A4E0B0E0EAE4FFE035
:101E90000C94E81D19821A821B821C8210E0612FAB
:101EA000CE0101960E94CF0E1F5F1430C1F744E0AF
:101EB00050E0BE016F5F7F4F88E692E00E94241ED3
:101EC00021E0009709F420E0892B61F089819A8153
:101ED000AB81BC818093680290936902A0936A02EF
:101EE000B0936B0244E06CE672E088E692E00E94F8
:101EF000820F182F0E948F01812F2496E3E00C940B
:101F0000041E0895CF92DF92EF92FF920F931F93DA
:101F1000CF936C017B01042F222349F081E0809351
:101F200027020E9488169093260280932502C09172
:101F30002702C1110AC0C0E08C2FCF911F910F91D1
:101F4000FF90EF90DF90CF900895809125029091BF
:101F500026020E94A016059770F310E0A801B601B2
:101F6000C7010E94241E892B41F0A801B601C701B8
:101F70000E94311E10922702DFCFC0E0FBCF0E94EB
:101F80009A180E94C80B0E94A71808950E94AC18C6
:101F90000E94D10B0E94C61808950E9421160E942B
:101FA00080180E94AE0B0E94BF0F0E94C60F0E94B5
:101FB000BE0BFBCF80912E0280FF0DC06091070108
:101FC00070E0660F771F6038710570F56115710557
:101FD00069F1862F089581FF07C06091070184E0B1
:101FE000689FB0011124EFCF6091070182FD0AC004
:101FF00080912D028823A9F02091060160910701AC
:10200000821710F088E0ECCF869FC001112433E0E6
:10201000880F991F3A95E1F7622F70E00E94BF1D6B
:10202000D2CF68E070E0D5CF8FE7089581E00895C2
:1020300080912E0280FF0CC06091030170E07595C5
:102040006795759567956115710549F1862F089516
:1020500081FF06C06091030170E075956795F3CF2D
:102060006091030182FD0BC090912C029923A1F095
:102070006091020180910301961738F0682F70E09B
:102080006038710500F38FE70895899FC00111241E
:1020900070E00E94BF1DF4CF61E070E0D7CF81E017
:1020A00008958D3E31F40E94DA0F819580933202BB
:1020B00008958E3E19F40E94DA0FF8CF8F3E31F466
:1020C0000E94DA0F8195809331020895803F19F4C0
:1020D0000E94DA0FF8CF893F29F40E9418108093EC
:1020E000330208958A3F21F40E9418108195F7CF9A
:1020F0008B3F31F40E94181081958093340208952B
:102100008C3F19F40E941810F8CF9FE0980F983078
:1021100070F4815F990B21E030E001C0220F8A95B5
:10212000EAF780913002822B8093300208958D3F30
:1021300031F480912E02816080932E0208958E3FAB
:1021400021F480912E028260F7CF8F3FB9F7809102
:102150002E028460F1CF409131028D3E59F480917E
:10216000320287FF0DC01092320241110BC0109253
:102170002D0208C08E3E81F48091320218169CF325
:10218000442381F08091330290913402892B09F02D
:102190005AC010922C0208958F3E49F447FFF0CFA9
:1021A00010923102809132028111ECCFE0CF803F5A
:1021B00019F41416ACF3E4CF90913302893F29F45B
:1021C0001916F4F610923302DBCF8A3F19F497FF09
:1021D000D7CFF8CF909134028B3F29F497FFD0CF1F
:1021E00010923402CDCF8C3F19F41916CCF3C8CF1E
:1021F0009FE0980F983090F4815F990B21E030E0D8
:10220000B90102C0660F771F8A95E2F7CB0180956E
:1022100090913002892380933002B2CF8D3F31F408
:1022200080912E028E7F80932E02AACF8E3F21F4C2
:1022300080912E028D7FF7CF8F3F09F0A1CF809143
:102240002E028B7FF0CF08950E9488169C019091FA
:10225000310280913202982B21F030932B0220938F
:102260002A029091330280913402982B21F030930E
:102270002902209328028FE292E00E94DD14089543
:1022800086E0EFE2F2E0DF011D928A95E9F7109215
:102290002D0210922C0210922E020895FC018281D0
:1022A00081110EC0838181110BC08481811108C00E
:1022B00091E08581811101C090E0892F817008959E
:1022C00081E0FCCFA6E0B0E0E8E6F1E10C94E81D87
:1022D00086E0EFE2F2E0DE01119601900D928A9520
:1022E000E1F71092310210923202109233021092F2
:1022F00034028B819C81892B89F080912A029091F4
:102300002B020E94A016AC0190912D029923C9F1D5
:10231000809108018417150608F440C08D819E81C4
:10232000892B91F080912802909129020E94A01699
:10233000AC0190912C02992309F471C080910401A1
:102340008417150608F479C0BE016F5F7F4F8FE2D6
:1023500092E00E94D915811105C08FE292E00E949F
:102360004E1181110E94241186E0FE013196AFE2E8
:10237000B2E001900D928A95E1F72696E3E00C9485
:10238000041E209109018AE0289F9001112424173E
:10239000350720F69F5F90932D0202C09F3FD1F733
:1023A0001B81112359F00E94DA0F9FEF11160CF4D4
:1023B00091E0899F802D1124809331021C8111238B
:1023C00059F00E94DA0F9FEF11160CF491E0899FEB
:1023D000802D11248093320230913102332309F48D
:1023E0009DCF20913202222309F498CF45EB34038C
:1023F000C0011124992359F09093310245EB240335
:1024000090011124332339F03093320287CF81E0D9
:1024100080933102F3CF81E0809332027FCF20910D
:1024200005018AE0289F900111242417350708F040
:102430008BCF9F5F90932C0202C09F3FD1F71D81ED
:10244000112359F00E9418109FEF11160CF491E01F
:10245000899F802D1124809333021E81112359F00E
:102460000E9418109FEF11160CF491E0899F802DA7
:1024700011248093340230913302332309F464CF62
:1024800020913402222309F45FCF45EB3403C001CD
:102490001124992359F09093330245EB24039001C2
:1024A0001124332339F0309334024ECF81E08093EE
:1024B0003302F3CF81E08093340246CFCF93DF9392
:1024C000EC01FB018281882309F464C1C430FDE57D
:1024D000DF07E0F5CB3F9CE5D90730F49E012250A1
:1024E0003C4524313105D8F50E94F50A90936702E6
:1024F00080936602C231ECE5DE0709F41FC108F0E3
:102500006EC0C9308CE5D80709F4F2C008F03FC0AE
:10251000C530ECE5DE0709F4DBC058F5C3308CE5C7
:10252000D80709F4CDC008F0CFC080916602816061
:10253000C230DC4509F4AEC080916602909167021A
:102540000E94030B0E94760580E009C0C63AEDE5C3
:10255000DE0751F238F4C2369DE5D90729F2DF9142
:10256000CF9108959E012E5A3D4523303105B8F78D
:10257000BBCF809166028062C730FCE5DF0709F4BB
:1025800089C008F4B1C080916602806483C0CD30F8
:102590009CE5D90709F4BAC070F4809166028E7F79
:1025A000CB30FCE5DF0709F475C008F4A7C08091C3
:1025B00066028D7F6FC0CF309CE5D90709F4B6C0A5
:1025C00008F4A8C0C031FCE5DF0709F4B3C0C1318D
:1025D000DC4509F0B1CF809166028F7B5BC0C115ED
:1025E0009DE5D90709F4B4C098F5CB3FFCE5DF07BA
:1025F00009F472C0B8F4C4319CE5D90709F4B6C037
:1026000008F4A2C0C531DC4509F096CF809166027E
:1026100082FB992790F921E0922790FB82F990FBA9
:1026200083F938C0CD3F8CE5D80709F477C008F4AA
:1026300057C0CE3FECE5DE0709F474C08091670215
:102640008360CF3FDC4509F077CF8093670274CF7A
:10265000C2368DE5D80709F496C068F4C230EDE5BE
:10266000DE0709F48CC008F477C0C330DD4509F0FB
:1026700063CF80E085C0CE3A9DE5D907E9F068F4E4
:1026800090916602892F8E7F90FF8160C63ADD456A
:1026900009F052CF809366024FCFCF3A8DE5D8072D
:1026A00089F1C03BDD4509F047CF90916702892F42
:1026B000877F93FF8860C9CF809167028860C5CF0C
:1026C000809166028260E6CF809166028460E2CFEC
:1026D000809166028860DECF809167028160B5CF0D
:1026E000809167028260B1CF809166028061D2CF13
:1026F0000E947605809166028068CCCF8091660248
:102700008C60C8CF80916702877F9FCF80916602DF
:102710008B7FC0CF80916602877FBCCF809167029C
:102720008E7F93CF809167028D7F8FCF80916602DD
:102730008F7EB0CF809166028F7DACCF0E947605F0
:10274000809166028F77A6CF80916602837FA2CFA9
:10275000809167028C7F79CF80916702982F909546
:1027600091708E7F892B90FB81F96FCF0E94760547
:1027700090916602892F97FB87F980588BCF81E073
:102780000E948C0BD9CE90916602892F8F7E94FF88
:10279000806180CF81E0E3CECF93DF93EB01863180
:1027A0009C4511F50E94F2099A81992399F08A7A41
:1027B00091E009F490E090933502811109C089E21B
:1027C0000E94CA090E94330A80E0DF91CF910895E8
:1027D00085E3F6CF80913502811104C089E20E9421
:1027E000D209F0CF85E3FBCF81E0EFCF0F931F93AA
:1027F000CF93DF93C42FD22FFC0182818823C9F0AD
:10280000409338020E9488169093370280933602D4
:1028100080E28C0F883040F4C77081E001C0880FDF
:10282000CA95EAF70E941803DF91CF911F910F918B
:10283000089510913802141332C08091360290919D
:1028400037020E94A016883C910548F5C0E2CD0FE2
:102850001D17B9F080E2810F883040F4177081E0D5
:1028600001C0880F1A95EAF70E941F03C83048F488
:1028700081E09D2F977001C0880F9A95EAF70E941A
:102880001803802F0E940F03C83070F6D77081E0C4
:1028900001C0880FDA95EAF70E941F03C5CF80E2D6
:1028A0008C0F883008F6C77081E001C0880FCA9588
:1028B000EAF7F2CF0F939C01CB01243F4CE534079C
:1028C00059F1A8F4293DFCE53F0701F12A3D4CE50B
:1028D0003407D1F1283D3C4591F406E221EE41EE6A
:1028E00068ED7CE50E94F61380E00F910895263F85
:1028F000FCE53F07E9F0B0F0273F3C45F9F0FC016B
:102900008281882339F110923802EFCF07E225EE59
:1029100045EE69ED7CE5E6CF06E221EE40EE64EFA0
:102920007CE5E0CF07E225EE44EE65EF7CE5DACF0B
:1029300006E221EE42EE66EF7CE5D4CF07E225EE1B
:1029400046EE67EF7CE5CECF08E221E045EE6AED8A
:102950007CE5C8CF81E0C9CF909383018093820149
:10296000089590933E0280933D020895E0913D02C8
:10297000F0913E02309729F00190F081E02D099509
:10298000089580E00895E0913D02F0913E02309775
:1029900099F020911601222359F02091660227FF19
:1029A00007C0DC012C9111962C93119726E02C93F3
:1029B0000280F381E02D09950895E0913D02F091A8
:1029C0003E02309739F022E0DC012C930480F5813F
:1029D000E02D0995089520913B0230913C02281783
:1029E000390771F090933C0280933B02E0913D02E5
:1029F000F0913E02309721F00680F781E02D099595
:102A000008952091390230913A022817390771F060
:102A100090933A0280933902E0913D02F0913E0298
:102A2000309721F00084F185E02D09950895FC018F
:102A3000329680911601882321F0809166029EE1F2
:102A400087FF96E080E0915008F4089521912223B9
:102A5000D1F38F5FF8CF662301F120911601222375
:102A6000F1F02091660227FF1AC0462F4695469541
:102A700046954E3190F4677021E030E002C0220F9D
:102A8000331F6A95E2F7840F911DFC01828190E06B
:102A90002823392381E0232B69F480E00895FC0189
:102AA000329608962191261721F0E817F907D1F7F9
:102AB000F4CF81E008959C01FC0132969FEF80E005
:102AC0004191461751F09F3F19F4411101C0982FD1
:102AD0008F5F8630A9F79F3F09F40895290F311DB4
:102AE00097FD3A95F90162830895FC0132960896A4
:102AF0002191261303C0DF0111971C92E817F907F3
:102B0000B9F70895E62FE695E695E695EE3168F477
:102B1000E80FF92FF11D677021E030E001C0220FAE
:102B20006A95EAF78281822B82830895E62FE695E3
:102B3000E695E695EE3170F4E80FF92FF11D677018
:102B400021E030E001C0220F6A95EAF720958281EA
:102B500028232283089520911601222339F0209101
:102B6000660227FF03C00E94821508950E945B152C
:102B7000089520911601222339F02091660227FF43
:102B800003C00E94961508950E9475150895FC01D2
:102B9000329680911601882351F08091660287FF5A
:102BA00006C08EE1DF011D928A95E9F7089586E05F
:102BB000F9CF46E050E00E94241E21E0892B09F461
:102BC00020E0822F089508950E94E3150895811151
:102BD00006C081E080933F020E94E415089582E0E0
:102BE000F9CF83E080933F020E94E41508950E948C
:102BF000E715089581E080933F020E94E41508954F
:102C00000E94FA150895089508950E9404160895E3
:102C1000089508950E9403160895CF930E94081600
:102C20000E94440F0E940916C0E08C2F0E948C0E57
:102C3000811105C0CF5FC430C1F7CF91089581E005
:102C4000FCCF85B7806885BF85B7806885BF08954C
:102C50001F921FB61F9211248F939F93AF93BF9320
:102C600080914002811113C0809170029091710295
:102C7000A0917202B09173024196A11DB11D809383
:102C8000700290937102A0937202B0937302BF918D
:102C9000AF919F918F911F901FBE1F9018958091AB
:102CA0007802843031F10E94FF011092400288E1E5
:102CB00090E020E40FB6F894A895809360000FBED2
:102CC0002093600083B7817F846083BF83B7816076
:102CD00083BF7894889583B78E7F83BF0FB6F894AF
:102CE000A8958091600088618093600010926000D8
:102CF0000FBE08950E9476050E940402089582E0A6
:102D000084BD93E095BD9AEF97BD80936E000895C2
:102D10002FB7F8948091700290917102A091720285
:102D2000B09173022FBF08952FB7F894609170028D
:102D30007091710280917202909173022FBF089579
:102D40009C014FB7F8948091700290917102A0910C
:102D50007202B09173024FBF821B930B0895789457
:102D60001F921FB61F9211248F939F93AF93BF930F
:102D70008091700290917102A0917202B0917302E1
:102D80000196A11DB11D8093700290937102A093D2
:102D90007202B0937302BF91AF919F918F911F9078
:102DA0001FBE1F90189587E797E7909301088093BF
:102DB000000888E19AE00FB6F894A8958093600027
:102DC0000FBE90936000FFCF88E19AE00FB6F894B1
:102DD000A895809360000FBE90936000FFCF809114
:102DE0006402089508959C0182E08093E9009FEFBA
:102DF0008091E800915085FD06C085ED8A95F1F738
:102E000000009111F5CF8091E80085FF0CC050E0E3
:102E100040E066E070E0C9010E9438198091E80046
:102E20008E778093E8000895CF93DF93EC01809133
:102E300016018823B1F18091660287FF32C060E2FB
:102E400082E08093E9008FEF9091E800815095FD3A
:102E500006C095ED9A95F1F700008111F5CF8091AC
:102E6000E80085FF1BC08091160170E050E040E053
:102E7000811104C050E040E068E070E0CE010E94A3
:102E800038198091E8008E778093E80080E2FE0197
:102E9000A4E4B2E001900D928A95E1F7DF91CF9121
:102EA000089568E081E0CDCF8093410270934302A2
:102EB0006093420280917802843001F582E0809331
:102EC000E9008FEF9091E800815095FD06C095EDE7
:102ED0009A95F1F700008111F5CF8091E80085FF08
:102EE0000DC050E040E063E070E081E492E00E94B9
:102EF00038198091E8008E778093E8000895BC012E
:102F000084E00E9454170895BC0183E00E94541786
:102F1000089580917702811109C00E94C81A0E9409
:102F2000251B8091E20084608093E2000895109256
:102F3000770208950E94FA1508956091740281E065
:102F4000611101C080E00E94F1150895909178020E
:102F500081E0943009F080E0609174020E94F715DE
:102F6000089542E061EC81E00E94441A42E261EC83
:102F700082E00E94441A9091780281E0943009F036
:102F800080E0609174020E94E715089580917A02B2
:102F9000833009F461C030F48130D1F1823009F41A
:102FA0009EC008958A3009F48AC08B3009F46FC03E
:102FB000893009F050C080917902813209F04BC00C
:102FC00080917D0290917E02029708F044C080912A
:102FD000E800877F8093E8008091E80082FF37C097
:102FE0009091F3008091F200029731F48091F1000A
:102FF000813011F0863021F48091F10080936402D9
:103000008091E8008B778093E8000E94781A23C0B3
:1030100080917902813AF9F48091E800877F80936A
:10302000E80080917D0290917E02892B61F460E23C
:1030300084E492E070E00E9487198091E8008B7729
:103040008093E800089560E090E080E0F3CF809105
:1030500078028111C1CF089580917902813AD9F720
:1030600080917D0290917E02892BA9F78091E800E2
:10307000877F8093E8008091E80080FFFCCF8091FB
:1030800016018093F1008091E8008E77BCCF80918B
:103090007902813201F780917D0290917E02892B25
:1030A000D1F68091E800877F8093E8000E94781A2B
:1030B00080917B02809316010E947605089580918D
:1030C0007902813241F68091E800877F8093E800A1
:1030D0000E94781A80917C02809365020895809105
:1030E0007902813A09F0B7CF8091E800877F809319
:1030F000E8008091E80080FFFCCF80916502C1CF9D
:1031000084B7877F84BF0FB6F894A895809160003C
:10311000886180936000109260000FBE80E890E0AC
:103120000FB6F89480936100909361000FBE0E94E7
:10313000001608950E94C81A0E94251BE2EEF0E0D6
:1031400080818460808378940E94A41D08958AE021
:1031500091E00E94B114089580917802853031F495
:1031600080917802853019F00E947A1608950E94A5
:103170004F1680917602882399F30E940D168823BA
:1031800079F30E9422190E947605EACF08950E94E1
:10319000CA180895292F33272330310519F168F40F
:1031A0002130310509F444C02230310509F445C00D
:1031B00090E080E030E020E025C02132310549F187
:1031C00022323105A9F780E490E02BEF31E0611560
:1031D0007105C1F086EB90E025E431E061307105C6
:1031E00089F0E6CF99278130910581F0009729F089
:1031F0000297F1F6E4EDF0E002C0E4EFF0E0849134
:1032000090E09F01FA01318320830895E8EEF0E019
:10321000F6CF89E090E02AE031E06115710591F385
:1032200089E090E023E231E06130710559F3C0CFCD
:1032300082E190E023E331E0E5CF8BE390E028EFFB
:1032400030E0E0CF80E189BD82E189BD09B400FEB4
:10325000FDCF8091D8008F7D8093D8008091E000D1
:1032600082608093E0008091E00081FDFCCF0895B2
:10327000AF92BF92CF92DF92FF920F931F93CF93A3
:10328000DF936C01EB018A010E94971AF82E8111DD
:1032900023C00115110539F0F80180819181C81B07
:1032A000D90BC80ED91EB12CA12C2097A9F0809162
:1032B000E80085FD22C08091E8008E778093E800C9
:1032C00001151105A1F0F80180819181A80EB91EA8
:1032D000B182A08285E0F82E8F2DDF91CF911F91D2
:1032E0000F91FF90DF90CF90BF90AF9008950E9414
:1032F000971A8823D1F2F82EEFCFF60181916F0152
:103300008093F1002197FFEFAF1ABF0ACECFFC01E7
:1033100080917F029091800286179707A0F0611537
:10332000710529F49091E8009E779093E80090E071
:103330006115710551F4911108C08091E80082FF78
:1033400034C080E00895BC01F2CF809178028823D8
:10335000C1F18530C1F18091E80083FD30C08091DA
:10336000E80082FDEACF8091E80080FFE1CF809104
:10337000F3002091F200382F6115710519F0283003
:10338000310558F091E02830310509F090E02091A6
:10339000E8002E772093E800CBCF81918093F10055
:1033A000615071092F5F3F4FE7CF809178028823EA
:1033B00041F0853041F08091E80083FFBECF81E08D
:1033C000089582E0089583E00895FC0180917F02D2
:1033D0009091800286179707A0F06115710529F476
:1033E0008091E8008E778093E80090E06115710588
:1033F00051F4911108C08091E80082FF35C080E04F
:103400000895BC01F2CF809178028823C9F18530FC
:10341000C9F18091E80083FD31C08091E80082FD10
:10342000EACF8091E80080FFE1CF8091F300209106
:10343000F200382F6115710519F02830310558F068
:1034400091E02830310509F090E08091E8008E7716
:103450008093E800CBCF84918093F1003196615046
:1034600071092F5F3F4FE6CF80917802882341F0AA
:10347000853041F08091E80083FFBDCF81E0089561
:1034800082E0089583E00895982F973028F08F7098
:103490008093E90081E008959093E900242F762F2E
:1034A00050E0981731F07091EC002091ED005091B0
:1034B000F00021FD02C09F5FE8CF3091EB003E7F1E
:1034C0003093EB003091ED003D7F3093ED00309173
:1034D000EB0031603093EB007093EC002093ED0033
:1034E0005093F0002091EE0027FDE5CF80E0089595
:1034F0008091790287FF13C08091E80082FF06C0A7
:103500008091E8008B778093E80004C08091780276
:103510008111F2CF0895809178028823D9F38091A8
:10352000E80080FFF8CF8091E8008E77ECCF209103
:10353000E4003091E50095E6A9012091EC00822F8E
:10354000817020FF06C08091E80080FF06C080E007
:1035500008952091E80022FD1AC080917802882306
:1035600089F0853089F08091EB0085FD0FC02091B6
:10357000E4003091E50042175307F9F29150E1F66B
:1035800084E0089582E0089583E0089581E008953D
:103590000E94371B0E943F1BE0EEF0E080818160BB
:1035A0008083E8EDF0E080818F77808319BCA7ED00
:1035B000B0E08C918E7F8C9380818F7E808310927F
:1035C000770208950F931F93CF93DF930E94371BC9
:1035D0000E943F1BC8EDD0E088818F778883888167
:1035E0008068888388818F7D888319BC10927802D7
:1035F00010927402109276021092750200EE10E0A2
:10360000F80180818B7F808388818160888342E09C
:1036100060E080E00E94441AE1EEF0E080818E7F5D
:103620008083E2EEF0E08081816080838081886029
:103630008083F80180818E7F808388818061888388
:10364000DF91CF911F910F910895E8EDF0E0808117
:103650008F7E8083E7EDF0E080818160808384E06D
:1036600082BF81E0809377020E94E21A0895E8ED1C
:10367000F0E080818E7F80831092E20008951092A6
:10368000DA001092E10008951F920F920FB60F9288
:1036900011242F933F934F935F936F937F938F9357
:1036A0009F93AF93BF93EF93FF938091E10082FFCD
:1036B0000BC08091E20082FF07C08091E1008B7F08
:1036C0008093E1000E94A31D8091DA0080FF19C061
:1036D0008091D80080FF15C08091DA008E7F8093A2
:1036E000DA008091D90080FF96C080E189BD82E137
:1036F00089BD09B400FEFDCF81E0809378020E946D
:1037000089178091E10080FF19C08091E20080FF5D
:1037100015C08091E2008E7F8093E2008091E200EC
:1037200080618093E2008091D80080628093D8000D
:1037300019BC85E0809378020E949D178091E1007A
:1037400084FF2BC08091E20084FF27C080E189BD07
:1037500082E189BD89B5982F917080FFFBCF809160
:10376000D8008F7D8093D8008091E1008F7E809378
:10377000E1008091E2008F7E8093E2008091E20080
:1037800081608093E20080917402882309F449C02B
:1037900084E0809378020E94A6178091E10083FF65
:1037A00029C08091E20083FF25C08091E100877FDE
:1037B0008093E10082E080937802109274028091FD
:1037C000E1008E7F8093E1008091E2008E7F809304
:1037D000E2008091E20080618093E20042E060E0DC
:1037E00080E00E94441A8091F00088608093F0008D
:1037F0000E949A17FF91EF91BF91AF919F918F9186
:103800007F916F915F914F913F912F910F900FBEDC
:103810000F901F90189519BC109278020E9497176C
:1038200070CF8091E30087FD93E090937802B3CF4F
:103830001F920F920FB60F9211242F933F934F9325
:103840005F936F937F938F939F93AF93BF93CF9328
:10385000DF93EF93FF93D091E900DF708091EC004C
:10386000C82FC17080FDC0E81092E9008091F0007F
:10387000877F8093F00078940E945C1C1092E9008E
:103880008091F00088608093F000CD2BCF70C093C2
:10389000E900FF91EF91DF91CF91BF91AF919F919F
:1038A0008F917F916F915F914F913F912F910F90E9
:1038B0000FBE0F901F901895AAE2B0E0E2E6FCE17F
:1038C0000C94E81D89E792E02091F100FC0121931E
:1038D000CF01F2E081389F07B9F70E94C6178091A7
:1038E000E80083FF1EC18091790290917A029A309C
:1038F00008F017C1E92FF0E0E657F14E0C94D31D04
:10390000803899F0823809F00CC180917D028F7067
:10391000873008F006C18093E9008091EB0085FBB9
:10392000882780F91092E90006C080917502909175
:103930007602911182609091E800977F9093E80061
:103940008093F1001092F1008091E8008E77E5C03D
:10395000882309F4D3C0823009F0E3C080917B0250
:103960008111D6C080917D028F702FEF280F2630F5
:1039700008F0D7C08093E9002091EB0020FFC8C079
:10398000933031F48091EB0080628093EB00C0C0F3
:103990009091EB0090619093EB0021E030E001C04A
:1039A000220F8A95EAF72093EA001092EA008091AC
:1039B000EB008860EACF8111B4C010917B021F77C1
:1039C0008091E3008078812B8093E3008091E80070
:1039D000877F8093E8000E94781A8091E80080FF3A
:1039E000FCCF8091E30080688093E30082E01111B6
:1039F00083E08093780295C08058823008F091C0AF
:103A000080917B0290917C028C3D23E09207A1F58E
:103A100083E08A838AE289834FB7F894DE011396A4
:103A200020E03EE051E2E32FF0E050935700E491B4
:103A300020FF03C0E295EF703F5FEF708E2F90E0A4
:103A4000EA30C0F0C7968D939D932F5F243159F7CC
:103A50004FBF8091E800877F8093E8006AE270E0C2
:103A6000CE0101960E9487198091E8008B778093A0
:103A7000E80057C0C096E7CF60917D0270917E024A
:103A8000AE014F5F5F4F0E94C718BC01892B09F43C
:103A900048C09091E800977F9093E80089819A81CF
:103AA0000E94E519E1CF8038E1F58091E800877F39
:103AB0008093E800809174028093F10045CF8111DA
:103AC00030C090917B02923060F58091E800877F52
:103AD0008093E800909374020E94781A8091740297
:103AE000882311F084E005C08091E30087FDFACFC0
:103AF00081E0809378020E94B11713C080917B020D
:103B0000813079F481E0933009F080E0809376028F
:103B10001092E9008091E800877F8093E8000E947E
:103B2000781A8091E80083FF0AC08091E800877FBF
:103B30008093E8008091EB0080628093EB00AA966E
:103B4000E3E00C94041E0895CF93809178028823BB
:103B5000A1F0C091E900CF709091EC00892F8170A5
:103B600090FD80E8C82B1092E9008091E80083FD69
:103B70000E945C1CCF70C093E900CF91089597FB21
:103B8000072E16F4009407D077FD09D00E94101E6E
:103B900007FC05D03EF4909581959F4F0895709550
:103BA00061957F4F0895EE0FFF1F0590F491E02D72
:103BB00009942F923F924F925F926F927F928F92D1
:103BC0009F92AF92BF92CF92DF92EF92FF920F93AC
:103BD0001F93CF93DF93CDB7DEB7CA1BDB0B0FB6B6
:103BE000F894DEBF0FBECDBF09942A883988488873
:103BF0005F846E847D848C849B84AA84B984C88409
:103C0000DF80EE80FD800C811B81AA81B981CE0FFF
:103C1000D11D0FB6F894DEBF0FBECDBFED010895E4
:103C2000AA1BBB1B51E107C0AA1FBB1FA617B707E2
:103C300010F0A61BB70B881F991F5A95A9F78095FE
:103C40009095BC01CD010895FB01DC0104C08D916C
:103C50000190801921F441505040C8F7881B990BFE
:103C60000895FB01DC0102C001900D9241505040CB
:103C7000D8F70895F999FECF92BD81BDF89A99279A
:103C800080B50895A8E1B0E042E050E00C946E1ECB
:103C9000262FF999FECF92BD81BDF89A019700B405
:103CA000021639F01FBA20BD0FB6F894FA9AF99AA5
:103CB0000FBE08950396272F0E94491E0E94481E9A
:103CC000252F0E94491E242F0C94491E0196272F50
:103CD0000E94491E0C94481EDC01CB01FC01F9999D
:103CE000FECF06C0F2BDE1BDF89A319600B40D9248
:103CF00041505040B8F70895F894FFCF6103610335
:103D0000920392031F043B04C103C1034604B7049A
:103D1000C604C604801CA81C911DA81C911DDB1C98
:083D2000FC1C911D531D5F1DE9
:103D2800F401280850011E0A1401EF161417F3169F
:103D380084177F17F21601E200E900EA00B500B621
:103D480000B700CD008301CC008A019201940121C3
:103D580002230224022502260227022A02B300B403
:103D6800006F007000818283E200E900EA00B5007C
:103D7800B600B700CD008301CC008A0192019401FE
:103D88002102230224022502260227022A02B30066
:103D9800B4006F0070008182833534C69766F4F5ED
:023DA800F6F72C
:00000001FF
