:100000000C945C010C9479010C9479010C947B188C
:100010000C9479010C9479010C9479010C94790178
:100020000C9479010C9479010C9453200C942721A1
:100030000C941B1B0C9479010C9479010C9479019C
:100040000C9479010C9479010C9479010C94790148
:100050000C9479010C94BE1B0C9479010C947901D9
:100060000C9479010C9479010C9479010C94790128
:100070000C9479010C9479010C9479010C94790118
:100080000C9479010C9479010C9479010C94790108
:100090000C9479010C9479010C9479010C947901F8
:1000A0000C9479010C9479010C94790114001A00D4
:1000B000080015001700000000000000000000000C
:1000C0001C0018000C0012001300000000000000CB
:1000D0000000000004001600070009000A000000EC
:1000E00000000000000000000B000D000E000F00DB
:1000F0002800000000000000000000001D001B00A0
:1001000006001900050000000000000000000000CB
:100110001100100036003700E5000000000000006C
:100120000000000029002B00E000E3002C0000008C
:1001300000000000000000005000510052004F007D
:100140002A000000000000000000000016036A0002
:100150006900730061006B007500320030007800A8
:10016000320000000A036D002E006B0069000000E1
:100170000403090409023B00020100A0FA0904007B
:1001800000010301010009211101000122400007C3
:1001900005810308000109040100010300000009B2
:1001A000211101000122B60007058203200001127F
:1001B00001000200000008EDFE0000000101020045
:1001C0000105010902A10185020901A10005091922
:1001D000012908150025019508750181020501090D
:1001E0003009311581257F9502750881060938157A
:1001F00081257F950175088106050C0A3802158155
:10020000257F950175088106C0C005010980A101FF
:10021000850319012AB700150126B700950175104D
:100220008100C0050C0901A101850419012AA00261
:10023000150126A002950175108100C0050109066F
:10024000A1018506050719E029E715002501950894
:10025000750181020507190029EF1500250195F0A8
:10026000750181020508190129059505750191029D
:10027000950175039101C005010906A10105071942
:10028000E029E715002501950875018102950175A2
:100290000881010507190029FF150026FF009506B2
:1002A0007508810005081901290595057501910258
:1002B000950175039101C00011241FBECFEFDAE054
:1002C000DEBFCDBF11E0A0E0B1E0EAE6F7E402C096
:1002D00005900D92A23AB107D9F723E0A2EAB1E066
:1002E00001C01D92AE30B207E1F70E94E4120C94F7
:1002F0009D230C94000081E0089581E008950E9400
:100300007D01089508950E9482010895A5E0B0E05E
:10031000ECE8F1E00C94092349835A833091A90158
:1003200089819A81311119C0662399F0222389F0BD
:100330000E940D07182F682F89819A810E94E90673
:1003400069817A81812F0E94940D2596E3E00C94B7
:1003500025230E94FB06182FF3CF0E940D07698109
:100360007A81F1CFFC01262F408151816281738116
:1003700084810E948601089581E00895CF93DF93E0
:10038000EC0160E00E94B201BE010E948301DF9196
:10039000CF9108950E94170F08950E941B0F089592
:1003A00008950E94B4050E94D0012FEF84E39CE0E1
:1003B000215080409040E1F700C0000008950E9465
:1003C000D1010E94E21B08950E94D1010E94F31BFB
:1003D00008950F931F93CF93DF938C0161E00E94E8
:1003E000B201EC01B8010E947F01811106C080E0DA
:1003F000DF91CF911F910F910895B801CE010E9416
:1004000089178823A1F3B801CE010E948D15882396
:1004100071F3B801CE010E94FB16882341F3F80165
:100420008281882361F0CB35FDE5DF0701F158F4C7
:10043000C115ECE5DE0791F0CF3DDC4591F0C80138
:100440000E947B01D5CFCD358DE5D80769F090F0BE
:10045000C83ADD45A1F70E94E401C9CF0E94DF013F
:10046000C6CF0E94C70BF7CF0E94050BE8CF0E94B2
:100470000F0BE5CF0E94130BE2CF0E94F71A0E94E8
:100480005A0208950E945E020E94FC1A089508957F
:100490000E944702089581E008950E944B0208954A
:1004A0000895CF93C82F0E9448028C2F0E944D02BE
:1004B000CF91089580E00E94510208950E94A119F1
:1004C0000E9451020895CF930E94A119C82F8091D4
:1004D000A4018C1779F0C093A4010E94871B60933C
:1004E000A5017093A6018093A7019093A8018C2F7A
:1004F0000E945102CF910895ABE0B0E0E2E8F2E053
:100500000C940A234F83588769877A878B876111F8
:100510000E94500A1E821D8285E0FE013796DE0190
:10052000119601900D928A95E1F78C819D81892B1E
:1005300061F449815A816B817C818D819E810E9409
:1005400079092B96E2E00C94262389819A818923EC
:100550008F3F79F3CE0101960E94BC018111E9CF52
:10056000F0CFFC01808191810E943F070895CF93D5
:10057000C82F8823B9F08CEF8C0F813AA8F46C2F28
:1005800080910001909101010E941D1A882329F099
:100590008C2F0E94100A0E94710A8C2F0E94080A58
:1005A0000E94710ACF91089580E28C0F883048F440
:1005B000C77081E001C0880FCA95EAF70E94330A2C
:1005C000EFCFEBE5EC0FE33040F4F0E0E25AFE4F02
:1005D000808190E00E94DD19E5CFE8E5EC0FE7317E
:1005E00050F4F0E0EE0FFF1FE05DFE4F808191813F
:1005F0000E94F319D7CFCD3EA8F28C2F0E9468132A
:100600000E943B14CFCF882379F19CEF980F913A49
:1006100028F40E94100A0E94710A089590E2980F2F
:10062000983050F4877091E001C0990F8A95EAF7ED
:10063000892F0E94390AEFCF9BE5980F933028F459
:1006400090E080E00E94DD19089598E5980F9731B9
:1006500028F490E080E00E94F31908958D3E20F088
:100660000E94C2130E943B1408951F93CF93DF93FF
:10067000182FEB010E94B702209739F4812F0E94B6
:100680000303DF91CF911F9108958FE99FE00197B8
:10069000F1F700C000002197EFCF70E060E08933F0
:1006A00011F460E570E00E9435030895882321F07D
:1006B0000E94330A0E94710A0895882321F00E9443
:1006C000390A0E94710A0895B0E0A0E0EAE6F3E07A
:1006D0000C9403236C01D62FC72FFC011281F580E7
:1006E000F2949FE0F9220E94290AE82E8823B9F0AB
:1006F000E12E1123A1F08C2F807F803421F080E245
:100700008D0F8830D0F08091DA0282FF16C082E02F
:100710000E94D40A0E94290A91E0E82EE926BC2E04
:10072000B2948FE0B822FBE0FB1508F468C0EB2D13
:10073000F0E0E156FC4D0C94F422E12CF0CF0C2FAC
:100740000F70C07F11F00295007F112399F00023F4
:1007500059F080E28D0F883010F0D11107C0802F42
:100760000E94330A0E94710A8D2F41C0802F0E947F
:10077000430AF8CF8D2F0E940303002309F43FC0E2
:1007800080E28D0F883010F0D11104C0802F0E94BC
:10079000390A03C0802F0E94490A0E94710A2FC0A3
:1007A0000C2F0F70C07FC03211F00295007FDD2347
:1007B00081F0D13009F463C0112309F46DC0FF202A
:1007C00009F463C0F601858180FFCECF8F708583E9
:1007D0005CC08091DA0282FD33C0112359F00023FE
:1007E00029F0802F0E94330A0E94710A80E00E9443
:1007F000B70205C080E00E9403030111C7CFEB2DB3
:10080000E850FF0B349720F40E94A1190E94510276
:10081000EE2089F00E94250A80FD0DC0F6011282AB
:100820000E941F0A0E944706C6010E9474050E948A
:100830001F0A0E945706CDB7DEB7E9E00C941F23CC
:10084000112389F0F11006C00E94530A802B0E94E8
:100850005603D5CF21E0F212F7CF0E94530A802B26
:100860000E945A0ACCCFF11006C00E94670A802F5E
:100870000E945D03C4CF31E0F31609F2F6CF1123D5
:1008800031F085E08F1508F4BACF802FE0CF94E0E7
:100890009F1508F4B4CFEBCFFF2049F3D93349F4C7
:1008A000FFEF27EE33E0F15020403040E1F700C089
:1008B00000008D2F0E940303A2CF8C2F8695869572
:1008C000837069F0813009F09ACF8D2F9C2F93703F
:1008D000111102C090E080E00E94F31990CF8D2F9B
:1008E0009C2F9370111102C090E080E00E94DD19EE
:1008F00086CF8D2F112329F00E9468130E943B148C
:100900007ECF0E94C213FACF8C2F8370A1F51111F4
:1009100076CF4D2F429546954770440F440F2D2FAB
:100920002F7030E0042E02C0220F331F0A94E2F72A
:1009300090E080E0D4FF09C08FE090E002C0880F13
:10094000991F4A95E2F780959095C695C695C37014
:10095000822B932BC23049F058F4C13019F00E9419
:1009600015064DCF0E940C064ACF0E941E0647CFA7
:100970000E94090644CF8695112311F08C2F8170B7
:10098000882309F43CCF4D2F429546954770440F7C
:10099000440F2D2F2F7030E0042E02C0220F331F82
:1009A0000A94E2F790E080E0D4FF09C08FE090E085
:1009B00002C0880F991F4A95E2F780959095C695D9
:1009C000C695C370822B932BC23049F058F4C130C6
:1009D00019F00E94820613CF0E94790610CF0E9460
:1009E0008B060DCF0E942D060ACFCF70112329F060
:1009F0008C2F0E9447068D2F2ACF8D2F0E945D03DA
:100A00008C2F0E945706FBCED23F51F160F4D03FAD
:100A1000B9F0D13F81F0112309F449C0F110A4CEFF
:100A20008C2F8F7121C0D33F11F1D43FA1F780915A
:100A3000DA0282FD26C08C2F8F71112311F314C0AE
:100A4000112349F084E08F1508F4D9CE8C2F8F71D3
:100A50000E946906D4CE95E09F1508F4D0CEF6CF5B
:100A60008C2F8F711111CDCF0E944706C8CE112354
:100A700029F08C2F8F710E943B06C1CE0E94360652
:100A8000BECE112349F0CF718C2F0E94470663E040
:100A90008C2F0E94B60AB3CE81E00E94D40AE1E016
:100AA000EF1508F0ACCE82E00E94D40AA8CEF11077
:100AB000F5CE8C2F8F71A5CF0F931F93CF93DF931C
:100AC000EC01688179818A810E944A078C010E9429
:100AD00094060E940806B801CE010E946403DF91CB
:100AE000CF911F910F910895CF93DF93EC018B81EC
:100AF0009C81892B29F08881998189238F3F51F42A
:100B0000DF91CF910895CE010E945C05CE010E9435
:100B1000BE01F6CFCE010E94E9018111F4CF0E94FF
:100B2000290A882369F38A81882351F38091DA02A4
:100B300082FFE6CF82E00E94D40AE2CF90E080E01C
:100B40000E94DD1990E080E00E94F3190E94500A93
:100B50000E94710A0E9457140E943B1408950E943B
:100B6000180A0E949E0508950E94400A0E94AF053F
:100B7000089592959F70963091F058F4925F9F700F
:100B8000923058F4803F19F030F4883E30F481E020
:100B900008959A5FF4CF843FD1F380E00895883EB2
:100BA000B0F3813FD1F7F3CFFC0183819481892B8E
:100BB00029F08081918189238F3F11F480E008958D
:100BC000808191810E943F070E94B9050895A5E0A8
:100BD000B0E0EDEEF5E00C940A232596E2E00C94EB
:100BE0002623A6E0B0E0E7EFF5E00C940A23269672
:100BF000E2E00C94262308950E94FB0508950E94CC
:100C0000FC059093D5018093D4010E949E05089520
:100C100008950E94FF0508952091D4013091D501D7
:100C2000822B932B0E94FF0508952091D4013091CF
:100C3000D501822393230E94FF0508952091D401BA
:100C40003091D501822793270E94FF0508950E94C5
:100C5000FB0508950E94270608950E942A06909396
:100C6000D3018093D2010E949E05089590E080E018
:100C70000E942D06089521E030E0A90102C0440F32
:100C8000551F8A95E2F7CA010E942D06089521E0BA
:100C900030E002C0220F331F8A95E2F78091D20123
:100CA0009091D301822B932B0E942D06089521E071
:100CB00030E002C0220F331F8A95E2F7209530956D
:100CC0008091D2019091D301822393230E942D061B
:100CD000089521E030E002C0220F331F8A95E2F729
:100CE0008091D2019091D301822793270E942D06F3
:100CF00008952091D2013091D301822B932B0E9431
:100D00002D0608952091D2013091D301822393239F
:100D10000E942D0608952091D2013091D30182279F
:100D200093270E942D0608950895262F277091E09D
:100D300001C0990F2A95EAF723E0769567952A95E1
:100D4000E1F7660F771F660F771FFA01E60FF71FAF
:100D500050E040E0682F70E08191DF0111979B0126
:100D6000042E02C0369527950A94E2F7217021954A
:100D70002827292328272C934F5F5F4F44305105A4
:100D800059F70895A82FA77023E0969587952A957F
:100D9000E1F7880F991F880F991FFB01E80FF91FD2
:100DA00050E040E080E0219130E00A2E02C036950C
:100DB00027950A94E2F721703327042E01C0220FF1
:100DC0000A94EAF7822B4F5F5F4F4430510559F781
:100DD0000895262F983070F48A3060F4682F70E000
:100DE0008AE0989F600D711D11244AEA51E0822F1C
:100DF0000E9495060895292F983068F48A3058F497
:100E000090E06AEA71E03AE0239F800D911D112481
:100E10000E94C206089580E00895B0E0A0E0E3E1FA
:100E2000F7E00C9403237C010091D2011091D301CF
:100E30008091D4019091D501082B192BCFE0D0E0FF
:100E4000CC24C394D12CBC2EC6010C2E02C0880F1A
:100E5000991F0A94E2F780239123892B49F4219763
:100E600090F7B12C8B2DCDB7DEB7E9E00C941F23A2
:100E7000B7018C2F0E94AF0D019789F3F3CFCF9369
:100E8000DF93EC010E940D07BE010E94AF0DDF91C0
:100E9000CF9108951F93CF93DF93EB019091A90118
:100EA000992339F0CB010E943F07DF91CF911F9129
:100EB0000895882369F0CB010E940D07182F682F31
:100EC000CE010E94E906BE01812F0E94AF0DEDCF39
:100ED000CB010E94FB06182FF6CF1F93CF93DF9311
:100EE000C091D60116E08091D7018C1304C0DF9128
:100EF000CF911F910895D0E01C9FF0011D9FF00D30
:100F00001124E852FE4F40815181628173818481B6
:100F100095810E94F1052196C770E5CF40910802A6
:100F20005091090260910A0270910B0280910C02AB
:100F300090910D020E94F10508951F93CF93DF93C6
:100F400080910D02807F09F049C080910A028823B8
:100F500009F444C08091D601C091D7016091080284
:100F600070910902A0910B02B0910C02D62FD723E9
:100F700016E0C81799F190E0109711F0DF3F19F4CF
:100F800001968770F6CF189F9001199F300D11249C
:100F9000F901E852FE4F41814713F2CF40814613D9
:100FA000EFCF42814111ECCF438154814A1B5B0B4F
:100FB000483C510528F780910D028F708061809325
:100FC0000D02F901E352FE4F80818F7080618083B2
:100FD00088E092E00E9474050E946D07DF91CF9136
:100FE0001F910895A1E1B0E0E8EFF7E00C9402232F
:100FF0008C0185E0F801DE011D9601900D928A9525
:10100000E1F7F801E28088E0C82E82E0D82E6091F6
:101010000B0270910C026115710509F44EC190919B
:10102000080220910902892F82238F3F09F445C1CC
:1010300040815181A380B480F0900A02F501E61B43
:10104000F70BFF2009F4EAC080910D02382F307FA2
:10105000E83CF10508F0A3C031116DC0FE2C25134A
:1010600016C0941314C0E11012C08F708061809379
:101070000D020E948E07C6010E94740580910D0228
:10108000F80185838F2D6196EAE00C941E23A1144C
:10109000B10429F0842F85238F3F09F027C180E018
:1010A000F82FF170DF2E80FF3CC08091D601209197
:1010B000D70136E0821315C04D875E878D859E85EA
:1010C0000E943F07292F22952F702230F0F0243004
:1010D00018F59F70F1F0F8019581907FD1F4D12C33
:1010E0001EC090E0389FF001399FF00D1124E852A6
:1010F000FE4F6181651306C06081641303C0628185
:10110000E6120FC001968770D5CF9F7011F088232B
:1011100031F3805E883018F3C8010E947405FD2CFD
:10112000B1CFEE2009F4AECF80910D0281608093A3
:101130000D02F12CA7CF251306C0941304C0F801AB
:10114000EE2009F487C0C8010E94D405882319F154
:10115000EE2009F180910D02803270F0209108029A
:101160003091090238872F831986BB86AA868C871F
:10117000CE0107960E94740586E0F801A8E0B2E06F
:1011800001900D928A95E1F70E949D070E948E07BB
:10119000FF24F39477CFC8010E947405F9CF311171
:1011A00013C07A2DB98AA88A6E2D89890E94E70515
:1011B00088E092E00E94740586E0F60111928A951B
:1011C000E9F70E948E07B5CF25130FC094130DC009
:1011D000E1100BC0F8018583C8010E94740586E008
:1011E000F60111928A95E9F74DCFC8010E94D40506
:1011F000882389F2EE2079F280910D02803208F482
:10120000BBCF20910802309109023A8329831B82C7
:10121000BD82AC828E83CE010196ACCFE83CF10555
:1012200008F03EC0FE2CEE2009F4B5CF25132AC0ED
:10123000941328C080910D0280FD1BC0982F907FD1
:10124000C1F0F8018583903F31F0982F907F905F37
:101250008F70892B8583C8010E94740586E0F80190
:10126000A8E0B2E001900D928A95E1F70E948E0706
:1012700009CF86E0F801A8E0B2E001900D928A95CE
:10128000E1F700CFC8010E94D405811175CF80918C
:101290000D02816080930D02C8010E947405F2CE98
:1012A0007A2DB98AA88A6E2D89890E94E70586E081
:1012B000F60111928A95E9F7D9CFEE2009F46BCFA8
:1012C000C8010E94D405F82E882309F464CF86E073
:1012D000F801A8E0B2E001900D928A95E1F788E06C
:1012E00092E00E94B1020E949D07C0CF81E08E254E
:1012F000D7CEACE0B0E0EFE7F9E00C9409234F83E0
:10130000588769877A878B879C87CE0107960E94CA
:10131000F207882369F08A859B85892B39F04F81F4
:101320005885842F85238F3F09F06BC016E05FC07E
:1013300086E0FE013796DE01119601900D928A95A6
:10134000E1F78A859B85892B89F38F81988589238D
:101350008F3F61F32091D70130E0C901019687707A
:1013600099274091D6014817190671F40E94B405D7
:101370001092D7011092D60186E0E8E0F2E0DF019A
:101380001D928A95E9F7D2CF96E0929FD001939F64
:10139000B00D1124A852BE4FFE01319601900D925E
:1013A0009A95E1F78093D7010E946D07BFCF819F87
:1013B000C001112488529E4F0E94F2078823E9F051
:1013C000E091D6011E9FF0011124E852FE4F4081AA
:1013D000518162817381848195810E94F1058091A0
:1013E000D60190E00196877099278093D60180916D
:1013F000D6019091D7018913DACF2C96E3E00C94B3
:10140000252369857A858B859C850E94F1058ECF81
:10141000682F80910001909101010E949D1A08950A
:10142000682F80910001909101010E94AB1A0895EC
:1014300080910001909101010E94B91A0895809154
:101440002E02859585958595089580912E02877049
:10145000089590912E02977081E009F480E008953C
:1014600080915102089590915102892B80935102ED
:101470000895809590915102982390935102089578
:1014800010925102089590915002892B809350023E
:10149000089580959091500298239093500208955A
:1014A00010925002089580912F02089508950E948D
:1014B000560A08959091DA0292FF08C090912F0287
:1014C000981721F080932F020E94570A0895809167
:1014D0002F02882329F010922F0280E00E94570AE1
:1014E0000895CF93DF93E0910001F0910101809185
:1014F00051028083E0910001F0910101808190917F
:101500005002892B808390912F02992381F0E091E2
:101510000001F09101018081892B8083809100017D
:10152000909101010E94091A81110E94670AC091DD
:101530000001D091010140E250E06EE072E0CE0186
:101540000E944523892B59F080E2FE01AEE0B2E013
:1015500001900D928A95E1F7CE010E94B519DF91B5
:10156000CF91089508950E94B20A08959091DA02E9
:1015700092FF11C098E0899F90011124622B609323
:101580002E020E94470680912E02859585958595AD
:101590000E94B30A08950E944706089510922E02F1
:1015A00080E00E94B30A089590912E0280958923CD
:1015B00080932E02282F277091F4282F082E000CDC
:1015C000330B9217130659F09091DA0292FF07C07D
:1015D0008595859585950E9457060E94CE0A0895A7
:1015E0009091DA0292FB222720F9281769F080FBFC
:1015F00092F99093DA028091D9029091DA020E94D6
:10160000410B82E00E94D40A08958091DA0282FBA5
:10161000882780F991E089270E94F00A089581E0E7
:101620000E94F00A089580E00E94F00A08956FEF8A
:101630007FEF90E080E00E948723089590E080E0B3
:101640000E94632321E0883E9E4F09F020E0822F14
:10165000089582E090E00E945B23089583E090E08B
:101660000E945B230895CF9384E090E00E945B2367
:10167000C82F82E290E00E945B23982F8C2FCF919D
:101680000895CF93C92F682F84E090E00E946923CA
:101690006C2F82E290E00E946923CF910895AB0104
:1016A000BC018FE090E00E947B230895AB01BC0158
:1016B00083E190E00E947B23089560E070E0CB011D
:1016C0000E94560B089560E070E0CB010E944F0B22
:1016D0000E945D0B089568EE7EEF90E080E00E942E
:1016E000872360E082E090E00E94692360E083E06D
:1016F00090E00E9469231092D5011092D40160E01D
:1017000084E090E00E94692364E082E290E00E941D
:10171000692360E085E090E00E94692360E086E054
:1017200090E00E9469236FEF87E090E00E946923B8
:1017300040E050E0BA0188E090E00E947B2360E046
:101740008DE090E00E94692340E050E0BA0188E11A
:1017500090E00E947B2360E087E190E00E94692393
:1017600040E050E0BA018CE190E00E947B2370E001
:1017700060E080E290E00E94872340E050E0BA0100
:1017800088E190E00E947B230E94630B08950E94F1
:101790006B0B0895682F8EE090E00E9469230895F6
:1017A0000E94871B609368027093690280936A02AB
:1017B00090936B026093640270936502809366025B
:1017C000909367020895089508950E94E40B089588
:1017D00008950E94E80B089589ED9EE00E949719F4
:1017E0000E94E30B0E94E50B08950E94E01008950B
:1017F000089508950E94F80B0E94F90B08950E9425
:10180000F80E0E94500208950E94721B0E94990EC9
:101810000E94FB100E943D100E94FF0B0E94751554
:101820000E9405110E94E90B0895AAE0B0E0EBE1E7
:10183000FCE00C94FF220E94601024E5822E22E03E
:10184000922E640110E0F601E190F1906F01812F7A
:101850000E941E0F1F5F183009F449C0E816F906F0
:1018600091F380916C0281FD0E94270F0E94F50B7D
:10187000782E10E0812F0E941E0F7C01F401A190B0
:10188000B1904F018A159B0561F1A826BF2400E0A5
:10189000CC24C394D12CC5018C219D21892BC1F06E
:1018A0007720B1F00E831F8321E0C7018C219D2199
:1018B000892B09F420E028870E947B1B8160782F08
:1018C0009A8789874E815F8168858A850E947C021C
:1018D0000F5FCC0CDD1C0A30F1F6F4013297F18277
:1018E000E0821F5F183031F60E94D00B22C0E8164C
:1018F000F90609F0B6CF0E947B1B8C018091520241
:101900009091530208171907A1F08FEF89838A83FA
:101910001B820E947B1B8160782F9D838C83498171
:101920005A816B818D810E947C0210935302009337
:1019300052020E94E0100E9479140E9463022A96CB
:10194000EDE00C941B23CF93DF930E94B40DEC01C8
:10195000811521E5920708F042C0811530E5930713
:1019600008F09FC0883E910530F5803E910508F053
:1019700094C0883A910588F4853A910508F086C0AC
:101980008130910509F489C0009709F486C0049755
:1019900008F083C0D0E0C0E080C08F3B9105D0F755
:1019A000C85AD0E0CC0FDD1FCF59DE4F0990D88147
:1019B000C02DD46472C0811540E2940750F4C11563
:1019C00081E0D80708F069C0CD3ED10518F3D06595
:1019D00064C081159044F0F2DF70D06A5EC081155A
:1019E00035E5930718F5811544E5940708F085C09F
:1019F000C11583E5D80708F06CC0C11522E5D207F0
:101A000008F462C0CE018370992721E030E002C063
:101A1000220F331F8A95E2F7C695C69580E2C89FCC
:101A2000E0011124C22BD32BDC6837C0811539E5C6
:101A30009307A8F4811548E5940708F063C0C11521
:101A400086E5D80708F0A6CF8C2F0E94560EC82F27
:101A5000D0E0DC2FCC27CC27DF71D0621EC08115EF
:101A60002AE5920708F453C090568115904208F079
:101A700091CF8D2F8F710E94560E90E0982F88275E
:101A800088279F719C012C2BE901E7CFC55AD0E034
:101A9000C157DE4FC881D0E0D064CE01DF91CF9135
:101AA00008958370992721E030E002C0220F331F90
:101AB0008A95E2F7C695C69540E2C49FE0011124DD
:101AC000C22BD32BDD68E9CFDC2FCC27C16FD06AC6
:101AD000E4CFCE018370992721E030E002C0220FCD
:101AE000331F8A95E2F7C695C69540E2C49FE00190
:101AF0001124C22BD32BDA68D0CFD82FCC27C46FB8
:101B0000D06ACBCFD82FCC27C06FD06AC6CF8F700A
:101B10000E94560E34E0D695C7953A95E1F7CF70FE
:101B20009C2FEC01D069B9CF972F7830A8F46A3098
:101B300098F470E02AE0929F600D711D1124FB0162
:101B400090E5899FE00DF11D1124EE0FFF1FE45574
:101B5000FF4F85919491089580E090E008950E9450
:101B6000940D0E94A30C089582389105B9F1B0F448
:101B70008133910509F47DC048F48932910509F457
:101B80006DC08A32910509F47BC0089585339105B3
:101B900009F45FC08933910509F10895833E9105E9
:101BA000D9F138F4803E910529F1823E910579F111
:101BB0000895863E9105D9F1873E910509F43EC00E
:101BC000843E910541F52091DA0221FF24C08091E5
:101BD000D90284FD19C087EE90E008952091D902C2
:101BE000237009F05AC02091DA0223FF14C089E261
:101BF00090E008952091D90220FD38C03091DA029A
:101C000030FF09C024FF43C090E080E00895209198
:101C1000D90222FDF7CF08952091D90222FD3AC0C2
:101C20003091DA0230FD39C024FFF5CFEDCF20919D
:101C3000D90223FFF0CF24FDE7CFCDCF2091D902E9
:101C400023FD2EC03091DA0231FFEECF84EE90E01A
:101C500008952091D90225FFDECFC9CF2091D90266
:101C600025FD21C02091DA0223FFD5CF89E390E042
:101C7000D2CF2091D90226FFCECF8AE290E00895FC
:101C80002091D90226FFC7CF81E390E0089583EE2B
:101C900090E0089582EE90E0089580EE90E008953F
:101CA00086EE90E0089585E390E008959091D90242
:101CB00092FF06C0282F28712830F9F4877F8460AE
:101CC00093FF06C0282F28712831F1F4877E8461A4
:101CD0002091DA0220FF06C0382F38713830D9F44D
:101CE000877F816021FF06C0282F28712831D1F419
:101CF000877E816194FD877E0895282F247124308A
:101D0000F9F68B7F8860DCCF282F2471243101F70E
:101D10008B7E8861DDCF382F3171313019F78E7F9E
:101D20008860E0CF282F2171213121F78E7E8861D4
:101D3000E1CF1092D5021092D6021092D7021092E3
:101D4000D8020895CF92DF92EF92FF926B017C014F
:101D50000E94E01081110EC00E94871BC61AD70A8C
:101D6000E80AF90AC092D502D092D602E092D702D0
:101D7000F092D802FF90EF90DF90CF9008950F93EC
:101D80001F930E94E010882329F00E94871B1F9157
:101D90000F9108950E94871B0091D5021091D602E1
:101DA0002091D7023091D802600F711F821F931FBC
:101DB000EECF80E008950E94170B08950E946010F6
:101DC0002FEF86E791E0215080409040E1F700C07E
:101DD00000000E94601080E00E941E0F80FF04C07F
:101DE0000E94DB0E0E94E21B08950E94DE0E089501
:101DF0000E941E0B811102C00E94C70B0E94290B7A
:101E000080936C020E94330B9093DA028093D90284
:101E10000E94F50E0E942E0B90E00E940906809110
:101E2000D2019091D3010E942A06089508950E943C
:101E3000160F089508950E941A0F0895E82FF0E0F4
:101E4000EE0FFF1FE451FD4F8081918108950895A9
:101E500080EA8A95F1F7089500C008950E94280F3E
:101E6000089508950E94310F0895A8E0B0E0EBE3D3
:101E7000FFE00C9406230E94E010F82E6091FC0213
:101E8000882309F446C058E0E52E8E010F5F1F4FEE
:101E9000F8018E2D11928A95E9F7862F90E0880F30
:101EA000991FB80184519D4F0E9413118823C9F0D6
:101EB0008091DB0290E0880F991F48E050E0B80164
:101EC00084519D4F0E94452321E020936D02892B70
:101ED00091F4F12C0E94CD018F2D2896E6E00C9410
:101EE000222380916D028823A1F3F8011192EA94D4
:101EF000E9F710926D02A091DB02B0E0AA0FBB1FC0
:101F0000A451BD4F88E0F80101900D928A95E1F748
:101F1000E1CF70E0660F771F64517D4F8091DB0247
:101F200090E0880F991F84519D4F0E949A110E9442
:101F3000320FD2CFF894E82FE295EF70F0E031A1A4
:101F4000282F2F7081E090E001C0880F2A95EAF7D2
:101F5000982F9095932391A392A1892B82A3789493
:101F60000895CF93DF9381E90E949A0F81E90E943F
:101F70009A0F81E90E949A0F81E90E949A0FC2E9A3
:101F8000D1E089918F3F11F00E949A0F81E0CC3906
:101F9000D807B9F7DF91CF910895AF92BF92DF9242
:101FA000EF92FF920F931F93CF93DF938C01D62E66
:101FB000C62FD0E0CE0184569E4F7C01FC012081CB
:101FC0002F3F09F44DC0F894E22FE295EF70F0E056
:101FD00031A12F7081E090E001C0880F2A95EAF7C7
:101FE000932F982B91A392A18095892382A3789413
:101FF0000E942C0FE2E9F1E04CE951E021E030E0F1
:10200000B12CA12C61916F3FA9F1A62FA295AF70C1
:10201000B0E090968C9190E06F7002C09595879596
:102020006A95E2F780FD26C0C901A82AB92A220FC5
:10203000331F4E175F0731F7F70180818F3F11F093
:102040000E949A0F61E0A114B10409F460E08D2DA3
:102050000E942E0FCC0FDD1FC00FD11FB982A882A6
:10206000DF91CF911F910F91FF90EF90DF90BF9084
:10207000AF90089590E080E0D8CF809102018091E8
:10208000020194E0811190E09093FC0284E0891BAE
:102090008093DB020E94B10F80E1ECEEF2E0DF0101
:1020A000982F1D929A95E9F7ECEDF2E0DF011D9271
:1020B0008A95E9F784E00E94A0100E94CA01089561
:1020C000A0E1B0E0E6E6F0E10C9407238E010F5F9B
:1020D0001F4F80E1F80111928A95E9F7F12C6F2DDD
:1020E000C8010E94CD0FF394F4E0FF12F8CF40E155
:1020F00050E0B8018CED92E00E94452321E000976A
:1021000009F420E0892B41F080E1F801ACEDB2E068
:1021100001900D928A95E1F76091FC0270E0660FE4
:10212000771F64517D4F44E08CED92E00E94A11036
:10213000182F0E94350F812B6096E5E00C94232325
:102140000895CF92DF92EF92FF921F93CF93DF9388
:102150006C017B01C42F222349F081E0809370023F
:102160000E947B1B90936F0280936E02109170020D
:1021700011110AC010E0812FDF91CF911F91FF90C4
:10218000EF90DF90CF90089580916E0290916F0252
:102190000E94931B059770F3D0E0CC0FDD1FAE01BA
:1021A000B601C7010E944523892B41F0AE01B6015B
:1021B000C7010E94522310927002DDCF10E0FBCFC6
:1021C00080917302811107C00E94D322882351F0AD
:1021D00081E08093730281E090917302913009F065
:1021E00080E0089582E0809373020E94CE22F3CFB4
:1021F0000E94E01008950E94F810809302010E944E
:10220000E01081110E94491108950E94E01081118F
:1022100002C00E944C11089581E0909174029A309E
:1022200008F080E008950F931F93CF93DF93EC01A4
:102230008B01809174028A30B8F4B801CE010E94FB
:102240009711C82F811122C0809174028F3FB9F479
:102250000E947B1B90937202809371028C2FDF91FE
:10226000CF911F910F910895809171029091720208
:102270000E94931B843F914000F7C0E0EFCF8F5F37
:10228000809374028A3020F7C1E0E8CF1092740284
:10229000E5CF0E94351808950E9438180895B0E0DF
:1022A000A0E0E5E5F1E10C9405237901C82F880F42
:1022B000DD0B41155105A9F0FE0193E0EE0FFF1F64
:1022C0009A95E1F7ED5FFE4F818192818B589D4F8A
:1022D000208130E04217530708F49A01A9010E94B7
:1022E0005223CE010E942119D82E8823D1F0011546
:1022F0001105B9F083E0CC0FDD1F8A95E1F7FE01EF
:10230000ED5FFE4F438150E00417150708F4A80164
:10231000CD5FDE4F6C817D816B587D4FC7010E9480
:1023200052238D2DCDB7DEB7E7E00C9421230E9418
:10233000891208950E94A0120895A4E0B0E0E3EA93
:10234000F1E10C94082360919202709193028091C4
:102350009402909195020E94A21B11E064367105CF
:102360008105910518F10E94BF0E6E5F7F4F8F4F60
:102370009F4F69837A838B839C8310E000E030E079
:1023800020E044E050E0BE016F5F7F4F82E00E949A
:102390004F11182F882351F00E94871B60939202DF
:1023A000709393028093940290939502812F2496C8
:1023B000E4E00C942423B0E0A0E0E1EEF1E10C9421
:1023C00002237C015B016A010E940C1101E010E014
:1023D000882311F00AE010E0C1E0D0E0B501C701A8
:1023E000F6010995811104C021960C171D072CF4E4
:1023F000CDB7DEB7EAE00C941E23CC9F9001CD9FB1
:10240000300D300D112490E080E045E34A95F1F75E
:102410000000019682179307C1F7E0CFA9E0B0E072
:10242000E4E1F2E10C9402237B01C090A001D09082
:10243000A10101E010E09E01275F3F4F50E040E026
:1024400070E060E080E00E944F11182F882309F4AB
:1024500048C056018FEFA81AB80A60918E02709199
:102460008F0280919002909191020E94A21B64368B
:1024700071058105910568F108E010E09E012F5F6C
:102480003F4F50E040E070E060E081E00E944F117B
:10249000D82E68E070E0C5010E94761511E099859C
:1024A000981310E01D2141F10E94871B60938E025A
:1024B00070938F02809390029093910288E0FE01C6
:1024C0003196A6E8B2E001900D928A95E1F711E00D
:1024D00013C068E070E0C5010E94761599858913E4
:1024E000CBCF88E0F6013196DE01119601900D9276
:1024F0008A95E1F71111E2CF88E0E6E8F2E0D70132
:1025000001900D928A95E1F7812F2996EAE00C94CB
:102510001E230F931F93CF93DF93EC018B014EE0AB
:1025200052E10E94DB11882331F04DE951E1B801FD
:10253000CE010E94DB11DF91CF911F910F91089581
:102540000F931F93CF93DF93C091A001D091A1016E
:10255000CE01019628E0FB01DC0101900D922A9545
:10256000E1F768E070E00E947615888369857A85D6
:102570008B859C85009182021091830220918402B8
:1025800030918502601771078207930751F06093BD
:1025900082027093830280938402909385020E944A
:1025A000A20EDF91CF911F910F9108950E94A91D56
:1025B0000E94040C0E94B61D08950E94BB1D0E943B
:1025C000150C0E94D51D08950E94141B0E948F1D9A
:1025D0000E94EC0B0E94D6120E94DD120E94FA0BA0
:1025E000FBCF80919C0280FF0DC06091200170E0C4
:1025F000660F771F6038710570F56115710569F117
:10260000862F089581FF07C06091200184E0689FB4
:10261000B0011124EFCF6091200182FD0AC08091AA
:102620009B028823A9F020911F016091200182174D
:1026300010F088E0ECCF869FC001112433E0880FB2
:10264000991F3A95E1F7622F70E00E94E022D2CF05
:1026500068E070E0D5CF8FE7089581E0089580911C
:102660009C0280FF0CC060911C0170E0759567951D
:10267000759567956115710549F1862F089581FF5C
:1026800006C060911C0170E075956795F3CF60916D
:102690001C0182FD0BC090919A029923A1F06091D8
:1026A0001B0180911C01961738F0682F70E060388C
:1026B000710500F38FE70895899FC001112470E030
:1026C0000E94E022F4CF61E070E0D7CF81E008956E
:1026D0008D3E31F40E94F11281958093A0020895FD
:1026E0008E3E19F40E94F112F8CF8F3E31F40E9411
:1026F000F112819580939F020895803F19F40E9402
:10270000F112F8CF893F29F40E942F138093A10280
:1027100008958A3F21F40E942F138195F7CF8B3FB4
:1027200031F40E942F1381958093A20208958C3F6B
:1027300019F40E942F13F8CF9FE0980F983070F48F
:10274000815F990B21E030E001C0220F8A95EAF702
:1027500080919E02822B80939E0208958D3F31F4DA
:1027600080919C02816080939C0208958E3F21F4A9
:1027700080919C028260F7CF8F3FB9F780919C02D5
:102780008460F1CF40919F028D3E59F48091A00268
:1027900087FF0DC01092A00241110BC010929B0246
:1027A00008C08E3E81F48091A00218169CF3442349
:1027B00081F08091A1029091A202892B09F05AC068
:1027C00010929A0208958F3E49F447FFF0CF10927D
:1027D0009F028091A0028111ECCFE0CF803F19F4DD
:1027E0001416ACF3E4CF9091A102893F29F4191695
:1027F000F4F61092A102DBCF8A3F19F497FFD7CFEE
:10280000F8CF9091A2028B3F29F497FFD0CF10927E
:10281000A202CDCF8C3F19F41916CCF3C8CF9FE09C
:10282000980F983090F4815F990B21E030E0B90166
:1028300002C0660F771F8A95E2F7CB0180959091D1
:102840009E02892380939E02B2CF8D3F31F4809106
:102850009C028E7F80939C02AACF8E3F21F48091B0
:102860009C028D7FF7CF8F3F09F0A1CF80919C0212
:102870008B7FF0CF08950E947B1B9C0190919F025B
:102880008091A002982B21F0309399022093980216
:102890009091A1028091A202982B21F0309397028F
:1028A000209396028DE992E00E94CF19089586E068
:1028B000EDE9F2E0DF011D928A95E9F710929B02A3
:1028C00010929A0210929C020895FC01828181115B
:1028D0000EC0838181110BC08481811108C091E0F9
:1028E0008581811101C090E0892F8170089581E078
:1028F000FCCFA6E0B0E0EFE7F4E10C94092386E01A
:10290000EDE9F2E0DE01119601900D928A95E1F772
:1029100010929F021092A0021092A1021092A202A5
:102920008B819C81892B89F08091980290919902EA
:102930000E94931BAC0190919B029923C9F1809155
:1029400021018417150608F440C08D819E81892BD2
:1029500091F080919602909197020E94931BAC0196
:1029600090919A02992309F471C080911D018417F6
:10297000150608F479C0BE016F5F7F4F8DE992E0C4
:102980000E94CB1A811105C08DE992E00E94651466
:1029900081110E943B1486E0FE013196ADE9B2E060
:1029A00001900D928A95E1F72696E3E00C94252399
:1029B000209122018AE0289F9001112424173507D5
:1029C00020F69F5F90939B0202C09F3FD1F71B812F
:1029D000112359F00E94F1129FEF11160CF491E0AF
:1029E000899F802D112480939F021C81112359F00F
:1029F0000E94F1129FEF11160CF491E0899F802D37
:102A000011248093A00230919F02332309F49DCFBB
:102A10002091A002222309F498CF45EB3403C00192
:102A20001124992359F090939F0245EB24039001C0
:102A30001124332339F03093A00287CF81E08093B3
:102A40009F02F3CF81E08093A0027FCF20911E01EF
:102A50008AE0289F900111242417350708F08BCFB6
:102A60009F5F90939A0202C09F3FD1F71D8111236F
:102A700059F00E942F139FEF11160CF491E0899FDB
:102A8000802D11248093A1021E81112359F00E94F0
:102A90002F139FEF11160CF491E0899F802D1124C4
:102AA0008093A2023091A102332309F464CF2091D4
:102AB000A202222309F45FCF45EB3403C0011124A5
:102AC000992359F09093A10245EB2403900111241E
:102AD000332339F03093A2024ECF81E08093A102DC
:102AE000F3CF81E08093A20246CF0895FC01680FE6
:102AF000791F8FEF91E36E177F0709F408952191F5
:102B0000822728E030E087FF06C0880F8927215000
:102B10003109C9F7F0CF880FFACFCF93DF93EC01DB
:102B2000FB018281882309F464C1C430FDE5DF071D
:102B3000E0F5CB3F9CE5D90730F49E0122503C459F
:102B400024313105D8F50E94330B9093DA0280933B
:102B5000D902C231ECE5DE0709F41FC108F06EC0EE
:102B6000C9308CE5D80709F4F2C008F03FC0C53081
:102B7000ECE5DE0709F4DBC058F5C3308CE5D80777
:102B800009F4CDC008F0CFC08091D9028160C23075
:102B9000DC4509F4AEC08091D9029091DA020E941E
:102BA000410B0E94B40580E009C0C63AEDE5DE079E
:102BB00051F238F4C2369DE5D90729F2DF91CF9161
:102BC00008959E012E5A3D4523303105B8F7BBCFFD
:102BD0008091D9028062C730FCE5DF0709F489C023
:102BE00008F4B1C08091D902806483C0CD309CE5E7
:102BF000D90709F4BAC070F48091D9028E7FCB3026
:102C0000FCE5DF0709F475C008F4A7C08091D9027C
:102C10008D7F6FC0CF309CE5D90709F4B6C008F4AA
:102C2000A8C0C031FCE5DF0709F4B3C0C131DC4501
:102C300009F0B1CF8091D9028F7B5BC0C1159DE5B2
:102C4000D90709F4B4C098F5CB3FFCE5DF0709F4D8
:102C500072C0B8F4C4319CE5D90709F4B6C008F4D1
:102C6000A2C0C531DC4509F096CF8091D90282FB24
:102C7000992790F921E0922790FB82F990FB83F944
:102C800038C0CD3F8CE5D80709F477C008F457C0A9
:102C9000CE3FECE5DE0709F474C08091DA02836070
:102CA000CF3FDC4509F077CF8093DA0274CFC2368C
:102CB0008DE5D80709F496C068F4C230EDE5DE076B
:102CC00009F48CC008F477C0C330DD4509F063CF48
:102CD00080E085C0CE3A9DE5D907E9F068F490918F
:102CE000D902892F8E7F90FF8160C63ADD4509F0B9
:102CF00052CF8093D9024FCFCF3A8DE5D80789F1D3
:102D0000C03BDD4509F047CF9091DA02892F877FDC
:102D100093FF8860C9CF8091DA028860C5CF809127
:102D2000D9028260E6CF8091D9028460E2CF80919F
:102D3000D9028860DECF8091DA028160B5CF8091C0
:102D4000DA028260B1CF8091D9028061D2CF0E9435
:102D5000B4058091D9028068CCCF8091D9028C6073
:102D6000C8CF8091DA02877F9FCF8091D9028B7F75
:102D7000C0CF8091D902877FBCCF8091DA028E7F4D
:102D800093CF8091DA028D7F8FCF8091D9028F7E91
:102D9000B0CF8091D9028F7DACCF0E94B4058091D5
:102DA000D9028F77A6CF8091D902837FA2CF80915D
:102DB000DA028C7F79CF8091DA02982F909591700A
:102DC0008E7F892B90FB81F96FCF0E94B405909183
:102DD000D902892F97FB87F980588BCF81E00E9419
:102DE000CA0BD9CE9091D902892F8F7E94FF806132
:102DF00080CF81E0E3CECF93DF93EB0186319C451A
:102E000011F50E94300A9A81992399F08A7A91E00B
:102E100009F490E09093A302811109C089E20E9415
:102E2000080A0E94710A80E0DF91CF91089585E33E
:102E3000F6CF8091A302811104C089E20E94100A9A
:102E4000F0CF85E3FBCF81E0EFCF0F931F93CF93BC
:102E5000DF93C42FD22FFC0182818823C9F04093D5
:102E6000A6020E947B1B9093A5028093A40280E29D
:102E70008C0F883040F4C77081E001C0880FCA957C
:102E8000EAF70E945603DF91CF911F910F910895A9
:102E90001091A602141332C08091A4029091A50251
:102EA0000E94931B883C910548F5C0E2CD0F1D1789
:102EB000B9F080E2810F883040F4177081E001C0E2
:102EC000880F1A95EAF70E945D03C83048F481E044
:102ED0009D2F977001C0880F9A95EAF70E945603BC
:102EE000802F0E944D03C83070F6D77081E001C07A
:102EF000880FDA95EAF70E945D03C5CF80E28C0F58
:102F0000883008F6C77081E001C0880FCA95EAF7DB
:102F1000F2CF0F939C01CB01243F4CE5340759F1CC
:102F2000A8F4293DFCE53F0701F12A3D4CE53407B3
:102F3000D1F1283D3C4591F406E221EE41EE68EDE9
:102F40007CE50E94251780E00F910895263FFCE55F
:102F50003F07E9F0B0F0273F3C45F9F0FC018281E2
:102F6000882339F11092A602EFCF07E225EE45EE55
:102F700069ED7CE5E6CF06E221EE40EE64EF7CE50C
:102F8000E0CF07E225EE44EE65EF7CE5DACF06E21E
:102F900021EE42EE66EF7CE5D4CF07E225EE46EE69
:102FA00067EF7CE5CECF08E221E045EE6AED7CE5F7
:102FB000C8CF81E0C9CF8EE14A9B02C08150E1F7C2
:102FC0004A9BFECF08955A9880E28A95F1F75A9A63
:102FD0000895FC013BE03A95F1F798E020E080E0AD
:102FE00031E040E14A95F1F7880F4A9B02C08160C9
:102FF000232742E04A95F1F7000040E14A95F1F7B6
:10300000915079F790E19A95F1F799B132E03A95BC
:10301000F1F7000040E14A95F1F792FB992790F90A
:1030200092272081920F90830895A1E0B0E0EBE118
:10303000F8E10C94062319828C017C01E60EF11C48
:103040000E151F0541F481E09981911180E02196D0
:10305000E6E00C9422230E94DB17CE0101960E9429
:10306000E917F80181938F01EBCF529A5A9A08958C
:1030700052985A9AEA9AE9E6F0E080818F7C808340
:1030800008956150770B91E001C0990F6A95EAF7B6
:1030900020E031E0911108C0222391F05A9A80E299
:1030A0008A95F1F75A980895492F482339F05A9A8A
:1030B000232740E24A95F1F79695ECCF5A98F9CF3D
:1030C0005A98EDCFFF920F931F93CF93DF93EC01AC
:1030D0008C01060F111DC017D10729F4CDB7DEB73B
:1030E000E5E00C942323F9900E94E31768E08F2D0C
:1030F0000E944118F0CF1F920F920FB60F92112429
:103100000F931F932F933F934F935F936F937F93EF
:103110008F939F93AF93BF93EF93FF93CF93DF93DF
:103120000F92CDB7DEB719820E94DB17CE01019650
:103130000E94E917082F069506950695282F2295D7
:103140002570902F9570290F922F937026952695B4
:10315000920F982797708981982B09F05CC00430F2
:1031600008F059C080E18A95F1F75A9A529A82E0A4
:103170008A95F1F700C05A9888E0089F80011124D1
:10318000D801AD5FBE4F1696ED91FC911797309721
:10319000A9F06091A0017091A10114962D913C912C
:1031A0001597260F371F11968D919C911297680FD6
:1031B000791F13964C9113978C910995F801ED5F47
:1031C000FE4F6381662351F02091A0013091A1014F
:1031D00084819581820F931F0E9462180E94E317D9
:1031E00080E18A95F1F75A9852985A9A80E18A9527
:1031F000F1F7F801ED5FFE4F6081662351F02091F9
:10320000A0013091A10181819281820F931F0E94C0
:1032100015180E94DB170F90DF91CF91FF91EF916E
:10322000BF91AF919F918F917F916F915F914F91DE
:103230003F912F911F910F910F900FBE0F901F90F4
:1032400018950F931F93CF93DF93EC0104970CF025
:103250004CC0F894529A5A9885E08A95F1F700008C
:103260009C2F969595708C2F8570980F892F837061
:103270009695969523E0CC0FDD1F2A95E1F7980FE0
:103280008E01092B0E94E31700C068E0802F0E9486
:10329000411880E18A95F1F752985A9A4A9B1EC0CC
:1032A00087E090E04A991CC0FE01ED5FFE4F63810C
:1032B0006623F9F02091A0013091A10184819581CC
:1032C000820F931F0E941518811113C0529A5A9AA7
:1032D0007894DF91CF911F910F91089500C0DECFB8
:1032E000019729F4529A5A9A789480E0F2CF00C05C
:1032F000D9CF0E94DB1780E28A95F1F75A98529A4B
:1033000080E18A95F1F7CD5FDE4F6881662351F049
:103310002091A0013091A10189819A81820F931F90
:103320000E9462180E94E317789481E0D2CF9093B4
:10333000A3018093A20108959093AD028093AC0203
:1033400008950E94E010811103C08091A7020895A2
:10335000E091AC02F091AD02309729F00190F0813C
:10336000E02D0995089580E00895E091AC02F09178
:10337000AD02309799F020912F01222359F020912E
:10338000D90227FF07C0DC012C9111962C931197CD
:1033900026E02C930280F381E02D09950895E091B9
:1033A000AC02F091AD02309739F022E0DC012C93B1
:1033B0000480F581E02D099508952091AA023091AD
:1033C000AB022817390771F09093AB028093AA02E1
:1033D000E091AC02F091AD02309721F00680F781C8
:1033E000E02D099508952091A8023091A90228178F
:1033F000390771F09093A9028093A802E091AC0282
:10340000F091AD02309721F00084F185E02D09950F
:103410000895FC01329680912F01882321F080913C
:10342000D9029EE187FF96E080E0915008F408956C
:1034300021912223D1F38F5FF8CF662301F12091F0
:103440002F012223F1F02091D90227FF1AC0462F25
:103450004695469546954E3190F4677021E030E0F0
:1034600002C0220F331F6A95E2F7840F911DFC0101
:10347000828190E02823392381E0232B69F480E0C6
:103480000895FC01329608962191261721F0E8173D
:10349000F907D1F7F4CF81E008959C01FC01329641
:1034A0009FEF80E04191461751F09F3F19F4411181
:1034B00001C0982F8F5F8630A9F79F3F09F40895C8
:1034C000290F311D97FD3A95F90162830895FC019A
:1034D000329608962191261303C0DF0111971C92A2
:1034E000E817F907B9F70895E62FE695E695E6950A
:1034F000EE3168F4E80FF92FF11D677021E030E03C
:1035000001C0220F6A95EAF78281822B8283089597
:10351000E62FE695E695E695EE3170F4E80FF92F83
:10352000F11D677021E030E001C0220F6A95EAF7D3
:103530002095828128232283089520912F01222320
:1035400039F02091D90227FF03C00E94741A089510
:103550000E944D1A089520912F01222339F02091C5
:10356000D90227FF03C00E94881A08950E94671A93
:103570000895FC01329680912F01882351F08091AB
:10358000D90287FF06C08EE1DF011D928A95E9F717
:10359000089586E0F9CF46E050E00E94452321E0FF
:1035A000892B09F420E0822F089508950E94D51AEE
:1035B0000895811106C081E08093AE020E94D61A60
:1035C000089582E0F9CF83E08093AE020E94D61A7C
:1035D00008950E94D91A089581E08093AE020E9456
:1035E000D61A08950E94EC1A0895089508950E942D
:1035F000F61A0895089508950E94F51A0895CF9334
:103600000E94FA1A0E9460100E94FB1AC0E08C2FE0
:103610000E941E0F892B31F4CF5FC830C1F780E0C4
:10362000CF91089581E0FCCF85B7806885BF85B7CD
:10363000806885BF08951F921FB61F9211248F9333
:103640009F93AF93BF938091AF02811113C080917C
:10365000FD029091FE02A091FF02B09100034196FD
:10366000A11DB11D8093FD029093FE02A093FF0265
:10367000B0930003BF91AF919F918F911F901FBE98
:103680001F90189580910503843031F10E943D020E
:103690001092AF0288E190E020E40FB6F894A8956C
:1036A000809360000FBE2093600083B7817F8460A9
:1036B00083BF83B7816083BF7894889583B78E7FFB
:1036C00083BF0FB6F894A8958091600088618093BD
:1036D0006000109260000FBE08950E94B4050E9421
:1036E0004202089582E084BD93E095BD9AEF97BDB4
:1036F00080936E0008952FB7F8948091FD02909109
:10370000FE02A091FF02B09100032FBF08952FB7D2
:10371000F8946091FD027091FE028091FF029091F9
:1037200000032FBF08959C014FB7F8948091FD02CC
:103730009091FE02A091FF02B09100034FBF821B47
:10374000930B0895CF92DF92EF92FF922FB7F894E8
:10375000C090FD02D090FE02E090FF02F0900003C6
:103760002FBFA7019601261B370B480B590BCA0127
:10377000B901FF90EF90DF90CF90089578941F9259
:103780001FB61F9211248F939F93AF93BF93809185
:10379000FD029091FE02A091FF02B09100030196FC
:1037A000A11DB11D8093FD029093FE02A093FF0224
:1037B000B0930003BF91AF919F918F911F901FBE57
:1037C0001F90189587E797E790930108809300086A
:1037D00088E19AE00FB6F894A895809360000FBE38
:1037E00090936000FFCF88E19AE00FB6F894A89517
:1037F000809360000FBE90936000FFCF8091D30252
:10380000089508959C0182E08093E9009FEF8091E4
:10381000E800915085FD06C085ED8A95F1F700001E
:103820009111F5CF8091E80085FF0CC050E040E099
:1038300066E070E0C9010E94471E8091E8008E7723
:103840008093E8000895CF93DF93EC0180912F01DE
:103850008823B1F18091D90287FF32C060E282E013
:103860008093E9008FEF9091E800815095FD06C0AC
:1038700095ED9A95F1F700008111F5CF8091E80060
:1038800085FF1BC080912F0170E050E040E0811166
:1038900004C050E040E068E070E0CE010E94471EA6
:1038A0008091E8008E778093E80080E2FE01A3EB30
:1038B000B2E001900D928A95E1F7DF91CF910895E2
:1038C00068E081E0CDCF8093B0027093B202609344
:1038D000B10280910503843001F582E08093E90014
:1038E0008FEF9091E800815095FD06C095ED9A9577
:1038F000F1F700008111F5CF8091E80085FF0DC040
:1039000050E040E063E070E080EB92E00E94471EF0
:103910008091E8008E778093E8000895BC0184E0F0
:103920000E94631C0895BC0183E00E94631C0895FB
:1039300080910403811109C00E94D71F0E94342086
:103940008091E20084608093E20008951092040365
:1039500008950E94EC1A08956091010381E06111BD
:1039600001C080E00E94E31A08959091050381E070
:10397000943009F080E0609101030E94E91A0895F3
:1039800042E061EC81E00E94531F42E261EC82E080
:103990000E94531F9091050381E0943009F080E06C
:1039A000609101030E94D91A089580910703833022
:1039B00009F461C030F48130D1F1823009F49EC045
:1039C00008958A3009F48AC08B3009F46FC08930B9
:1039D00009F050C080910603813209F04BC08091FC
:1039E0000A0390910B03029708F044C08091E8000D
:1039F000877F8093E8008091E80082FF37C0909134
:103A0000F3008091F200029731F48091F10081304F
:103A100011F0863021F48091F1008093D3028091DF
:103A2000E8008B778093E8000E94871F23C0809175
:103A30000603813AF9F48091E800877F8093E800DB
:103A400080910A0390910B03892B61F460E283EB70
:103A500092E070E00E94961E8091E8008B77809340
:103A6000E800089560E090E080E0F3CF80910503E6
:103A70008111C1CF089580910603813AD9F78091D1
:103A80000A0390910B03892BA9F78091E800877FA7
:103A90008093E8008091E80080FFFCCF80912F01A7
:103AA0008093F1008091E8008E77BCCF809106036F
:103AB000813201F780910A0390910B03892BD1F693
:103AC0008091E800877F8093E8000E94871F8091A3
:103AD000080380932F010E94B40508958091060386
:103AE000813241F68091E800877F8093E8000E9450
:103AF000871F809109038093D40208958091060363
:103B0000813A09F0B7CF8091E800877F8093E80081
:103B10008091E80080FFFCCF8091D402C1CF84B7B0
:103B2000877F84BF0FB6F894A89580916000886164
:103B300080936000109260000FBE80E890E00FB6A6
:103B4000F89480936100909361000FBE0E94F21A76
:103B500008950E94D71F0E943420E2EEF0E0808199
:103B60008460808378940E94B322089583E291E078
:103B70000E949C19089580910503853031F480914D
:103B80000503853019F00E946D1B08950E94421BA9
:103B900080910303882399F30E94FF1A882379F305
:103BA0000E94311E0E94B405EACF08950E94D91DDB
:103BB0000895292F33272330310519F168F4213076
:103BC000310509F444C02230310509F445C090E0C4
:103BD00080E030E020E025C02132310549F1223279
:103BE0003105A9F780E490E027E732E0611571051F
:103BF000C1F086EB90E021EC31E06130710589F095
:103C0000E6CF99278130910581F0009729F002973E
:103C1000F1F6ECE4F1E002C0E0E7F1E0849190E03D
:103C20009F01FA01318320830895E4E6F1E0F6CFA5
:103C300089E090E026E831E06115710591F389E0B3
:103C400090E02FE931E06130710559F3C0CF82E196
:103C500090E02FEA31E0E5CF8BE390E024E731E01C
:103C6000E0CF80E189BD82E189BD09B400FEFDCFCE
:103C70008091D8008F7D8093D8008091E000826091
:103C80008093E0008091E00081FDFCCF0895AF9229
:103C9000BF92CF92DF92FF920F931F93CF93DF9348
:103CA0006C01EB018A010E94A61FF82E811123C02E
:103CB0000115110539F0F80180819181C81BD90BDC
:103CC000C80ED91EB12CA12C2097A9F08091E80034
:103CD00085FD22C08091E8008E778093E800011571
:103CE0001105A1F0F80180819181A80EB91EB18261
:103CF000A08285E0F82E8F2DDF91CF911F910F913B
:103D0000FF90DF90CF90BF90AF9008950E94A61FC4
:103D10008823D1F2F82EEFCFF60181916F018093C5
:103D2000F1002197FFEFAF1ABF0ACECFFC018091BF
:103D30000C0390910D0386179707A0F0611571058C
:103D400029F49091E8009E779093E80090E0611547
:103D5000710551F4911108C08091E80082FF34C0D0
:103D600080E00895BC01F2CF809105038823C1F162
:103D70008530C1F18091E80083FD30C08091E8007A
:103D800082FDEACF8091E80080FFE1CF8091F300CF
:103D90002091F200382F6115710519F02830310596
:103DA00058F091E02830310509F090E02091E800CA
:103DB0002E772093E800CBCF81918093F100615062
:103DC00071092F5F3F4FE7CF80910503882341F0B2
:103DD000853041F08091E80083FFBECF81E00895F7
:103DE00082E0089583E00895FC0180910C03909196
:103DF0000D0386179707A0F06115710529F48091CE
:103E0000E8008E778093E80090E06115710551F429
:103E1000911108C08091E80082FF35C080E00895CC
:103E2000BC01F2CF809105038823C9F18530C9F127
:103E30008091E80083FD31C08091E80082FDEACFE7
:103E40008091E80080FFE1CF8091F3002091F200A3
:103E5000382F6115710519F02830310558F091E0BF
:103E60002830310509F090E08091E8008E7780934A
:103E7000E800CBCF84918093F100319661507109B5
:103E80002F5F3F4FE6CF80910503882341F08530B7
:103E900041F08091E80083FFBDCF81E0089582E08A
:103EA000089583E00895982F973028F08F708093BD
:103EB000E90081E008959093E900242F762F50E0E7
:103EC000981731F07091EC002091ED005091F000C6
:103ED00021FD02C09F5FE8CF3091EB003E7F309321
:103EE000EB003091ED003D7F3093ED003091EB0021
:103EF00031603093EB007093EC002093ED00509311
:103F0000F0002091EE0027FDE5CF80E0089580913C
:103F1000060387FF13C08091E80082FF06C08091EE
:103F2000E8008B778093E80004C08091050381113D
:103F3000F2CF0895809105038823D9F38091E8009A
:103F400080FFF8CF8091E8008E77ECCF2091E400DD
:103F50003091E50095E6A9012091EC00822F817057
:103F600020FF06C08091E80080FF06C080E0089531
:103F70002091E80022FD1AC080910503882389F072
:103F8000853089F08091EB0085FD0FC02091E40021
:103F90003091E50042175307F9F29150E1F684E0C1
:103FA000089582E0089583E0089581E008950E94D5
:103FB00046200E944E20E0EEF0E080818160808308
:103FC000E8EDF0E080818F77808319BCA7EDB0E049
:103FD0008C918E7F8C9380818F7E808310920403DE
:103FE00008950F931F93CF93DF930E9446200E9462
:103FF0004E20C8EDD0E088818F77888388818068E3
:10400000888388818F7D888319BC10920503109264
:104010000103109203031092020300EE10E0F80176
:1040200080818B7F808388818160888342E060E02B
:1040300080E00E94531FE1EEF0E080818E7F80835C
:10404000E2EEF0E0808181608083808188608083FF
:10405000F80180818E7F8083888180618883DF91F1
:10406000CF911F910F910895E8EDF0E080818F7E50
:104070008083E7EDF0E080818160808384E082BF0F
:1040800081E0809304030E94F11F0895E8EDF0E0C1
:1040900080818E7F80831092E20008951092DA0072
:1040A0001092E10008951F920F920FB60F92112403
:1040B0002F933F934F935F936F937F938F939F9330
:1040C000AF93BF93EF93FF938091E10082FF0BC00A
:1040D0008091E20082FF07C08091E1008B7F809396
:1040E000E1000E94B2228091DA0080FF19C0809125
:1040F000D80080FF15C08091DA008E7F8093DA00AF
:104100008091D90080FF96C080E189BD82E189BDA0
:1041100009B400FEFDCF81E0809305030E94981C46
:104120008091E10080FF19C08091E20080FF15C0FE
:104130008091E2008E7F8093E2008091E2008061B6
:104140008093E2008091D80080628093D80019BCEF
:1041500085E0809305030E94AC1C8091E10084FF00
:104160002BC08091E20084FF27C080E189BD82E1FD
:1041700089BD89B5982F917080FFFBCF8091D800C1
:104180008F7D8093D8008091E1008F7E8093E10045
:104190008091E2008F7E8093E2008091E200816056
:1041A0008093E20080910103882309F449C084E0F0
:1041B000809305030E94B51C8091E10083FF29C014
:1041C0008091E20083FF25C08091E100877F80938A
:1041D000E10082E080930503109201038091E100E9
:1041E0008E7F8093E1008091E2008E7F8093E200D9
:1041F0008091E20080618093E20042E060E080E034
:104200000E94531F8091F00088608093F0000E940C
:10421000A91CFF91EF91BF91AF919F918F917F91D9
:104220006F915F914F913F912F910F900FBE0F9023
:104230001F90189519BC109205030E94A61C70CF00
:104240008091E30087FD93E090930503B3CF1F9225
:104250000F920FB60F9211242F933F934F935F93BA
:104260006F937F938F939F93AF93BF93CF93DF937E
:10427000EF93FF93D091E900DF708091EC00C82F9D
:10428000C17080FDC0E81092E9008091F000877F46
:104290008093F00078940E946B211092E900809145
:1042A000F00088608093F000CD2BCF70C093E900C0
:1042B000FF91EF91DF91CF91BF91AF919F918F913E
:1042C0007F916F915F914F913F912F910F900FBE12
:1042D0000F901F901895AAE2B0E0E1E7F1E20C948C
:1042E000092386E093E02091F100FC012193CF01A6
:1042F000F3E08E309F07B9F70E94D51C8091E8004B
:1043000083FF1EC180910603909107039A3008F045
:1043100017C1E92FF0E0E555FC4D0C94F4228038EC
:1043200099F0823809F00CC180910A038F708730B0
:1043300008F006C18093E9008091EB0085FB882797
:1043400080F91092E90006C0809102039091030366
:10435000911182609091E800977F9093E80080939C
:10436000F1001092F1008091E8008E77E5C088237B
:1043700009F4D3C0823009F0E3C0809108038111B1
:10438000D6C080910A038F702FEF280F263008F0D7
:10439000D7C08093E9002091EB0020FFC8C0933084
:1043A00031F48091EB0080628093EB00C0C090916B
:1043B000EB0090619093EB0021E030E001C0220F10
:1043C0008A95EAF72093EA001092EA008091EB00C8
:1043D0008860EACF8111B4C0109108031F778091E3
:1043E000E3008078812B8093E3008091E800877F51
:1043F0008093E8000E94871F8091E80080FFFCCF37
:104400008091E30080688093E30082E0111183E0F3
:104410008093050395C08058823008F091C0809148
:104420000803909109038C3D23E09207A1F583E0F6
:104430008A838AE289834FB7F894DE01139620E0DD
:104440003EE051E2E32FF0E050935700E49120FF6B
:1044500003C0E295EF703F5FEF708E2F90E0EA307F
:10446000C0F0C7968D939D932F5F243159F74FBFAE
:104470008091E800877F8093E8006AE270E0CE01D7
:1044800001960E94961E8091E8008B778093E80049
:1044900057C0C096E7CF60910A0370910B03AE013D
:1044A0004F5F5F4F0E94D61DBC01892B09F448C0A5
:1044B0009091E800977F9093E80089819A810E940B
:1044C000F41EE1CF8038E1F58091E800877F80938A
:1044D000E800809101038093F10045CF811130C045
:1044E00090910803923060F58091E800877F809377
:1044F000E800909301030E94871F809101038823A5
:1045000011F084E005C08091E30087FDFACF81E0DF
:10451000809305030E94C01C13C080910803813062
:1045200079F481E0933009F080E0809303031092E6
:10453000E9008091E800877F8093E8000E94871F50
:104540008091E80083FF0AC08091E800877F809314
:10455000E8008091EB0080628093EB00AA96E3E094
:104560000C9425230895CF93809105038823A1F00F
:10457000C091E900CF709091EC00892F817090FD7F
:1045800080E8C82B1092E9008091E80083FD0E942A
:104590006B21CF70C093E900CF9108950E94D71F7F
:1045A000109205030895E8EDF0E08081806180833A
:1045B0008AE18A95F1F700C08091D9008170089551
:1045C00097FB072E16F4009407D077FD09D00E94C0
:1045D000312307FC05D03EF4909581959F4F0895B7
:1045E000709561957F4F0895EE0FFF1F0590F49130
:1045F000E02D09942F923F924F925F926F927F929B
:104600008F929F92AF92BF92CF92DF92EF92FF92E2
:104610000F931F93CF93DF93CDB7DEB7CA1BDB0B8E
:104620000FB6F894DEBF0FBECDBF09942A88398833
:1046300048885F846E847D848C849B84AA84B9843A
:10464000C884DF80EE80FD800C811B81AA81B98146
:10465000CE0FD11D0FB6F894DEBF0FBECDBFED015A
:104660000895AA1BBB1B51E107C0AA1FBB1FA617B9
:10467000B70710F0A61BB70B881F991F5A95A9F70B
:1046800080959095BC01CD010895FB01DC0104C02B
:104690008D910190801921F441505040C8F7881B3A
:1046A000990B0895FB01DC0102C001900D9241506D
:1046B0005040D8F70895F999FECF92BD81BDF89A80
:1046C000992780B50895A8E1B0E042E050E00C944D
:1046D0008F23262FF999FECF92BD81BDF89A0197BD
:1046E00000B4021639F01FBA20BD0FB6F894FA9A3A
:1046F000F99A0FBE08950396272F0E946A230E94FD
:104700006923252F0E946A23242F0C946A23019683
:10471000272F0E946A230C946923DC01CB01FC0142
:10472000F999FECF06C0F2BDE1BDF89A319600B40A
:104730000D9241505040B8F70895F894FFCF9F0371
:104740009F03D003D0035D047904FF03FF038404B7
:10475000F504040504058F21B721A022B721A0226A
:0A476000EA210B22A02262226E2241
:10476A003002010000000100000000000000080102
:10477A000000000409000000000000280850011E83
:10478A000A1401FE1B231C021C931C8E1C011C0113
:10479A00E200E900EA00B500B600B700CD008301E7
:1047AA00CC008A01920194012102230224022502EB
:1047BA00260227022A02B300B4006F007000818229
:1047CA0083E200E900EA00B500B600B700CD008335
:1047DA0001CC008A019201940121022302240225BC
:1047EA0002260227022A02B300B4006F0070008179
:1047FA008283626262626262626262629191919192
:02480A00750235
:00000001FF
