:100000000C94AD010C94CA010C94CA010C94361CDA
:100010000C94CA010C94CA010C94CA010C94CA0134
:100020000C94CA010C94CA010C94BE240C94922521
:100030000C94D51E0C94CA010C94CA010C94CA01EC
:100040000C94CA010C94CA010C94CA010C94CA0104
:100050000C94CA010C94781F0C94CA010C94CA0128
:100060000C94CA010C94CA010C94CA010C94CA01E4
:100070000C94CA010C94CA010C94CA010C94CA01D4
:100080000C94CA010C94CA010C94CA010C94CA01C4
:100090000C94CA010C94CA010C94CA010C94CA01B4
:1000A0000C94CA010C94CA010C94CA0114001A00E1
:1000B00008001500170004001600070009000A00D8
:1000C0001D001B0006001900050029002B00E000A0
:1000D000E3002C001C0018000C00120013000B00A1
:1000E0000D000E000F002800110010003600370030
:1000F000E5005000510052004F002A0000000000AF
:10010000000000002A2B2800000000000000000072
:100110000000000000000029000000002C1E342018
:10012000212224342627252E362D3738271E1F203E
:100130002122232425263333362E37381F04050683
:100140000708090A0B0C0D0E0F10111213141516C7
:100150001718191A1B1C1D2F3130232D35040506C5
:100160000708090A0B0C0D0E0F10111213141516A7
:100170001718191A1B1C1D2F3130354C00000000B8
:10018000000000000000000000000000000000006F
:10019000000000000000000000000000000000005F
:1001A0007E0F00D4FFFFFFC70000007816036A002F
:1001B0006900730061006B00750032003000780048
:1001C000320000000A036D002E006B006900000081
:1001D0000403090409025B00030100A0FA090400FA
:1001E0000001030101000921110100012240000763
:1001F0000581030800010904010002030000000951
:1002000021110100012222000705820320000107BD
:100210000503032000010904020001030000000996
:10022000211101000122B6000705840320000112FC
:1002300001000200000008434D21000001010200FE
:10024000010660FF0961A1010962150026FF009502
:1002500020750881020963150026FF0095207508A6
:100260009102C005010902A10185020901A1000551
:100270000919012908150025019508750181020554
:1002800001093009311581257F950275088106091C
:10029000381581257F950175088106050C0A3802FD
:1002A0001581257F950175088106C0C0050109806B
:1002B000A101850319012AB700150126B700950190
:1002C00075108100C0050C0901A101850419012ADE
:1002D000A002150126A002950175108100C005013C
:1002E0000906A1018506050719E029E71500250182
:1002F0009508750181020507190029EF15002501F0
:1003000095F075018102050819012905950575010A
:100310009102950175039101C005010906A101052E
:100320000719E029E7150025019508750181029557
:1003300001750881010507190029FF150026FF0036
:1003400095067508810005081901290595057501AF
:100350009102950175039101C00011241FBECFEFDA
:10036000DAE0DEBFCDBF11E0A0E0B1E0E4E7F0E508
:1003700002C005900D92AC3AB107D9F722E0ACEA81
:10038000B1E001C01D92AD3DB207E1F70E94FA1243
:100390000C940F280C94000081E0089581E00895EA
:1003A00081E008950E94D001089508950E94D5012A
:1003B0000895A5E0B0E0EFEDF1E00C947B274983D0
:1003C0005A833091B30189819A81311119C0662312
:1003D00099F0222389F00E945C07182F682F8981E9
:1003E0009A810E94380769817A81812F0E94FE19C3
:1003F0002596E3E00C9497270E944A07182FF3CF25
:100400000E945C0769817A81F1CFFC01262F40812F
:1004100051816281738184810E94D901089581E0B4
:100420000895CF93DF93EC0160E00E940502BE01C6
:100430000E94D601DF91CF910895E1E0F0E0DF0165
:1004400002C0AA0FBB1F6A95E2F7BD01DF0102C01F
:10045000AA0FBB1F4A95E2F76A2B01C0EE0F2A953F
:10046000EAF7962F9823961302C08E2B0895E095F5
:100470008E230895242F462F682F8091C3010E9458
:100480001D020E94980608950E943D0F08950E9443
:10049000410F089508950E942A060E944A022FEFF4
:1004A00084E39CE0215080409040E1F700C00000D0
:1004B00008950E944B020E949C1F08950E944B02C7
:1004C0000E94AD1F08950F931F93CF93DF938C016C
:1004D00061E00E940502EC01B8010E94F015811153
:1004E00006C080E0DF91CF911F910F910895B80170
:1004F000CE010E94D2018823A1F3B801CE010E944F
:10050000441B882371F3B801CE010E94F71688239B
:1005100041F3B801CE010E94B61A882311F3F80105
:100520008281882361F0CA35FDE5DF0701F158F4C7
:10053000C115ECE5DE0791F0CE3DDC4591F0C80138
:100540000E94CE01CFCFCC358DE5D80769F090F071
:10055000C73ADD45A1F70E945E02C3CF0E9459024F
:10056000C0CF0E94150CF7CF0E944F0BE8CF0E941E
:10057000590BE5CF0E945D0BE2CF0E94B21E0E9494
:10058000DA0208950E94DE020E94B71E08950895BF
:100590000E94C702089581E008950E94CB02089549
:1005A0000895CF93C82F0E94C8028C2F0E94CD02BD
:1005B000CF91089580E00E94D10208950E945C1DB1
:1005C0000E94D1020895CF930E945C1DC82F809194
:1005D000AE018C1779F0C093AE010E94411F609369
:1005E000AF017093B0018093B1019093B2018C2F51
:1005F0000E94D102CF910895ABE0B0E0E2E0F3E0D9
:100600000C947C274F83588769877A878B87611181
:100610000E949A0A1E821D8285E0FE013796DE0145
:10062000119601900D928A95E1F78C819D81892B1D
:1006300061F449815A816B817C818D819E810E9408
:10064000C3092B96E2E00C94982789819A8189232B
:100650008F3F79F3CE0101960E940F028111E9CFFD
:10066000F0CFFC01808191810E9489070895CF938A
:10067000C82F8823B9F08CEF8C0F813AA8F46C2F27
:1006800080910001909101010E94D81D882329F0DA
:100690008C2F0E945A0A0E94BB0A8C2F0E94520A79
:1006A0000E94BB0ACF91089580E28C0F883048F4F5
:1006B000C77081E001C0880FCA95EAF70E947D0AE1
:1006C000EFCFEBE5EC0FE33040F4F0E0E25AFE4F01
:1006D000808190E00E94981DE5CFE8E5EC0FE731BE
:1006E00050F4F0E0EE0FFF1FE05DFE4F808191813E
:1006F0000E94AE1DD7CFC03FA8F28C2F0E947E1360
:100700000E945114CFCF882379F19CEF980F913A32
:1007100028F40E945A0A0E94BB0A089590E2980F9A
:10072000983050F4877091E001C0990F8A95EAF7EC
:10073000892F0E94830AEFCF9BE5980F933028F40E
:1007400090E080E00E94981D089598E5980F9731F9
:1007500028F490E080E00E94AE1D0895803F20F0D4
:100760000E94D8130E94511408951F93CF93DF93D2
:10077000182FEB010E943703209739F4812F0E9434
:100780008303DF91CF911F9108958FE99FE0019737
:10079000F1F700C000002197EFCF70E060E08933EF
:1007A00011F460E570E00E94B5030895882321F0FC
:1007B0000E947D0A0E94BB0A0895882321F00E94AE
:1007C000830A0E94BB0A0895B0E0A0E0EAEEF3E0DD
:1007D0000C9475276C01D62FC72FFC011281F58070
:1007E000F2949FE0F9220E94730AE82E8823B9F060
:1007F000E12E1123A1F08C2F807F803421F080E244
:100800008D0F8830D0F08091B90282FF16C082E04F
:100810000E941E0B0E94730A91E0E82EE926BC2E6E
:10082000B2948FE0B822FBE0FB1508F468C0EB2D12
:10083000F0E0EF5EF74D0C945F27E12CF0CF0C2F2A
:100840000F70C07F11F00295007F112399F00023F3
:1008500059F080E28D0F883010F0D11107C0802F41
:100860000E947D0A0E94BB0A8D2F41C0802F0E94EA
:100870008D0AF8CF8D2F0E948303002309F43FC017
:1008800080E28D0F883010F0D11104C0802F0E94BB
:10089000830A03C0802F0E94930A0E94BB0A2FC0C4
:1008A0000C2F0F70C07FC03211F00295007FDD2346
:1008B00081F0D13009F463C0112309F46DC0FF2029
:1008C00009F463C0F601858180FFCECF8F708583E8
:1008D0005CC08091B90282FD33C0112359F000231E
:1008E00029F0802F0E947D0A0E94BB0A80E00E94AE
:1008F000370305C080E00E9483030111C7CFEB2DB1
:10090000E850FF0B349720F40E945C1D0E94D10236
:10091000EE2089F00E946F0A80FD0DC0F601128260
:100920000E94690A0E94AC06C6010E94EA050E9464
:10093000690A0E94B806CDB7DEB7E9E00C949127AA
:10094000112389F0F11006C00E949D0A802B0E949D
:10095000D603D5CF21E0F212F7CF0E949D0A802B5B
:100960000E94A40ACCCFF11006C00E94B10A802FC9
:100970000E94DD03C4CF31E0F31609F2F6CF112354
:1009800031F085E08F1508F4BACF802FE0CF94E0E6
:100990009F1508F4B4CFEBCFFF2049F3D93349F4C6
:1009A000FFEF27EE33E0F15020403040E1F700C088
:1009B00000008D2F0E948303A2CF8C2F86958695F1
:1009C000837069F0813009F09ACF8D2F9C2F93703E
:1009D000111102C090E080E00E94AE1D90CF8D2FDB
:1009E0009C2F9370111102C090E080E00E94981D2E
:1009F00086CF8D2F112329F00E947E130E9451145F
:100A00007ECF0E94D813FACF8C2F837079F5111105
:100A100076CF4D2F429546954770440F440F8D2F4A
:100A20008F70042E01C0880F0A94EAF72D2F2071D1
:100A3000D4FF07C02FE030E001C0220F4A95EAF74B
:100A40002095C695C695C370822BC23049F058F4E4
:100A5000C13019F00E94860652CF0E9480064FCF07
:100A60000E948C064CCF0E947D0649CF86951123AB
:100A700011F08C2F8170882309F441CF4D2F4295BE
:100A800046954770440F440F8D2F8F70042E01C080
:100A9000880F0A94EAF72D2F2071D4FF07C02FE0AA
:100AA00030E001C0220F4A95EAF72095C695C69519
:100AB000C370822BC23049F058F4C13019F00E9443
:100AC000D7061DCF0E94D1061ACF0E94DD0617CF90
:100AD0000E94980614CFCF70112329F08C2F0E940A
:100AE000AC068D2F34CF8D2F0E94DD038C2F0E94FA
:100AF000B80605CFD23F51F160F4D03FB9F0D13FF5
:100B000081F0112309F449C0F110AECE8C2F8F7102
:100B100021C0D33F11F1D43FA1F78091B90282FDEA
:100B200026C08C2F8F71112311F314C0112349F0AB
:100B300084E08F1508F4E3CE8C2F8F710E94C506D8
:100B4000DECE95E09F1508F4DACEF6CF8C2F8F71AC
:100B50001111CDCF0E94AC06D2CE112329F08C2FDB
:100B60008F710E94A306CBCE0E949F06C8CE112390
:100B700049F0CF718C2F0E94AC0663E08C2F0E944D
:100B8000000BBDCE81E00E941E0BE1E0EF1508F0E6
:100B9000B6CE82E00E941E0BB2CEF110FFCE8C2F9B
:100BA0008F71A5CF0F931F93CF93DF93EC016881D3
:100BB00079818A810E9494078C010E94E3060E9439
:100BC0007C06B801CE010E94E403DF91CF911F9112
:100BD0000F910895CF93DF93EC018B819C81892B3A
:100BE00029F08881998189238F3F51F4DF91CF913A
:100BF0000895CE010E94D205CE010E941102F6CFC7
:100C0000CE010E9463028111F4CF0E94730A8823EF
:100C100069F38A81882351F38091B90282FFE6CF7C
:100C200082E00E941E0BE2CF90E080E00E94981DBF
:100C300090E080E00E94AE1D0E949A0A0E94BB0ACA
:100C40000E946D140E94511408950E94620A0E942D
:100C5000140608950E948A0A0E9425060895929516
:100C60009F70963091F058F4925F9F70923058F4D4
:100C7000803F19F030F4883E30F481E008959A5FA7
:100C8000F4CF843FD1F380E00895883EB0F3813FF4
:100C9000D1F7F3CFFC0183819481892B29F08081E6
:100CA000918189238F3F11F480E0089580819181A3
:100CB0000E9489070E942F060895A5E0B0E0E3E6B0
:100CC000F6E00C947C272596E2E00C949827A6E0A9
:100CD000B0E0EDE6F6E00C947C272696E2E00C947A
:100CE000982708950E94710608950E9472068093C5
:100CF000C4010E941406089508950E94750608957F
:100D00009091C401892B0E94750608959091C401A9
:100D100089230E94750608959091C40189270E9435
:100D2000750608950E94710608950E94920608951E
:100D30000E9495068093C3010E941406089580E0E6
:100D40000E949806089591E001C0990F8A95EAF7EC
:100D5000892F0E949806089521E030E001C0220FFB
:100D60008A95EAF78091C301822B0E949806089524
:100D700021E030E001C0220F8A95EAF720958091AA
:100D8000C30182230E949806089521E030E001C04B
:100D9000220F8A95EAF78091C30182270E94980664
:100DA00008959091C301892B0E949806089590910F
:100DB000C30189230E94980608959091C301892751
:100DC0000E94980608950895262F277091E001C08B
:100DD000990F2A95EAF723E0769567952A95E1F72A
:100DE000FB01EE0FFF1FE60FF71FE40FF51F50E0AA
:100DF00040E0682F70E08191DF0111979B01042E84
:100E000002C0369527950A94E2F72170219528278C
:100E1000292328272C934F5F5F4F4330510559F703
:100E20000895A82FA77023E0969587952A95E1F756
:100E3000FC01EE0FFF1FE80FF91FE60FF71F50E050
:100E400040E080E0219130E00A2E02C036952795DF
:100E50000A94E2F721703327042E01C0220F0A946E
:100E6000EAF7822B4F5F5F4F4330510559F70895E2
:100E7000262F983070F4853060F4682F70E085E09C
:100E8000989F600D711D112444EB51E0822F0E9448
:100E9000E4060895292F983068F4853058F490E0DE
:100EA00064EB71E035E0239F800D911D11240E94B9
:100EB0001107089580E00895CF92DF92FF920F937B
:100EC0001F93CF93DF936C010091C3018091C40104
:100ED000082BC7E0D0E010E0FC2EC8010C2E02C0A9
:100EE000959587950A94E2F780FD0CC02197A0F7AD
:100EF000F12C8F2DDF91CF911F910F91FF90DF90FB
:100F0000CF900895B6018C2F0E94D80D019771F3F0
:100F1000F0CFCF93DF93EC010E945C07BE010E94EB
:100F2000D80DDF91CF9108951F93CF93DF93EB01FD
:100F30009091B301992339F0CB010E948907DF9189
:100F4000CF911F910895882369F0CB010E945C071F
:100F5000182F682FCE010E943807BE01812F0E94F2
:100F6000D80DEDCFCB010E944A07182FF6CF1F9363
:100F7000CF93DF93C091C50116E08091C6018C1319
:100F800004C0DF91CF911F910895D0E01C9FF00124
:100F90001D9FF00D1124E953FE4F40815181628164
:100FA0007381848195810E9467062196C770E5CF81
:100FB0004091F7015091F8016091F9017091FA01A7
:100FC0008091FB019091FC010E94670608951F9398
:100FD000CF93DF938091FC01807F09F049C080911D
:100FE000F901882309F444C08091C501C091C6016C
:100FF0006091F7017091F801A091FA01B091FB01A5
:10100000D62FD72316E0C81799F190E0109711F06A
:10101000DF3F19F401968770F6CF189F9001199F52
:10102000300D1124F901E953FE4F41814713F2CFEE
:1010300040814613EFCF42814111ECCF438154816F
:101040004A1B5B0B483C510528F78091FC018F70CF
:1010500080618093FC01F901E453FE4F80818F7021
:101060008061808387EF91E00E94EA050E94B707C4
:10107000DF91CF911F910895A1E1B0E0E2E4F8E0A3
:101080000C9474278C0185E0F801DE011D96019017
:101090000D928A95E1F7F801E28087EFC82E81E092
:1010A000D82E6091FA017091FB016115710509F468
:1010B0004EC19091F7012091F801892F82238F3F33
:1010C00009F445C140815181A380B480F090F901B9
:1010D000F501E61BF70BFF2009F4EAC08091FC0143
:1010E000382F307FE83CF10508F0A3C031116DC006
:1010F000FE2C251316C0941314C0E11012C08F707B
:1011000080618093FC010E94D807C6010E94EA0515
:101110008091FC01F80185838F2D6196EAE00C94A3
:101120009027A114B10429F0842F85238F3F09F063
:1011300027C180E0F82FF170DF2E80FF3CC0809146
:10114000C5012091C60136E0821315C04D875E8728
:101150008D859E850E948907292F22952F70223028
:10116000F0F0243018F59F70F1F0F8019581907F30
:10117000D1F4D12C1EC090E0389FF001399FF00DC2
:101180001124E953FE4F6181651306C06081641329
:1011900003C06281E6120FC001968770D5CF9F70A1
:1011A00011F0882331F3805E883018F3C8010E9463
:1011B000EA05FD2CB1CFEE2009F4AECF8091FC0101
:1011C00081608093FC01F12CA7CF251306C09413F6
:1011D00004C0F801EE2009F487C0C8010E944A0645
:1011E000882319F1EE2009F18091FC01803270F022
:1011F0002091F7013091F80138872F831986BB863B
:10120000AA868C87CE0107960E94EA0586E0F8013F
:10121000A7EFB1E001900D928A95E1F70E94E707F0
:101220000E94D807FF24F39477CFC8010E94EA05F3
:10123000F9CF311113C07A2DB98AA88A6E2D898908
:101240000E945D0687EF91E00E94EA0586E0F601C4
:1012500011928A95E9F70E94D807B5CF25130FC0E0
:1012600094130DC0E1100BC0F8018583C8010E94E2
:10127000EA0586E0F60111928A95E9F74DCFC8019B
:101280000E944A06882389F2EE2079F28091FC01BF
:10129000803208F4BBCF2091F7013091F8013A83F6
:1012A00029831B82BD82AC828E83CE010196ACCF96
:1012B000E83CF10508F03EC0FE2CEE2009F4B5CF65
:1012C00025132AC0941328C08091FC0180FD1BC007
:1012D000982F907FC1F0F8018583903F31F0982FCF
:1012E000907F905F8F70892B8583C8010E94EA05EB
:1012F00086E0F801A7EFB1E001900D928A95E1F741
:101300000E94D80709CF86E0F801A7EFB1E001906D
:101310000D928A95E1F700CFC8010E944A0681111B
:1013200075CF8091FC0181608093FC01C8010E940F
:10133000EA05F2CE7A2DB98AA88A6E2D89890E9493
:101340005D0686E0F60111928A95E9F7D9CFEE2085
:1013500009F46BCFC8010E944A06F82E882309F4CD
:1013600064CF86E0F801A7EFB1E001900D928A9575
:10137000E1F787EF91E00E9431030E94E707C0CFB9
:1013800081E08E25D7CEACE0B0E0E9ECF9E00C943A
:101390007B274F83588769877A878B879C87CE0105
:1013A00007960E943C08882369F08A859B85892BD3
:1013B00039F04F815885842F85238F3F09F06BC00A
:1013C00016E05FC086E0FE013796DE0111960190BF
:1013D0000D928A95E1F78A859B85892B89F38F8108
:1013E000988589238F3F61F32091C60130E0C901C0
:1013F0000196877099274091C5014817190671F425
:101400000E942A061092C6011092C50186E0E7EFFD
:10141000F1E0DF011D928A95E9F7D2CF96E0929F25
:10142000D001939FB00D1124A953BE4FFE013196F8
:1014300001900D929A95E1F78093C6010E94B7073B
:10144000BFCF819FC001112489539E4F0E943C0849
:101450008823E9F0E091C5011E9FF0011124E953B2
:10146000FE4F4081518162817381848195810E9408
:1014700067068091C50190E0019687709927809357
:10148000C5018091C5019091C6018913DACF2C96D0
:10149000E3E00C94972769857A858B859C850E946B
:1014A00067068ECF682F80910001909101010E9404
:1014B000581E0895682F80910001909101010E94AB
:1014C000661E089580910001909101010E94741E92
:1014D000089580911D028595859585950895809143
:1014E0001D028770089590911D02977081E009F4A4
:1014F00080E0089580914002089590914002892BE8
:101500008093400208958095909140029823909393
:101510004002089510924002089590913F02892B55
:1015200080933F020895809590913F029823909375
:101530003F02089510923F02089580911E0208957F
:1015400008950E94A00A08959091B90292FF08C0E0
:1015500090911E02981721F080931E020E94A10A0A
:10156000089580911E02882329F010921E0280E0C7
:101570000E94A10A0895CF93DF93E0910001F091BA
:101580000101809140028083E0910001F09101010E
:10159000808190913F02892B808390911E02992334
:1015A00081F0E0910001F09101018081892B80831D
:1015B00080910001909101010E94C41D81110E943F
:1015C000B10AC0910001D091010140E250E06DEFFD
:1015D00071E0CE010E94B727892B59F080E2FE010D
:1015E000ADEFB1E001900D928A95E1F7CE010E9436
:1015F000701DDF91CF91089508950E94FC0A08950F
:101600009091B90292FF11C098E0899F9001112436
:10161000622B60931D020E94AC0680911D0285958D
:10162000859585950E94FD0A08950E94AC0608954F
:1016300010921D0280E00E94FD0A089590911D0203
:101640008095892380931D02282F277091F4282FDD
:10165000082E000C330B9217130659F09091B90223
:1016600092FF07C08595859585950E94B8060E94D2
:10167000180B08959091B90292FB222720F92817A0
:1016800069F080FB92F99093B9028091B802909131
:10169000B9020E948C0B82E00E941E0B089580917B
:1016A000B90282FB882780F991E089270E943A0BD2
:1016B000089581E00E943A0B089580E00E943A0B61
:1016C00008956FEF7FEF90E080E00E94F927089582
:1016D00090E080E00E94D527883E9E4F19F40E943A
:1016E0008B15089580E0089582E090E00E94CD2758
:1016F000089583E090E00E94CD270895CF9384E081
:1017000090E00E94CD27C82F82E290E00E94CD2772
:10171000982F8C2FCF910895CF93C92F682F84E0F5
:1017200090E00E94DB276C2F82E290E00E94DB2792
:10173000CF910895AB01BC018FE090E00E94ED27AE
:101740000895AB01BC0183E190E00E94ED2708956C
:1017500060E070E0CB010E94A10B089560E070E0B2
:10176000CB010E949A0B0E94A80B089568EE7EEFB1
:1017700090E080E00E94F92760E082E090E00E9423
:10178000DB2760E083E090E00E94DB271092C40139
:1017900060E084E090E00E94DB2764E082E290E079
:1017A0000E94DB2760E085E090E00E94DB2760E09C
:1017B00086E090E00E94DB276FEF87E090E00E94D8
:1017C000DB2740E050E0BA0188E090E00E94ED277E
:1017D00060E08DE090E00E94DB2740E050E0BA013D
:1017E00088E190E00E94ED2760E087E190E00E94B0
:1017F000DB2740E050E0BA018CE190E00E94ED2749
:1018000070E060E080E290E00E94F92740E050E064
:10181000BA0188E190E00E94ED2780E00E94A415C3
:101820000E94D3150E94AE0B08950E94B60B089536
:10183000682F8EE090E00E94DB2708950E94411FF0
:1018400060934F0270935002809351029093520222
:1018500060934B0270934C0280934D0290934E0222
:101860000895089508950E94320C089508950E94E5
:10187000360C089582E09FE00E94521D0E94310CB8
:101880000E94330C08950E94EE1008950895089563
:101890000E94460C0E94470C08950E94210F0E944E
:1018A000D00208950E942C1F0E94C20E0E94E315D0
:1018B0000E9409110E944F100E944D0C0E94DF16D9
:1018C0000E9413110E94370C0895AAE0B0E0EBE6E5
:1018D000FCE00C9474270E94721083E4A82E82E02E
:1018E000B82E750110E0F70101917F01812F0E9450
:1018F000440F1F5F183009F440C00817A1F380910E
:10190000530281FD0E944A0F0E94430CC82E10E032
:10191000812F0E94440F082FF50181915F01081764
:1019200031F1D02ED826F12CEE24E3948D2D8E218A
:10193000B1F0CC20A1F0FE821F8391E0802F8E2198
:1019400009F490E098870E94351F8160782F9A876C
:1019500089874E815F8168858A850E94FC02F394A5
:10196000EE0CF5E0FF12E2CFF501319700831F5F27
:10197000183071F60E941E0C20C00813C0CF0E94C0
:10198000351F8C018091410290914202081719077E
:10199000A1F08FEF89838A831B820E94351F8160AB
:1019A000782F9D838C8349815A816B818D810E9420
:1019B000FC0210934202009341020E94EE100E942A
:1019C0008F140E94E3022A96EAE00C949027CF93AA
:1019D000DF930E94DD0DEC01811521E5920708F0EF
:1019E00042C0811530E5930708F09FC0883E9105FD
:1019F00030F5803E910508F094C0883A910588F44E
:101A0000853A910508F086C08130910509F489C0B6
:101A1000009709F486C0049708F083C0D0E0C0E0C6
:101A200080C08F3B9105D0F7C85AD0E0CC0FDD1FA6
:101A3000CF59DE4F0990D881C02DD46472C0811572
:101A400040E2940750F4C11581E0D80708F069C05E
:101A5000C03FD10518F3D06564C081159044F0F201
:101A6000DF70D06A5EC0811535E5930718F58115E2
:101A700044E5940708F085C0C11583E5D80708F050
:101A80006CC0C11522E5D20708F462C0CE01837094
:101A9000992721E030E002C0220F331F8A95E2F738
:101AA000C695C69580E2C89FE0011124C22BD32BB6
:101AB000DC6837C0811539E59307A8F4811548E53E
:101AC000940708F063C0C11586E5D80708F0A6CFD3
:101AD0008C2F0E947F0EC82FD0E0DC2FCC27CC2784
:101AE000DF71D0621EC081152AE5920708F453C049
:101AF00090568115904208F091CF8D2F8F710E94E2
:101B00007F0E90E0982F882788279F719C012C2BAF
:101B1000E901E7CFC55AD0E0C157DE4FC881D0E018
:101B2000D064CE01DF91CF9108958370992721E091
:101B300030E002C0220F331F8A95E2F7C695C695A2
:101B400040E2C49FE0011124C22BD32BDD68E9CF12
:101B5000DC2FCC27C16FD06AE4CFCE0183709927E8
:101B600021E030E002C0220F331F8A95E2F7C695CC
:101B7000C69540E2C49FE0011124C22BD32BDA6842
:101B8000D0CFD82FCC27C46FD06ACBCFD82FCC27BB
:101B9000C06FD06AC6CF8F700E947F0E34E0D6959A
:101BA000C7953A95E1F7CF709C2FEC01D069B9CF7A
:101BB0000E94FE190E94E70C089582389105B9F140
:101BC000B0F48133910509F47DC048F48932910560
:101BD00009F46DC08A32910509F47BC008958533FC
:101BE000910509F45FC08933910509F10895833E99
:101BF0009105D9F138F4803E910529F1823E910595
:101C000079F10895863E9105D9F1873E910509F451
:101C10003EC0843E910541F52091B90221FF24C0C8
:101C20008091B80284FD19C087EE90E0089520915C
:101C3000B802237009F05AC02091B90223FF14C0E2
:101C400089E290E008952091B80220FD38C03091DB
:101C5000B90230FF09C024FF43C090E080E008953E
:101C60002091B80222FDF7CF08952091B80222FDFD
:101C70003AC03091B90230FD39C024FFF5CFEDCF25
:101C80002091B80223FFF0CF24FDE7CFCDCF2091E4
:101C9000B80223FD2EC03091B90231FFEECF84EEA1
:101CA00090E008952091B80225FFDECFC9CF2091A2
:101CB000B80225FD21C02091B90223FFD5CF89E3C9
:101CC00090E0D2CF2091B80226FFCECF8AE290E0FA
:101CD00008952091B80226FFC7CF81E390E00895D0
:101CE00083EE90E0089582EE90E0089580EE90E01B
:101CF000089586EE90E0089585E390E00895909130
:101D0000B80292FF06C0282F28712830F9F4877F87
:101D1000846093FF06C0282F28712831F1F4877E54
:101D200084612091B90220FF06C0382F3871383005
:101D3000D9F4877F816021FF06C0282F28712831C0
:101D4000D1F4877E816194FD877E0895282F2471C8
:101D50002430F9F68B7F8860DCCF282F2471243162
:101D600001F78B7E8861DDCF382F3171313019F763
:101D70008E7F8860E0CF282F2171213121F78E7E60
:101D80008861E1CF1092B4021092B5021092B602AF
:101D90001092B7020895CF92DF92EF92FF926B01FB
:101DA0007C010E94EE1081110EC00E94411FC61AD4
:101DB000D70AE80AF90AC092B402D092B502E092BA
:101DC000B602F092B702FF90EF90DF90CF900895A7
:101DD0000F931F930E94EE10882329F00E94411F49
:101DE0001F910F9108950E94411F0091B40210911C
:101DF000B5022091B6023091B702600F711F821FA9
:101E0000931FEECF80E008950E94610B08950E9419
:101E100072102FEF86E791E0215080409040E1F76B
:101E200000C000000E94721080E00E94440F80FFFA
:101E300004C00E94040F0E949C1F08950E94070F77
:101E400008950E94680B811102C00E94150C0E9427
:101E5000740B809353020E947E0B9093B90280937F
:101E6000B8020E941E0F0E94790B0E947D0680918D
:101E7000C3010E949506089508950E943C0F08959D
:101E800008950E94400F0895E82FF0E0ED53FD4FB4
:101E900080810895089580EA8A95F1F7089500C039
:101EA00008950E944B0F089508950E94540F0895BD
:101EB000EF92FF921F93CF93DF9300D000D0CDB766
:101EC000DEB70E94EE10182F6091CB02882309F430
:101ED00047C019821A821B821C82862F90E09E01C5
:101EE0002F5F3F4F7901B9018D539D4F0E94211102
:101EF0008823E9F08091BA0290E044E050E0B70115
:101F00008D539D4F0E94B72721E020935402892BC7
:101F1000C9F410E00E944702812F0F900F900F909C
:101F20000F90DF91CF911F91FF90EF9008958091D6
:101F30005402882371F384E0F70111928A95E9F73E
:101F400010925402E091BA02F0E0ED53FD4F898106
:101F50009A81AB81BC8180839183A283B383DACFE2
:101F600070E06D537D4F8091BA0290E08D539D4F8C
:101F70000E94A8110E94550FCFCFF894E82FE29548
:101F8000EF70F0E031A1282F2F7081E090E001C0C8
:101F9000880F2A95EAF7982F9095932391A392A101
:101FA000892B82A378940895CF93DF9384EF0E94C6
:101FB000BD0F85EF0E94BD0F86EF0E94BD0F87EF1A
:101FC0000E94BD0FC2E9D1E089918F3F11F00E94BC
:101FD000BD0F81E0C739D807B9F7DF91CF910895D8
:101FE000B0E0A0E0E6EFFFE00C947627EC01D62EFF
:101FF000062F10E0C80189569E4F7C01FC018081AC
:102000008F3F09F445C0F894E82FE295EF70F0E0B7
:1020100091A18F7021E030E001C0220F8A95EAF78C
:10202000892F822B81A382A12095282322A3789433
:102030000E944F0FE2E9F1E047E951E031E0C12CA5
:1020400021912F3F51F1A22FA295AF70B0E0909651
:102050008C9190E02F7002C0959587952A95E2F7B4
:1020600080FD1BC0832FC82A330F4E175F0741F72F
:10207000F70180818F3F11F00E94BD0F61E0C11018
:1020800001C060E08D2D0E94510FC00FD11FC8828A
:10209000CDB7DEB7E8E00C94922780E0E4CF8091E2
:1020A00002018091020194E0811190E09093CB02B3
:1020B00084E0891B8093BA020E94D40F88E0E3EC8D
:1020C000F2E0DF01982F1D929A95E9F7EBEBF2E031
:1020D000DF011D928A95E9F784E00E94B0100E940A
:1020E00044020895A8E0B0E0E8E7F0E10C94792715
:1020F0008E010F5F1F4F88E0F80111928A95E9F772
:10210000F12C6F2DC8010E94F00FF394F4E0FF1240
:10211000F8CF48E050E0B8018BEB92E00E94B7277F
:1021200021E0009709F420E0892B41F088E0F801D4
:10213000ABEBB2E001900D928A95E1F76091CB0292
:1021400070E06D537D4F44E08BEB92E00E94B11044
:10215000182F0E94580F812B2896E5E00C949527A4
:102160000895CF92DF92EF92FF920F931F93CF9338
:102170006C017B01042F222349F081E080935702F8
:102180000E94351F9093560280935502C0915702CA
:10219000C1110AC0C0E08C2FCF911F910F91FF9009
:1021A000EF90DF90CF900895809155029091560264
:1021B0000E944D1F059770F310E0A801B601C701FA
:1021C0000E94B727892B41F0A801B601C7010E94E0
:1021D000C42710925702DFCFC0E0FBCF80915A0294
:1021E000811107C00E943E27882351F081E080932F
:1021F0005A0281E090915A02913009F080E00895EE
:1022000082E080935A020E943927F3CF0E94EE1099
:1022100008950E940611809302010E94EE10811120
:102220000E94571108950E94EE10811102C00E9471
:102230005A11089581E090915B029A3008F080E095
:1022400008950F931F93CF93DF93EC018B0180913F
:102250005B028A30B8F4B801CE010E94A511C82FE4
:10226000811122C080915B028F3FB9F40E94351F1B
:1022700090935902809358028C2FDF91CF911F9138
:102280000F91089580915802909159020E944D1F1C
:10229000843F914000F7C0E0EFCF8F5F80935B02F7
:1022A0008A3020F7C1E0E8CF10925B02E5CF0E94B0
:1022B000F01B08950E94F31B0895B0E0A0E0E3E650
:1022C000F1E10C9477277901C82F880FDD0B4115B8
:1022D0005105A9F0FE0193E0EE0FFF1F9A95E1F77B
:1022E000ED5FFE4F81819281845A9D4F208130E0C5
:1022F0004217530708F49A01A9010E94C427CE018E
:102300000E94DC1CD82E8823D1F001151105B9F0EC
:1023100083E0CC0FDD1F8A95E1F7FE01ED5FFE4FF4
:10232000438150E00417150708F4A801CD5FDE4F84
:102330006C817D81645A7D4FC7010E94C4278D2D19
:10234000CDB7DEB7E7E00C9493270E949F12089563
:102350000E94B6120895A4E0B0E0E1EBF1E10C9424
:102360007A2760917102709172028091730290914C
:1023700074020E945C1F11E06436710581059105AD
:1023800018F10E94E80E6E5F7F4F8F4F9F4F698359
:102390007A838B839C8310E000E030E020E044E00F
:1023A00050E0BE016F5F7F4F82E00E945D11182FE9
:1023B000882351F00E94411F609371027093720252
:1023C0008093730290937402812F2496E4E00C941E
:1023D0009627B0E0A0E0EFEEF1E10C9474277C01C9
:1023E0005B016A010E941A1101E010E0882311F0DC
:1023F0000AE010E0C1E0D0E0B501C701F60109959F
:10240000811104C021960C171D072CF4CDB7DEB73F
:10241000EAE00C949027CC9F9001CD9F300D300DB9
:10242000112490E080E045E34A95F1F70000019621
:1024300082179307C1F7E0CFA5E0B0E0E2E2F2E156
:102440000C9474275B01E0909B01F0909C0101E0EB
:1024500010E09E012B5F3F4F50E040E070E060E0F5
:1024600080E00E945D11182F882309F44BC067019A
:102470008FEFC81AD80A60916D0270916E02809138
:102480006F02909170020E945C1F64367105810595
:10249000910580F104E010E09E012F5F3F4F50E076
:1024A00040E070E060E081E00E945D11F82E64E0A1
:1024B00070E0C6010E94E01611E09D81981310E0C3
:1024C0001F2159F10E94411F60936D0270936E02AB
:1024D00080936F029093700289819A81AB81BC8155
:1024E0008093690290936A02A0936B02B0936C028E
:1024F00011E013C064E070E0C6010E94E0169D8107
:102500008913C8CFF70181819281A381B481898326
:102510009A83AB83BC831111DFCF809169029091C4
:102520006A02A0916B02B0916C02F50180839183E5
:10253000A283B383812F2596EAE00C9490270F9312
:102540001F93CF93DF93EC018B014CE152E10E948A
:10255000E911882331F04BEA51E1B801CE010E9424
:10256000E911DF91CF911F910F9108950F931F9360
:10257000CF93DF93C0919B01D0919C01CE01019636
:1025800024E0FB01DC0101900D922A95E1F764E063
:1025900070E00E94E01688836D817E818F8198852E
:1025A00000916502109166022091670230916802E5
:1025B000601771078207930751F06093650270936B
:1025C000660280936702909368020E94CB0EDF91AF
:1025D000CF911F910F9108950E9498210E94520C53
:1025E0000E94A52108950E94AA210E94650C0E94C4
:1025F000C42108950E94CE1E0E947E210E943A0CA2
:102600000E94EC120E94F3120E94480CFBCF8091B2
:102610007B0280FF0DC06091200170E0660F771F84
:102620006038710570F56115710569F1862F08959F
:1026300081FF07C06091200184E0689FB0011124F0
:10264000EFCF6091200182FD0AC080917A02882339
:10265000A9F020911F0160912001821710F088E0FD
:10266000ECCF869FC001112433E0880F991F3A9563
:10267000E1F7622F70E00E944B27D2CF68E070E054
:10268000D5CF8FE7089581E0089580917B0280FF88
:102690000CC060911C0170E0759567957595679504
:1026A0006115710549F1862F089581FF06C060917B
:1026B0001C0170E075956795F3CF60911C0182FD58
:1026C0000BC0909179029923A1F060911B01809138
:1026D0001C01961738F0682F70E06038710500F320
:1026E0008FE70895899FC001112470E00E944B2755
:1026F000F4CF61E070E0D7CF81E00895803F31F4FE
:102700000E940713819580937F020895813F19F4F9
:102710000E940713F8CF823F31F40E94071381957E
:1027200080937E020895833F19F40E940713F8CF27
:10273000893F29F40E9445138093800208958A3FBF
:1027400021F40E9445138195F7CF8B3F31F40E940D
:10275000451381958093810208958C3F19F40E945E
:102760004513F8CF9CE0980F953070F4845F990B77
:1027700021E030E001C0220F8A95EAF780917D02C6
:10278000822B80937D0208958D3F31F480917B02EE
:10279000816080937B0208958E3F21F480917B02BB
:1027A0008260F7CF8F3FB9F780917B028460F1CFD1
:1027B00040917E02803F59F480917F0287FF0DC0D7
:1027C00010927F0241110BC010927A0208C0813F23
:1027D00081F480917F0218169CF3442381F080914C
:1027E000800290918102892B09F05AC010927902DF
:1027F0000895823F49F447FFF0CF10927E02809106
:102800007F028111ECCFE0CF833F19F41416ACF3B3
:10281000E4CF90918002893F29F41916F4F61092C2
:102820008002DBCF8A3F19F497FFD7CFF8CF909182
:1028300081028B3F29F497FFD0CF10928102CDCF38
:102840008C3F19F41916CCF3C8CF9CE0980F953043
:1028500090F4845F990B21E030E0B90102C0660F6B
:10286000771F8A95E2F7CB01809590917D028923AD
:1028700080937D02B2CF8D3F31F480917B028E7FB9
:1028800080937B02AACF8E3F21F480917B028D7FC3
:10289000F7CF8F3F09F0A1CF80917B028B7FF0CFE4
:1028A00008950E94351F9C0190917E0280917F02C5
:1028B000982B21F030937802209377029091800238
:1028C00080918102982B21F030937602209375023B
:1028D0008CE792E00E948A1D089586E0ECE7F2E022
:1028E000DF011D928A95E9F710927A02109279021F
:1028F00010927B020895FC01828181110EC08381B8
:1029000081110BC08481811108C091E08581811102
:1029100001C090E0892F8170089581E0FCCFA6E08E
:10292000B0E0E5E9F4E10C947B2786E0ECE7F2E027
:10293000DE01119601900D928A95E1F710927E02C8
:1029400010927F0210928002109281028B819C81F2
:10295000892B89F080917702909178020E944D1F17
:10296000AC0190917A029923C9F1809121018417D9
:10297000150608F440C08D819E81892B91F08091CD
:102980007502909176020E944D1FAC0190917902E0
:10299000992309F471C080911D018417150608F46C
:1029A00079C0BE016F5F7F4F8CE792E00E94861E68
:1029B000811105C08CE792E00E947B1481110E9476
:1029C000511486E0FE013196ACE7B2E001900D9221
:1029D0008A95E1F72696E3E00C949727209122014F
:1029E0008AE0289F900111242417350720F69F5F65
:1029F00090937A0202C09F3FD1F71B81112359F0B7
:102A00000E9407139FEF11160CF491E0899F802D0F
:102A1000112480937E021C81112359F00E94071318
:102A20009FEF11160CF491E0899F802D1124809363
:102A30007F0230917E02332309F49DCF20917F02E3
:102A4000222309F498CF45EB3403C00111249923C4
:102A500059F090937E0245EB240390011124332317
:102A600039F030937F0287CF81E080937E02F3CFED
:102A700081E080937F027FCF20911E018AE0289F12
:102A8000900111242417350708F08BCF9F5F909396
:102A9000790202C09F3FD1F71D81112359F00E9496
:102AA00045139FEF11160CF491E0899F802D11249E
:102AB000809380021E81112359F00E9445139FEFDD
:102AC00011160CF491E0899F802D112480938102CE
:102AD00030918002332309F464CF209181022223B4
:102AE00009F45FCF45EB3403C0011124992359F059
:102AF0009093800245EB240390011124332339F095
:102B0000309381024ECF81E080938002F3CF81E049
:102B10008093810246CF83E290E00E94CD278332EA
:102B200089F484E290E00E94CD27883059F485E250
:102B300090E00E94CD2791E0893209F090E0892F42
:102B40008170089580E0FCCFCF93C82F6FEF811183
:102B500063E283E290E00E94DB276FEFC11168E03F
:102B600084E290E00E94DB276FEFC11169E285E209
:102B700090E00E94DB27CF910895089586E290E0CF
:102B80000E94CD27682F70E090E080E008950895BE
:102B9000CF93C62F0E94C7156C2F86E290E00E944B
:102BA000DB27CF91089580E00E94A41560E070E0DB
:102BB000CB010E94C8150E9478190E945B1A81E01F
:102BC0000E94A41508950E94BD150E94BE150E9482
:102BD000C7150E948B15811102C00E94D31508955C
:102BE000CF93FB01C281CC2309F19C0122513F45C7
:102BF0002031310520F582510E946B1AC0E08C2FE4
:102C0000CF91089581E00E94AC0643E062E081E04C
:102C10000E943A02F3CF81E00E94B80643E062E0EE
:102C200081E00E943A02EBCF82E0F6CF8031FFE5EF
:102C30009F0789F381319F45B9F3C1E0E0CF80312F
:102C4000EFE59E07F9F281319F45C9F682E0DBCFBF
:102C50002FEFFC0120830895EF92FF920F931F93B3
:102C6000CF93DF93EC01062FE881E150E33108F0C8
:102C70005DC0F0E0E35EF74D0C945F2719828AE0B7
:102C80008A83602FCE010E945120CDB7DEB7E6E0E7
:102C90000C9494278981823069F0833071F08130FF
:102CA000D9F40E94411F0E9465276A837B838C832D
:102CB0009D83E7CF0E94BE15F6CF7E0182E0E80E2D
:102CC000F11C10E0812F0E94440FF70181937F01D6
:102CD0001F5F1830B9F7D5CF602FCE010E9428169C
:102CE000D0CF89818230C1F76A817B818C819D81BF
:102CF0000E9465270E94C815C4CF4B816A818981D3
:102D00000E943A199827892798279D838C83B9CFE9
:102D10002C813D813227232732274B816A8189818B
:102D20000E945C19AECF0E947819ABCF8FEF8883D9
:102D3000A8CF0E940C1A8983A4CF0E940E1A98274C
:102D4000892798279A8389839CCF6B8170E089813A
:102D50009A81AE014C5F5F4F9827892798270E9480
:102D6000111A8FCF6B8170E089819A81AE014C5F1F
:102D70005F4F9827892798270E94361A82CF0E9492
:102D80005B1A7FCF0E942819D6CF6B8170E08981B2
:102D90009A81AE014C5F5F4F9827892798270E9440
:102DA000B6196FCF6B8170E089819A81AE014C5F5B
:102DB0005F4F9827892798270E94DA1962CF0895D4
:102DC000FC01680F791F8FEF91E36E177F0709F4FD
:102DD00008952191822728E030E087FF06C0880F00
:102DE000892721503109C9F7F0CF880FFACFCF9347
:102DF000DF93EC01FB018281882309F464C1C330B5
:102E0000FDE5DF07E0F5CA3F9CE5D90730F49E01F8
:102E100022503C4524313105D8F50E947E0B909319
:102E2000B9028093B802C231ECE5DE0709F41FC194
:102E300008F06EC0C9308CE5D80709F4F2C008F07C
:102E40003FC0C530ECE5DE0709F4DBC058F5C33000
:102E50008CE5D80709F4CDC008F0CFC08091B80246
:102E60008160C230DC4509F4AEC08091B802909117
:102E7000B9020E948C0B0E942A0680E009C0C53A64
:102E8000EDE5DE0751F238F4C1369DE5D90729F2A8
:102E9000DF91CF9108959E012D5A3D452330310594
:102EA000B8F7BBCF8091B8028062C730FCE5DF077E
:102EB00009F489C008F4B1C08091B802806483C06D
:102EC000CD309CE5D90709F4BAC070F48091B802FE
:102ED0008E7FCB30FCE5DF0709F475C008F4A7C08E
:102EE0008091B8028D7F6FC0CF309CE5D90709F47F
:102EF000B6C008F4A8C0C031FCE5DF0709F4B3C0D0
:102F0000C131DC4509F0B1CF8091B8028F7B5BC045
:102F1000CF3F9CE5D90709F4B4C098F5CA3FFCE55A
:102F2000DF0709F472C0B8F4C4319CE5D90709F48D
:102F3000B6C008F4A2C0C531DC4509F096CF809137
:102F4000B80282FB992790F921E0922790FB82F941
:102F500090FB83F938C0CC3F8CE5D80709F477C0E3
:102F600008F457C0CD3FECE5DE0709F474C080914A
:102F7000B9028360CE3FDC4509F077CF8093B90278
:102F800074CFC1368DE5D80709F496C068F4C13016
:102F9000EDE5DE0709F48CC008F477C0C230DD45EA
:102FA00009F063CF80E085C0CD3A9DE5D907E9F00F
:102FB00068F49091B802892F8E7F90FF8160C53AA6
:102FC000DD4509F052CF8093B8024FCFCE3A8DE560
:102FD000D80789F1CF3ADD4509F047CF9091B90282
:102FE000892F877F93FF8860C9CF8091B90288605D
:102FF000C5CF8091B8028260E6CF8091B80284602C
:10300000E2CF8091B8028860DECF8091B902816002
:10301000B5CF8091B9028260B1CF8091B802806152
:10302000D2CF0E942A068091B8028068CCCF8091CE
:10303000B8028C60C8CF8091B902877F9FCF809102
:10304000B8028B7FC0CF8091B802877FBCCF8091C0
:10305000B9028E7F93CF8091B9028D7F8FCF8091FF
:10306000B8028F7EB0CF8091B8028F7DACCF0E9426
:103070002A068091B8028F77A6CF8091B802837F0D
:10308000A2CF8091B9028C7F79CF8091B902982F1D
:10309000909591708E7F892B90FB81F96FCF0E9464
:1030A0002A069091B802892F97FB87F980588BCF19
:1030B00081E00E94180CD9CE9091B802892F8F7EA2
:1030C00094FF806180CF81E0E3CEB0E0A0E0EBE64A
:1030D000F8E10C947727E82FF0E0E450FF4FD4900C
:1030E000282F26952695269530E0F901E456FE4FC7
:1030F0000491877010E0082E02C0159507950A9478
:10310000E2F701701127F901E457FE4FE490F12C2A
:10311000082E02C0F594E7940A94E2F791E0E922C0
:10312000FF24F901E458FE4FC491D0E002C0D595C8
:10313000C7958A95E2F7C170DD270115110519F0D1
:1031400081EE0E943703E114F10419F086EE0E942B
:1031500037038D2D0E94CD03E114F10419F086EEA2
:103160000E9483030115110519F081EE0E9483036B
:10317000CD2B19F08CE20E94CD03CDB7DEB7E7E08E
:103180000C949327EF92FF920F931F93CF93DF93AB
:10319000EC01162F0AE08881882309F454C081309D
:1031A00009F04EC08981813099F47E0122E0E20E5F
:1031B000F11C8A810E94CD03E7012196812F815065
:1031C00050F3EFE9FFE03197F1F700C00000F7CFCF
:1031D000823041F47E0182E0E80EF11C8A810E9477
:1031E0003703EACF833041F47E01E2E0EE0EF11CBA
:1031F0008A810E948303E0CF843011F02196DDCFD5
:103200002A81229690E080E0AE014F5F5F4F20530D
:10321000330B2A30310548F0019778F2EFE9FFE0EF
:103220003197F1F700C00000F7CF089FB001099F68
:10323000700D1124C901860F971F2981EA01E4CF7F
:103240000E946518BACFCDB7DEB7E6E00C9494279C
:1032500084E0089550E0440F551F9AE0699F400DA7
:10326000511D112490E5899F400D511D1124CA0163
:10327000879608950F931F93CF93DF938430C8F4FC
:103280006830B8F44530A8F40E942A198C010E94D5
:10329000CD27C82FD0E0DC2FCC27C80101960E9493
:1032A000CD279E01282BC901DF91CF911F910F914E
:1032B000089590E080E0F8CF0F931F93CF93DF93B2
:1032C000122F032F843078F4683068F4453058F4B6
:1032D0000E942A19EC01602F0E94DB27612FCE018A
:1032E00001960E94DB27DF91CF911F910F910895E6
:1032F000B0E0A0E0EEE7F9E10C9475279CEAC92E56
:1033000090E0D92ED0E0C0E07601B12C20C00E9420
:10331000CC0121E030E08C171D0641F03CF0F801B3
:10332000EE0FFF1FEE0DFF1D25913491402F6B2DE9
:103330008C2F0E945C190F5F1F4F0530110539F764
:103340008AE0E80EF11CB39488E0B81619F010E09A
:1033500000E0DDCF219680E5C80ED11CC430D10538
:1033600099F6CDB7DEB7E9E00C949127EF92FF9282
:103370000F931F93CF93DF93EC018A017C01E60E3C
:10338000F71ECE018796CE15DF0529F4CDB7DEB73F
:10339000E6E00C949427C03421E0D20740F40E9468
:1033A000CD27F80180830F5F1F4F2196EACFF801E8
:1033B0001082F9CFB0E0A0E0E0EEF9E10C947627BE
:1033C0007C016A018C01060F171FEC01CE01879664
:1033D000C017D10729F4CDB7DEB7E8E00C949227E7
:1033E000C03421E0D20740F4FE01EE19FF09EC0DD4
:1033F000FD1D60810E94DB272196E8CF462F843097
:1034000040F4783030F4653020F4672F0E943A1988
:10341000089590E080E0089580E1089589E992E0C0
:103420000895EF92FF920F931F93CF93DF93EC01D8
:103430008A017C01E60EF71ECE0189599E4FCE15FA
:10344000DF0529F4CDB7DEB7E6E00C949427C9393F
:1034500022E0D20740F40E94CD27F80180830F5F5D
:103460001F4F2196E9CFF8011082F9CFB0E0A0E01C
:10347000ECE3FAE10C9476277C016A018C01060FDB
:10348000171FEC01CE0189599E4FC017D10729F4AF
:10349000CDB7DEB7E8E00C949227C93922E0D20715
:1034A00040F4FE01EE19FF09EC0DFD1D60810E9444
:1034B000DB272196E7CFCF93DF93C7E6D1E060E02B
:1034C000CE010E94DB272196C11584E0D807B9F709
:1034D000DF91CF910895A4E0B0E0E1E7FAE10C9428
:1034E0007727F82E8FE08F1548F18FEF93E00E9439
:1034F000CD27811123C007E611E0F11023C0198206
:103500001A821B821C82DD24D39478018FEFE81A83
:10351000F80AC8010E94CD2789831A82882371F096
:103520009FEF980F9330D8F48A83D9820E5F1F4F94
:10353000C7010E94CD278B83811112C02496E7E03A
:103540000C949327011584E01807C1F3C8010E9469
:10355000CD27811101C0FA940F5F1F4FCECF870195
:1035600060E0CE0101960E94C218CFCFCF93DF93C7
:10357000EB0186319C4511F50E947A0A9A819923C4
:1035800099F08A7A91E009F490E090938202811197
:1035900009C089E20E94520A0E94BB0A80E0DF91C2
:1035A000CF91089585E3F6CF80918202811104C006
:1035B00089E20E945A0AF0CF85E3FBCF81E0EFCF8A
:1035C0000F931F93CF93DF93C42FD22FFC018281DF
:1035D0008823C9F0409385020E94351F909384028E
:1035E0008093830280E28C0F883040F4C77081E0C2
:1035F00001C0880FCA95EAF70E94D603DF91CF91E8
:103600001F910F91089510918502141332C080917B
:103610008302909184020E944D1F883C910548F5D9
:10362000C0E2CD0F1D17B9F080E2810F883040F461
:10363000177081E001C0880F1A95EAF70E94DD0338
:10364000C83048F481E09D2F977001C0880F9A958B
:10365000EAF70E94D603802F0E94CD03C83070F68F
:10366000D77081E001C0880FDA95EAF70E94DD0388
:10367000C5CF80E28C0F883008F6C77081E001C0AA
:10368000880FCA95EAF7F2CF0F939C01CB01233F35
:103690004CE5340759F1A8F4283DFCE53F0701F15A
:1036A000293D4CE53407D1F1273D3C4591F406E234
:1036B00021EE41EE67ED7CE50E94E01A80E00F917B
:1036C0000895253FFCE53F07E9F0B0F0263F3C4573
:1036D000F9F0FC018281882339F110928502EFCF45
:1036E00007E225EE45EE68ED7CE5E6CF06E221EE49
:1036F00040EE63EF7CE5E0CF07E225EE44EE64EFB9
:103700007CE5DACF06E221EE42EE65EF7CE5D4CF30
:1037100007E225EE46EE66EF7CE5CECF08E221E03B
:1037200045EE69ED7CE5C8CF81E0C9CF8EE14A9BCB
:1037300002C08150E1F74A9BFECF08955A9880E27B
:103740008A95F1F75A9A0895FC013BE03A95F1F712
:1037500098E020E080E031E040E14A95F1F7880F01
:103760004A9B02C08160232742E04A95F1F700009E
:1037700040E14A95F1F7915079F790E19A95F1F788
:1037800099B132E03A95F1F7000040E14A95F1F73E
:1037900092FB992790F992272081920F90830895A8
:1037A000A1E0B0E0E6EDFBE10C94782719828C01F2
:1037B0007C01E60EF11C0E151F0541F481E0998194
:1037C000911180E02196E6E00C9494270E94961BCC
:1037D000CE0101960E94A41BF80181938F01EBCFCB
:1037E000529A5A9A089552985A9AEA9AE9E6F0E05B
:1037F00080818F7C808308956150770B91E001C0B8
:10380000990F6A95EAF720E031E0911108C0222370
:1038100091F05A9A80E28A95F1F75A980895492FC3
:10382000482339F05A9A232740E24A95F1F79695B2
:10383000ECCF5A98F9CF5A98EDCFFF920F931F9380
:10384000CF93DF93EC018C01060F111DC017D10738
:1038500029F4CDB7DEB7E5E00C949527F9900E94E6
:103860009E1B68E08F2D0E94FC1BF0CF1F920F92D1
:103870000FB60F9211240F931F932F933F934F93E3
:103880005F936F937F938F939F93AF93BF93EF93C8
:10389000FF93CF93DF930F92CDB7DEB719820E94CB
:1038A000961BCE0101960E94A41B082F0695069533
:1038B0000695282F22952570902F9570290F922F0D
:1038C000937026952695920F982797708981982B4B
:1038D00009F05CC0043008F059C080E18A95F1F726
:1038E0005A9A529A82E08A95F1F700C05A9888E075
:1038F000089F80011124D801AD5FBE4F1696ED914F
:10390000FC9117973097A9F060919B0170919C01F1
:1039100014962D913C911597260F371F11968D9176
:103920009C911297680F791F13964C9113978C9165
:103930000995F801ED5FFE4F6381662351F02091F8
:103940009B0130919C0184819581820F931F0E947D
:103950001D1C0E949E1B80E18A95F1F75A9852988F
:103960005A9A80E18A95F1F7F801ED5FFE4F608188
:10397000662351F020919B0130919C0181819281BD
:10398000820F931F0E94D01B0E94961B0F90DF9105
:10399000CF91FF91EF91BF91AF919F918F917F91C7
:1039A0006F915F914F913F912F911F910F910F90C8
:1039B0000FBE0F901F9018950F931F93CF93DF9317
:1039C000EC0104970CF04CC0F894529A5A9885E098
:1039D0008A95F1F700009C2F969595708C2F857035
:1039E000980F892F83709695969523E0CC0FDD1F55
:1039F0002A95E1F7980F8E01092B0E949E1B00C0AB
:103A000068E0802F0E94FC1B80E18A95F1F75298B4
:103A10005A9A4A9B1EC087E090E04A991CC0FE015A
:103A2000ED5FFE4F63816623F9F020919B01309199
:103A30009C0184819581820F931F0E94D01B81116C
:103A400013C0529A5A9A7894DF91CF911F910F9197
:103A5000089500C0DECF019729F4529A5A9A7894BB
:103A600080E0F2CF00C0D9CF0E94961B80E28A95F9
:103A7000F1F75A98529A80E18A95F1F7CD5FDE4FBF
:103A80006881662351F020919B0130919C018981CE
:103A90009A81820F931F0E941D1C0E949E1B789486
:103AA00081E0D2CF9093AD018093AC0108959093C3
:103AB0008C0280938B0208950E94EE10811103C046
:103AC000809186020895E0918B02F0918C023097EC
:103AD00029F00190F081E02D0995089580E0089586
:103AE000E0918B02F0918C02309799F020912F0198
:103AF000222359F02091B80227FF07C0DC012C9146
:103B000011962C93119726E02C930280F381E02DDF
:103B100009950895E0918B02F0918C02309739F06D
:103B200022E0DC012C930480F581E02D09950895B5
:103B30002091890230918A022817390771F09093F9
:103B40008A0280938902E0918B02F0918C02309777
:103B500021F00680F781E02D0995089520918702D4
:103B6000309188022817390771F09093880280936A
:103B70008702E0918B02F0918C02309721F0008453
:103B8000F185E02D09950895FC01329680912F0171
:103B9000882321F08091B8029EE187FF96E080E0C3
:103BA000915008F4089521912223D1F38F5FF8CF2B
:103BB000662301F120912F012223F1F02091B80218
:103BC00027FF1AC0462F4695469546954E3190F4EC
:103BD000677021E030E002C0220F331F6A95E2F7E0
:103BE000840F911DFC01828190E02823392381E01C
:103BF000232B69F480E00895FC0132960896219108
:103C0000261721F0E817F907D1F7F4CF81E00895DE
:103C10009C01FC0132969FEF80E04191461751F0E4
:103C20009F3F19F4411101C0982F8F5F8630A9F78B
:103C30009F3F09F40895290F311D97FD3A95F90129
:103C400062830895FC01329608962191261303C0E1
:103C5000DF0111971C92E817F907B9F70895E62FCD
:103C6000E695E695E695EE3168F4E80FF92FF11D3B
:103C7000677021E030E001C0220F6A95EAF7828187
:103C8000822B82830895E62FE695E695E695EE3140
:103C900070F4E80FF92FF11D677021E030E001C0EA
:103CA000220F6A95EAF720958281282322830895BE
:103CB00020912F01222339F02091B80227FF03C061
:103CC0000E942F1E08950E94081E089520912F0122
:103CD000222339F02091B80227FF03C00E94431E1F
:103CE00008950E94221E0895FC01329680912F01B2
:103CF000882351F08091B80287FF06C08EE1DF0172
:103D00001D928A95E9F7089586E0F9CF46E050E0E4
:103D10000E94B72721E0892B09F420E0822F089523
:103D200008950E94901E0895811106C081E080933D
:103D30008D020E94911E089582E0F9CF83E0809366
:103D40008D020E94911E08950E94941E089581E0A4
:103D500080938D020E94911E08950E94A71E0895CF
:103D6000089508950E94B11E0895089508950E942F
:103D7000B01E0895CF930E94B51E0E9472100E943B
:103D8000B61EC0E08C2F0E94440F811105C0CF5F8A
:103D9000C830C1F7CF91089581E0FCCF85B7806826
:103DA00085BF85B7806885BF08951F921FB61F9293
:103DB00011248F939F93AF93BF9380918E028111B3
:103DC00013C08091CC029091CD02A091CE02B0910F
:103DD000CF024196A11DB11D8093CC029093CD02DC
:103DE000A093CE02B093CF02BF91AF919F918F91DC
:103DF0001F901FBE1F9018958091D402843031F11E
:103E00000E94BD0210928E0288E190E020E40FB67D
:103E1000F894A895809360000FBE2093600083B74C
:103E2000817F846083BF83B7816083BF78948895E6
:103E300083B78E7F83BF0FB6F894A89580916000FA
:103E4000886180936000109260000FBE08950E9408
:103E50002A060E94C202089582E084BD93E095BDC7
:103E60009AEF97BD80936E0008952FB7F8948091D4
:103E7000CC029091CD02A091CE02B091CF022FBF83
:103E800008952FB7F8946091CC027091CD02809183
:103E9000CE029091CF022FBF08959C014FB7F894A6
:103EA0008091CC029091CD02A091CE02B091CF0230
:103EB0004FBF821B930B0895CF92DF92EF92FF9238
:103EC0002FB7F894C090CC02D090CD02E090CE02F3
:103ED000F090CF022FBFA7019601261B370B480B8E
:103EE000590BCA01B901FF90EF90DF90CF90089570
:103EF00078941F921FB61F9211248F939F93AF93B4
:103F0000BF938091CC029091CD02A091CE02B0914E
:103F1000CF020196A11DB11D8093CC029093CD02DA
:103F2000A093CE02B093CF02BF91AF919F918F919A
:103F30001F901FBE1F90189587E797E79093010881
:103F40008093000888E19AE00FB6F894A8958093D2
:103F500060000FBE90936000FFCF88E19AE00FB63B
:103F6000F894A895809360000FBE90936000FFCFF7
:103F70008091B202089508959C0184E08093E90045
:103F80009FEF8091E800915085FD06C085ED8A95F0
:103F9000F1F700009111F5CF8091E80085FF0CC08A
:103FA00050E040E066E070E0C9010E946322809129
:103FB000E8008E778093E8000895CF93DF93EC01BB
:103FC00080912F018823B1F18091B80287FF32C020
:103FD00060E284E08093E9008FEF9091E8008150E7
:103FE00095FD06C095ED9A95F1F700008111F5CF8A
:103FF0008091E80085FF1BC080912F0170E050E0A8
:1040000040E0811104C050E040E068E070E0CE0183
:104010000E9463228091E8008E778093E80080E21E
:10402000FE01A2E9B2E001900D928A95E1F7DF91DD
:10403000CF91089568E081E0CDCF80938F02709397
:104040009102609390028091D4028430F9F48093BD
:10405000E9008FEF9091E800815095FD06C095ED45
:104060009A95F1F700008111F5CF8091E80085FF66
:104070000DC050E040E063E070E08FE892E00E9405
:1040800063228091E8008E778093E8000895BC0158
:1040900084E00E941D200895BC0183E00E941D2041
:1040A0000895CF93FC01603221F58091D4028430D1
:1040B00001F5C091E900CF702091EC00922F917032
:1040C00020FD90E8C92B82E08093E9008091E80010
:1040D00080FF0CC050E040E060E270E0CF010E9441
:1040E00063228091E8008E778093E800CF70C093C0
:1040F000E900CF9108958091D302811109C00E94F7
:1041000042240E949F248091E20084608093E20018
:1041100008951092D30208950E94A71E08956091F9
:10412000D00281E0611101C080E00E949E1E0895CE
:104130009091D40281E0943009F080E06091D00247
:104140000E94A41E089542E061EC81E00E94BE231B
:1041500042E261EC84E00E94BE2342E261EC82E034
:104160000E94BE2342E260EC83E00E94BE23909155
:10417000D40281E0943009F080E06091D0020E9486
:10418000941E08958091D602833009F463C030F400
:104190008130E1F1823009F4A0C008958A3009F439
:1041A0008CC08B3009F471C0893009F052C0809105
:1041B000D502813209F04DC08091D9029091DA0286
:1041C000009719F0029709F044C08091E800877FBA
:1041D0008093E8008091E80082FF37C09091F3005F
:1041E0008091F200029731F48091F100813011F05A
:1041F000863021F48091F1008093B2028091E80032
:104200008B778093E8000E94F22323C08091D5022F
:10421000813AF9F48091E800877F8093E8008091EB
:10422000D9029091DA02892B61F460E282E992E08E
:1042300070E00E9401238091E8008B778093E80072
:10424000089560E090E080E0F3CF8091D402811186
:10425000C1CF08958091D502813AD9F78091D902D2
:104260009091DA02892BA9F78091E800877F8093EB
:10427000E8008091E80080FFFCCF80912F018093BF
:10428000F1008091E8008E77BCCF8091D502813219
:1042900001F78091D9029091DA02892BD1F68091B1
:1042A000E800877F8093E8000E94F2238091D70284
:1042B00080932F010E942A0608958091D5028132B1
:1042C00041F68091E800877F8093E8000E94F22306
:1042D0008091D8028093B30208958091D502813AEB
:1042E00009F0B7CF8091E800877F8093E800809144
:1042F000E80080FFFCCF8091B302C1CF84B7877FF5
:1043000084BF0FB6F894A89580916000886180936F
:104310006000109260000FBE80E890E00FB6F89445
:1043200080936100909361000FBE0E94AD1E0895BE
:104330000E9442240E949F24E2EEF0E0808184608B
:10434000808378940E941E27089583E291E00E9462
:10435000571D08958091D402853031F48091D402A4
:10436000853019F00E94271F08950E94FC1E80913D
:10437000D202882399F30E94BA1E882379F30E94FF
:104380004D220E942A06EACFA0E2B0E0EAECF1E278
:104390000C947C278091D402843009F583E08093CB
:1043A000E9008091E80082FF1AC08091E80090E067
:1043B00085FF09C050E040E060E270E0CE01019668
:1043C0000E94B22291E08091E8008B778093E80010
:1043D000992329F060E2CE0101960E942C16A09646
:1043E000E2E00C9498270E94F6210895292F3327A4
:1043F0002330310521F168F42130310509F443C03F
:104400002230310509F444C090E080E030E020E043
:1044100026C02132310551F122323105A9F763302E
:10442000710590F7FB01EE0FFF1FE056FE4F208154
:10443000318163567E4FFB01808190E010C0992747
:104440008130910581F0009729F00297E9F6ECEAB6
:10445000F1E002C0E0EDF1E0849190E09F01FA010B
:10446000318320830895E4ECF1E0F6CF63307105E9
:1044700058F6660F771FFB01EA55FE4F2081318108
:1044800089E090E0ECCF82E190E02FE232E0E7CFEC
:104490008BE590E024ED31E0E2CF80E189BD82E15F
:1044A00089BD09B400FEFDCF8091D8008F7D809337
:1044B000D8008091E00082608093E0008091E0006D
:1044C00081FDFCCF0895AF92BF92CF92DF92FF9211
:1044D0000F931F93CF93DF936C01EB018A010E942E
:1044E0001124F82E811123C00115110539F0F801AE
:1044F00080819181C81BD90BC80ED91EB12CA12C6B
:104500002097A9F08091E80085FD22C08091E80005
:104510008E778093E80001151105A1F0F8018081E4
:104520009181A80EB91EB182A08285E0F82E8F2D50
:10453000DF91CF911F910F91FF90DF90CF90BF90AF
:10454000AF9008950E9411248823D1F2F82EEFCF66
:10455000F60181916F018093F1002197FFEFAF1A6F
:10456000BF0ACECFAF92BF92CF92DF92FF920F934E
:104570001F93CF93DF936C01EB018A010E941124FA
:10458000F82E811123C00115110539F0F801808141
:104590009181C81BD90BC80ED91EB12CA12C209714
:1045A000A9F08091E80085FD22C08091E8008B771A
:1045B0008093E80001151105A1F0F8018081918137
:1045C000A80EB91EB182A08285E0F82E8F2DDF9152
:1045D000CF911F910F91FF90DF90CF90BF90AF9040
:1045E00008950E9411248823D1F2F82EEFCF8091F4
:1045F000F100F60181936F012197FFEFAF1ABF0A17
:10460000CECFFC018091DB029091DC0286179707E8
:10461000A0F06115710529F49091E8009E779093C0
:10462000E80090E06115710551F4911108C0809186
:10463000E80082FF34C080E00895BC01F2CF809191
:10464000D4028823C1F18530C1F18091E80083FD57
:1046500030C08091E80082FDEACF8091E80080FFC1
:10466000E1CF8091F3002091F200382F61157105A0
:1046700019F02830310558F091E02830310509F063
:1046800090E02091E8002E772093E800CBCF819135
:104690008093F100615071092F5F3F4FE7CF809108
:1046A000D402882341F0853041F08091E80083FFF7
:1046B000BECF81E0089582E0089583E00895FC0173
:1046C0008091DB029091DC0286179707A0F06115BC
:1046D000710529F48091E8008E778093E80090E0DE
:1046E0006115710551F4911108C08091E80082FFB5
:1046F00035C080E00895BC01F2CF8091D4028823B8
:10470000C9F18530C9F18091E80083FD31C0809105
:10471000E80082FDEACF8091E80080FFE1CF809140
:10472000F3002091F200382F6115710519F028303F
:10473000310558F091E02830310509F090E0809182
:10474000E8008E778093E800CBCF84918093F100CE
:104750003196615071092F5F3F4FE6CF8091D402AF
:10476000882341F0853041F08091E80083FFBDCF80
:1047700081E0089582E0089583E00895982F9730AE
:1047800028F08F708093E90081E008959093E9000C
:10479000242F762F50E0981731F07091EC00209183
:1047A000ED005091F00021FD02C09F5FE8CF3091F5
:1047B000EB003E7F3093EB003091ED003D7F309376
:1047C000ED003091EB0031603093EB007093EC0022
:1047D0002093ED005093F0002091EE0027FDE5CFEF
:1047E00080E008958091D50287FF13C08091E80092
:1047F00082FF06C08091E8008B778093E80004C0B8
:104800008091D4028111F2CF08958091D40288233F
:10481000D9F38091E80080FFF8CF8091E8008E778F
:10482000ECCF2091E4003091E50095E6A9012091BC
:10483000EC00822F817020FF06C08091E80080FF8D
:1048400006C080E008952091E80022FD1AC0809102
:10485000D402882389F0853089F08091EB0085FDB2
:104860000FC02091E4003091E50042175307F9F2A0
:104870009150E1F684E0089582E0089583E0089580
:1048800081E008950E94B1240E94B924E0EEF0E096
:10489000808181608083E8EDF0E080818F77808384
:1048A00019BCA7EDB0E08C918E7F8C9380818F7EB8
:1048B00080831092D30208950F931F93CF93DF93B9
:1048C0000E94B1240E94B924C8EDD0E088818F777E
:1048D000888388818068888388818F7D888319BCDC
:1048E0001092D4021092D0021092D2021092D102F1
:1048F00000EE10E0F80180818B7F808388818160E9
:10490000888342E060E080E00E94BE23E1EEF0E0B8
:1049100080818E7F8083E2EEF0E080818160808301
:10492000808188608083F80180818E7F8083888188
:1049300080618883DF91CF911F910F910895E8EDF9
:10494000F0E080818F7E8083E7EDF0E08081816000
:10495000808384E082BF81E08093D3020E945C2444
:104960000895E8EDF0E080818E7F80831092E20070
:1049700008951092DA001092E10008951F920F92AC
:104980000FB60F9211242F933F934F935F936F9322
:104990007F938F939F93AF93BF93EF93FF938091F8
:1049A000E10082FF0BC08091E20082FF07C080918E
:1049B000E1008B7F8093E1000E941D278091DA0047
:1049C00080FF19C08091D80080FF15C08091DA0067
:1049D0008E7F8093DA008091D90080FF96C080E1BD
:1049E00089BD82E189BD09B400FEFDCF81E08093DD
:1049F000D4020E947B208091E10080FF19C0809149
:104A0000E20080FF15C08091E2008E7F8093E2007B
:104A10008091E20080618093E2008091D800806202
:104A20008093D80019BC85E08093D4020E948F2027
:104A30008091E10084FF2BC08091E20084FF27C0B9
:104A400080E189BD82E189BD89B5982F917080FF91
:104A5000FBCF8091D8008F7D8093D8008091E100BA
:104A60008F7E8093E1008091E2008F7E8093E20050
:104A70008091E20081608093E2008091D0028823DF
:104A800009F449C084E08093D4020E949820809168
:104A9000E10083FF29C08091E20083FF25C080915F
:104AA000E100877F8093E10082E08093D40210923E
:104AB000D0028091E1008E7F8093E1008091E2003E
:104AC0008E7F8093E2008091E20080618093E2001B
:104AD00042E060E080E00E94BE238091F0008860A8
:104AE0008093F0000E948C20FF91EF91BF91AF91D5
:104AF0009F918F917F916F915F914F913F912F91F6
:104B00000F900FBE0F901F90189519BC1092D402F1
:104B10000E94892070CF8091E30087FD93E09093FD
:104B2000D402B3CF1F920F920FB60F9211242F937E
:104B30003F934F935F936F937F938F939F93AF9325
:104B4000BF93CF93DF93EF93FF93D091E900DF7092
:104B50008091EC00C82FC17080FDC0E81092E90080
:104B60008091F000877F8093F00078940E94D62592
:104B70001092E9008091F00088608093F000CD2BC6
:104B8000CF70C093E900FF91EF91DF91CF91BF917A
:104B9000AF919F918F917F916F915F914F913F91D5
:104BA0002F910F900FBE0F901F901895AAE2B0E0C2
:104BB000ECEDF5E20C947B2785ED92E02091F1007D
:104BC000FC012193CF01F2E08D3D9F07B9F70E94D0
:104BD000C2208091E80083FF1EC18091D502909190
:104BE000D6029A3008F017C1E92FF0E0E05DF74DEA
:104BF0000C945F27803899F0823809F00CC18091BD
:104C0000D9028F70873008F006C18093E900809147
:104C1000EB0085FB882780F91092E90006C080919F
:104C2000D1029091D202911182609091E800977F19
:104C30009093E8008093F1001092F1008091E800D9
:104C40008E77E5C0882309F4D3C0823009F0E3C031
:104C50008091D7028111D6C08091D9028F702FEF39
:104C6000280F263008F0D7C08093E9002091EB0090
:104C700020FFC8C0933031F48091EB0080628093B4
:104C8000EB00C0C09091EB0090619093EB0021E0AD
:104C900030E001C0220F8A95EAF72093EA001092D3
:104CA000EA008091EB008860EACF8111B4C01091D6
:104CB000D7021F778091E3008078812B8093E300F7
:104CC0008091E800877F8093E8000E94F223809122
:104CD000E80080FFFCCF8091E30080688093E300D0
:104CE00082E0111183E08093D40295C08058823015
:104CF00008F091C08091D7029091D8028C3D23E0BA
:104D00009207A1F583E08A838AE289834FB7F894FA
:104D1000DE01139620E03EE051E2E32FF0E05093F5
:104D20005700E49120FF03C0E295EF703F5FEF7002
:104D30008E2F90E0EA30C0F0C7968D939D932F5F41
:104D4000243159F74FBF8091E800877F8093E800B6
:104D50006AE270E0CE0101960E9401238091E80092
:104D60008B778093E80057C0C096E7CF6091D90257
:104D70007091DA02AE014F5F5F4F0E94F321BC01D8
:104D8000892B09F448C09091E800977F9093E80040
:104D900089819A810E945F23E1CF8038E1F580917B
:104DA000E800877F8093E8008091D0028093F10033
:104DB00045CF811130C09091D702923060F580913B
:104DC000E800877F8093E8009093D0020E94F2234E
:104DD0008091D002882311F084E005C08091E30027
:104DE00087FDFACF81E08093D4020E94A32013C0F4
:104DF0008091D702813079F481E0933009F080E02E
:104E00008093D2021092E9008091E800877F80931E
:104E1000E8000E94F2238091E80083FF0AC080919D
:104E2000E800877F8093E8008091EB0080628093A8
:104E3000EB00AA96E3E00C9497270895CF93809116
:104E4000D4028823A1F0C091E900CF709091EC00CA
:104E5000892F817090FD80E8C82B1092E900809125
:104E6000E80083FD0E94D625CF70C093E900CF9162
:104E700008950E9442241092D4020895E8EDF0E0D3
:104E80008081806180838AE18A95F1F700C08091FA
:104E9000D9008170089597FB072E16F4009407D06F
:104EA00077FD09D00E94A32707FC05D03EF490951A
:104EB00081959F4F0895709561957F4F0895EE0FEE
:104EC000FF1F0590F491E02D099469279627692723
:104ED00078278727782708952F923F924F925F92E5
:104EE0006F927F928F929F92AF92BF92CF92DF92FA
:104EF000EF92FF920F931F93CF93DF93CDB7DEB75F
:104F0000CA1BDB0B0FB6F894DEBF0FBECDBF0994F2
:104F10002A88398848885F846E847D848C849B8449
:104F2000AA84B984C884DF80EE80FD800C811B8157
:104F3000AA81B981CE0FD11D0FB6F894DEBF0FBE86
:104F4000CDBFED010895AA1BBB1B51E107C0AA1FED
:104F5000BB1FA617B70710F0A61BB70B881F991F1A
:104F60005A95A9F780959095BC01CD010895FB0154
:104F7000DC0104C08D910190801921F44150504012
:104F8000C8F7881B990B0895FB01DC0102C0019052
:104F90000D9241505040D8F70895F999FECF92BD37
:104FA00081BDF89A992780B50895A8E1B0E042E064
:104FB00050E00C940128262FF999FECF92BD81BDB7
:104FC000F89A019700B4021639F01FBA20BD0FB647
:104FD000F894FA9AF99A0FBE08950396272F0E9423
:104FE000DC270E94DB27252F0E94DC27242F0C942E
:104FF000DC270196272F0E94DC270C94DB27DC019D
:10500000CB01FC01F999FECF06C0F2BDE1BDF89AD3
:10501000319600B40D9241505040B8F70895F8947D
:10502000FFCF1F041F0450045004DD04F9047F0463
:105030007F0404056B057A057A053E164A1671163B
:105040007D1688169316961696169616961696162A
:1050500099169D16A516B216BF16C216C516D216FB
:10506000FA2522260B2722260B27552676260B27E4
:04507000CD26D9264A
:105074001F02010000000100000000000000040104
:105084000000000405000000000000280850011E74
:105094000A1401B81FDD1FBC1F4C204720BB1F0191
:1050A400E200E900EA00B500B600B700CD008301D4
:1050B400CC008A01920194012102230224022502D8
:1050C400260227022A02B300B4006F007000818216
:1050D40083E200E900EA00B500B600B700CD008322
:1050E40001CC008A019201940121022302240225A9
:1050F40002260227022A02B300B4006F0070008166
:1051040082833534C69766F4F5F6F75C024022B61E
:0C511400190341026302E601FF011F02C3
:00000001FF
