:100000000C94AF010C94CC010C94CC010C943B1FCC
:100010000C94CC010C94CC010C94CC010C94CC012C
:100020000C94CC010C94CC010C9401250C94D52596
:100030000C94B81D0C94CC010C94CC010C94CC0104
:100040000C94CC010C94CC010C94CC010C94CC01FC
:100050000C94CC010C945B1E0C94CC010C94CC0140
:100060000C94CC010C94CC010C94CC010C94CC01DC
:100070000C94CC010C94CC010C94CC010C94CC01CC
:100080000C94CC010C94CC010C94CC010C94CC01BC
:100090000C94CC010C94CC010C94CC010C94CC01AC
:1000A0000C94CC010C94CC010C94CC0114001A00DB
:1000B00008001500170004001600070009000A00D8
:1000C0001D001B0006001900050029002B00E000A0
:1000D000E3002C001C0018000C00120013000B00A1
:1000E0000D000E000F002800110010003600370030
:1000F000E5005000510052004F002A0000000000AF
:10010000000000002A2B2800000000000000000072
:100110000000000000000029000000002C1E342018
:10012000212224342627252E362D3738271E1F203E
:100130002122232425263333362E37381F04050683
:100140000708090A0B0C0D0E0F10111213141516C7
:100150001718191A1B1C1D2F3130232D35040506C5
:100160000708090A0B0C0D0E0F10111213141516A7
:100170001718191A1B1C1D2F3130354C00000000B8
:10018000000000000000000000000000000000006F
:10019000000000000000000000000000000000005F
:1001A0007E0F00D4FFFFFFC70000007816036A002F
:1001B0006900730061006B00750032003000780048
:1001C000320000000A036D002E006B006900000081
:1001D0000403090409025B00030100A0FA090400FA
:1001E000000103010100092111010001224400075F
:1001F0000581030800010904010002030000000951
:1002000021110100012222000705820320000107BD
:100210000503032000010904020001030000000996
:10022000211101000122B6000705840320000112FC
:1002300001000200000008434D21000001010200FE
:10024000010660FF0961A1010962150026FF009502
:1002500020750881020963150026FF0095207508A6
:100260009102C005010902A10185020901A1000551
:100270000919012908150025019508750181020554
:1002800001093009311581257F950275088106091C
:10029000381581257F950175088106050C0A3802FD
:1002A0001581257F950175088106C0C0050109806B
:1002B000A101850319012AB700150126B700950190
:1002C00075108100C0050C0901A101850419012ADE
:1002D000A002150126A002950175108100C005013C
:1002E0000906A1018506050719E029E71500250182
:1002F0009508750181020507190029EF15002501F0
:1003000095F075018102050819012905950575010A
:100310009102950175039101C005010906A101052E
:100320000719E029E7150025019508750181029557
:1003300001750881010507190029FF150026FF0036
:100340009506750881000508190129051500250184
:10035000950575019102950175039101C000112465
:100360001FBECFEFDAE0DEBFCDBF11E0A0E0B1E00D
:10037000ECE6F1E502C005900D92AC3BB107D9F770
:1003800022E0ACEBB1E001C01D92A43FB207E1F75F
:100390000E94A4130C9462280C940000811112C0D6
:1003A000683080F4453070F4E42FF0E085E0689F19
:1003B000E00DF11D1124EE0FFF1FE455FF4F859155
:1003C0009491089581E090E0089581E008950E945D
:1003D000E501089581E008950E94E50108950E94D5
:1003E000EC01089508950E94F2010895A6E0B0E09E
:1003F000ECEFF1E00C94BE2749835A839E83309141
:10040000C30189819A8131111AC03E81332399F049
:10041000222389F00E946107182F682F89819A8111
:100420000E943D0769817A81812F0E946A0E26967B
:10043000E3E00C94DA270E944F07182FF3CF0E94B5
:10044000610769817A81F1CFFC01262F40815181BA
:1004500062817381848195810E94F6010895CF9312
:10046000DF93EC0161E00E942402BE010E94E701DB
:10047000DF91CF910895CF93DF93EC0160E00E946C
:100480002402BE010E94F301DF91CF9108950895E7
:100490000E9439060E9447022FEF84E39CE021501E
:1004A00080409040E1F700C0000008950E9448029B
:1004B0000E947F1E08950E9448020E94901E089587
:1004C0000F931F93CF93DF938C0161E00E9424026E
:1004D000EC01B8010E94A016811106C080E0DF91F6
:1004E000CF911F910F910895B801CE010E94EF01A5
:1004F0008823A1F3B801CE010E946C1B882371F3FD
:10050000B801CE010E949F17882341F3B801CE01A4
:100510000E94DE1A882311F3B801CE010E94B01B9D
:100520008823E1F2F8018581882361F0C330FCE77C
:10053000DF07E9F058F4C115ECE7DE07A9F0C13098
:10054000DC47B9F0C8010E94EA01C9CFCB358CE77E
:10055000D807A9F0CC35ECE7DE0771F0CA35DC47E7
:1005600089F70E94B90BEECF0E945602B7CF0E94C6
:10057000C10B0E945B02B2CF0E94AF0BE3CF0E947F
:10058000BD0BE0CF0E94951D0E94E90208950E94D4
:10059000ED020E949A1D0895089581E0089508953E
:1005A000CF93DF93D82F0E94CD02C82F882319F054
:1005B0008D2F0E94CF028C2FDF91CF910895089547
:1005C000CF93C82F0E94CC028C2F0E94D002CF91D3
:1005D000089580E00E94E00208950E94FE1B0E94A0
:1005E000E0020895CF930E94FE1BC82F8091BE01A8
:1005F0008C1779F0C093BE010E94241E6093BF0146
:100600007093C0018093C1019093C2018C2F0E940E
:10061000E002CF910895ADE0B0E0E1E1F3E00C94A9
:10062000BF27488759876A877B878C879D87911169
:100630000E94E70A1F8286E0FE013896DE011196CD
:1006400001900D928A95E1F78D8181110DC029816C
:100650003A814B815C816D817E818F810E941A0A73
:100660002D96E2E00C94DB27CE0101960E942F022A
:100670008111EDCFF5CFFC012481213021F480815F
:1006800091810E948E070895662329F00E943B14F1
:100690000E940E1508950E949514FACFCF93C82F8B
:1006A0008823B9F08CEF8C0F813AA8F46C2F8091DD
:1006B0000001909101010E94981C882329F08C2F41
:1006C0000E94A70A0E94200B8C2F0E949F0A0E9462
:1006D000200BCF91089580E28C0F883048F4C770CA
:1006E00081E001C0880FCA95EAF70E94CA0AEFCFDD
:1006F000EBE5EC0FE33040F4F0E0EB59FE4F808186
:1007000090E00E943A1CE5CFE8E5EC0FEB3150F4A5
:10071000F0E0EE0FFF1FE15DFE4F808191810E94AE
:100720005F1CD7CF83E38C0F833198F661E08C2F69
:100730000E944403CECF882381F19CEF980F913A19
:1007400028F40E94A70A0E94200B089590E2980FB7
:10075000983050F4877091E001C0990F8A95EAF7BC
:10076000892F0E94D00AEFCF9BE5980F933028F491
:1007700090E080E00E943A1C089598E5980F9B3124
:1007800028F490E080E00E945F1C089593E3980FA6
:10079000933118F460E00E94440308951F93CF93AF
:1007A000DF93182FEB010E944E03209739F4812F1D
:1007B0000E949B03DF91CF911F9108958FE99FE0E5
:1007C0000197F1F700C000002197EFCF70E060E0E3
:1007D000893311F460E570E00E94CE030895882308
:1007E00021F00E94CA0A0E94200B0895882321F05C
:1007F0000E94D00A0E94200B0895B0E0A0E0E3E040
:10080000F4E00C94B8276C01D62FC72FFC0115819A
:10081000068102950F700E94C00AE82E8823E9F035
:10082000E12E1123D1F08C2F807F803451F080E2B3
:100830008D0F8830F8F0011104C08C2F807E80323B
:10084000C9F08091D00282FF15C082E00E94830B24
:100850000E94C00A91E0E82EE926BC2EB2949FE0E7
:10086000B922FBE0FB15B8F1EB2DF0E0EC59F74DA8
:100870000C94A227E12CF1CF0C2F0F70C07F11F048
:100880000295007F112399F0002359F080E28D0F2B
:10089000883010F0D11107C0802F0E94CA0A0E9430
:1008A000200B8D2F5AC0802F0E94DA0AF8CF8D2F8F
:1008B0000E949B03002379F080E28D0F883010F0B6
:1008C000D11104C0802F0E94D00A03C0802F0E9443
:1008D000E00A0E94200BEB2DE850FF0B349720F428
:1008E0000E94FE1B0E94E002EE2089F00E94BC0ADA
:1008F00080FD0DC0F60115820E94B60A0E94B10665
:10090000C6010E9400060E94B60A0E94BD06CDB72D
:10091000DEB7E9E00C94D4272C2F2F70F22EC07F85
:10092000C03219F0F29480EFF822DD2341F0D1308B
:10093000D1F1112309F444C00023F1F0B2CF80912A
:10094000D00282FD15C0112359F0FF2029F08F2D10
:100950000E94CA0A0E94200B80E00E944E03BBCF77
:1009600080E00E949B03FF2009F4B5CF8F2DABCF11
:10097000112369F0011104C08F2D0E94EF03ABCF4A
:10098000013009F0A8CF8F2D0E94FE0AA4CF0111DB
:10099000A2CF8F2D0E94F6038F2D0E940A0B8F2D60
:1009A0000E94EE0A98CF112321F0063008F093CF71
:1009B000E3CF053008F08FCF8F2D0E94F6038BCF49
:1009C0000023D1F3D93349F43FEF87EE93E0315060
:1009D00080409040E1F700C000008D2F0E949B03F3
:1009E0007ACF8C2F86958695837069F0813009F0D7
:1009F00072CF8D2F9C2F9370111102C080E090E078
:100A00000E945F1C68CF8D2F9C2F9370111102C024
:100A100080E090E00E943A1C5ECF612F8D2F0E94F3
:100A2000440359CF8C2F837079F5111154CF4D2F7A
:100A3000429546954770440F440F8D2F8F70042EBA
:100A400001C0880F0A94EAF72D2F2071D4FF07C048
:100A50002FE030E001C0220F4A95EAF72095C695B5
:100A6000C695C370822BC23049F058F4C13019F0DA
:100A70000E948D0630CF0E9487062DCF0E949306DC
:100A80002ACF0E94840627CF8695112311F08C2F40
:100A90008170882309F41FCF4D2F429546954770EA
:100AA000440F440F8D2F8F70042E01C0880F0A94BD
:100AB000EAF72D2F2071D4FF07C02FE030E001C0EE
:100AC000220F4A95EAF72095C695C695C370822BEA
:100AD000C23049F058F4C13019F00E94DC06FBCE58
:100AE0000E94D606F8CE0E94E206F5CE0E949F062E
:100AF000F2CECF70112329F08C2F0E94B1068D2FDA
:100B00003CCF8D2F0E94F6038C2F0E94BD06E3CEB2
:100B1000D23F41F160F4D03FB9F0D13F81F01123D1
:100B200009F446C00111BDCE8C2F8F711FC0D33F79
:100B300001F1D43FA1F78091D00282FD24C08C2F17
:100B40008F71112311F312C0112341F0053008F009
:100B5000C2CE8C2F8F710E94CA06BDCE063008F01F
:100B6000BACEF7CF8C2F8F711111CFCF0E94B10663
:100B7000B2CE112329F08C2F8F710E94A806ABCE24
:100B80000E94A406A8CE112349F0CF718C2F0E9499
:100B9000B10663E08C2F0E94650B9DCE81E00E9420
:100BA000830B023008F497CE82E00E94830B93CE31
:100BB000002359F0D93309F010CFEFEFF7EE23E01F
:100BC000E150F0402040E1F706CF8C2F8F719DCF90
:100BD0000F931F93CF93DF93EC01688179818D810F
:100BE0000E9499078C010E94E8060E948306B801C2
:100BF000CE010E94FD03DF91CF911F910F910895C7
:100C0000CF93DF93EC018C81882399F0CE010E9471
:100C10006002811111C00E94C00A882351F08D81A9
:100C2000882339F08091D00282FF03C082E00E94C5
:100C3000830BDF91CF910895CE010E94E805CE018C
:100C40000E943B02F6CF90E080E00E943A1C90E0C8
:100C500080E00E945F1C0E94E70A0E94200B0E9415
:100C60002A150E940E1508950E94AF0A0E942306BD
:100C700008950E94D70A0E943406089592959F70A5
:100C8000963091F058F4925F9F70923058F4803F04
:100C900019F030F4883E30F481E008959A5FF4CF83
:100CA000843FD1F380E00895883EB0F3813FD1F7CF
:100CB000F3CFFC012481222339F0808191810E94AD
:100CC0008E070E943E06089580E00895A6E0B0E0F9
:100CD000ECE6F6E00C94BF272696E2E00C94DB27C6
:100CE000A7E0B0E0E6E7F6E00C94BF272796E2E045
:100CF0000C94DB2708950E947A0608950E947B06D3
:100D00008093D401089508950E947E0608959091DD
:100D1000D401892B0E947E0608959091D4018923E5
:100D20000E947E0608959091D40189270E947E0634
:100D300008950E947A0608950E94990608950E94D7
:100D40009C068093D301089580E00E949F06089539
:100D500091E001C0990F8A95EAF7892F0E949F06BA
:100D6000089521E030E001C0220F8A95EAF78091D2
:100D7000D301822B0E949F06089521E030E001C03C
:100D8000220F8A95EAF720958091D30182230E9451
:100D90009F06089521E030E001C0220F8A95EAF70E
:100DA0008091D30182270E949F0608959091D301DC
:100DB000892B0E949F0608959091D30189230E9458
:100DC0009F0608959091D30189270E949F06089558
:100DD0000895262F277091E001C0990F2A95EAF710
:100DE00023E0769567952A95E1F7FB01EE0FFF1F4B
:100DF000E60FF71FE40FF51F50E040E0682F70E0AA
:100E00008191DF0111979B01042E02C03695279531
:100E10000A94E2F7217021952827292328272C936B
:100E20004F5F5F4F4330510559F70895A82FA770C2
:100E300023E0969587952A95E1F7FC01EE0FFF1FB9
:100E4000E80FF91FE60FF71F50E040E080E0219126
:100E500030E00A2E02C0369527950A94E2F72170F9
:100E60003327042E01C0220F0A94EAF7822B4F5F2A
:100E70005F4F4330510559F70895262F983070F48D
:100E8000853060F4682F70E085E0989F600D711DDB
:100E9000112444EC51E0822F0E94E9060895292F85
:100EA000983068F4853058F490E064EC71E035E0F7
:100EB000239F800D911D11240E941607089580E044
:100EC0000895CF92DF92FF920F931F93CF93DF93FA
:100ED0006C010091D3018091D401082BC3E0D0E0D4
:100EE00010E0FC2EC8010C2E02C0959587950A943F
:100EF000E2F780FD0CC02197A0F7F12C8F2DDF9138
:100F0000CF911F910F91FF90DF90CF900895B60180
:100F10008C2F0E94760E019771F3F0CFCF93DF9361
:100F2000EC010E946107BE010E94760EDF91CF9115
:100F300008951F93CF93DF93EB019091C301992301
:100F400039F0CB010E948E07DF91CF911F91089558
:100F5000882369F0CB010E946107182F682FCE010A
:100F60000E943D07BE01812F0E94760EEDCFCB017E
:100F70000E944F07182FF6CFE1E0F0E0DF0102C03A
:100F8000AA0FBB1F6A95E2F7BD01DF0102C0AA0FDD
:100F9000BB1F4A95E2F76A2B01C0EE0F2A95EAF7CC
:100FA000962F9823961302C08E2B0895E0958E23DA
:100FB0000895242F462F682F8091D3010E94BC07EB
:100FC0000E949F0608951F93CF93DF93C091D50190
:100FD00017E08091D6018C1304C0DF91CF911F914F
:100FE0000895D0E01C9FF0011D9FF00D1124E952DF
:100FF000FE4F2081318142815381648175818681D8
:101000000E9470062196C770E4CF20910F023091A4
:1010100010024091110250911202609113027091DE
:101020001402809115020E9470060895CF93DF93F9
:1010300080911502807F09F04DC0809114028823B1
:1010400009F448C0E091D5015091D601C091100239
:10105000D0910F02609111027091120247E05E1769
:10106000C9F18E2F90E0E49FF0011124E952FE4F68
:101070002481222391F1489FF001499FF00D112412
:10108000DF01A952BE4F11962C9111972C1325C048
:101090002C912D1322C015962C91159721111DC04E
:1010A00012962D913C91261B370B283C3105A8F454
:1010B000809115028F70806180931502E352FE4F7C
:1010C00080818F70806180838FE092E00E940006B3
:1010D0000E94E307DF91CF910895FC013196E770FC
:1010E000BECF482F2091D5019091D60157E029130A
:1010F00002C080E0089530E0529FF001539FF00D50
:101100001124E952FE4F8181681306C08081481383
:1011100003C085818111EECF2F5F3F4F2770E7CF4E
:10112000A4E1B0E0E6E9F8E00C94B5278C0186E094
:10113000F801DE011F9601900D928A95E1F7F80102
:101140008481E5809FE0A92E92E0B92E9091130250
:1011500091111FC08823D1F0EE20A9F0C8010E9490
:101160005906F82E882379F087E0F801D50101901F
:101170000D928A95E1F7C5010E943B030E94160873
:101180000E9405085FC0C8010E940006FF24F39476
:1011900059C0C080D18082809380F0901402209149
:1011A000110230911202A401421B530BFF2009F4DB
:1011B000F9C0483C510508F0A7C0882309F442C093
:1011C0009091100280911502282F207F09F05CC0B9
:1011D0009D1116C090910F02C91212C0E1104EC0AD
:1011E0008F708061809315020E9405088FE092E065
:1011F0000E94000680911502F8018683F12C22C01E
:10120000E1103CC06D2D8C2D0E9471086D2D8C2D30
:101210000E947108E82E8111F1CFCF86D88A8F8580
:1012200098890E948E07292F22952F70243078F4F8
:101230009F702230A8F09923B9F0F8019681907F31
:1012400099F4FE2C8F2D6496ECE00C94D1272A5F44
:101250002F70223068F0C8010E940006EF2CF1CFF9
:10126000992311F0882369F3805E883050F3F3CF1F
:10127000803F38F3815F833070F7E3CF80911502B0
:10128000816080931502BACF9D1113C090910F0217
:10129000C9120FC0E1100DC08683C8010E9400066C
:1012A00087E0F801AFE0B2E001900D928A95E1F796
:1012B00067CFC8010E945906882309F464CFEE2045
:1012C00009F461CF80911502803288F020910F02DD
:1012D00030911002398728879B868A869091130265
:1012E0009C871D868E87CE0108960E94000687E0A7
:1012F000F801AFE0B2E001900D928A95E1F70E940B
:1013000016080E94050842CF90911502292F207FD0
:10131000A1F4682D9A8A898AA6017A899E2D0E9455
:1013200066068FE092E00E94000687E0F5011192C8
:101330008A95E9F70E94050861CF882309F482CFD6
:10134000809110028D1110C080910F02C8120CC044
:10135000E1100AC09683C8010E94000687E0F501EB
:1013600011928A95E9F76ECFC8010E945906882329
:1013700009F409CFEE2009F406CF809115028032DE
:1013800008F4B5CF20910F02309110023A832983DF
:101390009C828B82909113029D831E828F83CE014B
:1013A0000196A3CF483C5105B8F5882309F4EECE49
:1013B000FE2CEE2009F4E7CE809110028D111EC0A4
:1013C00080910F02C8121AC08091150280FD0DC0D5
:1013D000982F907F51F08683903F09F45ECF982F2D
:1013E000907F905F8F70892B57CF87E0F801AFE037
:1013F000B2E001900D928A95E1F724CFC8010E94D6
:101400005906811174CF8091150281608093150275
:10141000C8010E94000616CF682D9A8A898AA60103
:101420007A899E2D0E94660687E0F50111928A95C1
:10143000E9F7A6CEAEE0B0E0E0E2FAE00C94BE2719
:10144000288739874A875B876C877D878E87CE019F
:1014500008960E9490088823B1F06C85662341F0BD
:10146000288539854A855B857D858E850E94700635
:1014700017E08091D5019091D60189133DC02E9639
:10148000E3E00C94DA2787E0FE013896DE0111963E
:1014900001900D928A95E1F78C85882349F320917C
:1014A000D60130E0C9010196877099274091D50196
:1014B0004817190699F097E0929FD001939FB00DBD
:1014C0001124A952BE4FFE01319601900D929A95BA
:1014D000E1F78093D6010E94E307CACF0E94390644
:1014E0001092D6011092D50187E0EFE0F2E0DF0123
:1014F0001D928A95E9F7BCCF819FC00111248952C2
:101500009E4F0E949008882309F4B9CFE091D5013D
:101510001E9FF0011124E952FE4F2081318142814A
:1015200053816481758186810E9470068091D50106
:1015300090E00196877099278093D5019ACF682F04
:1015400080910001909101010E94181D0895682F5B
:1015500080910001909101010E94261D08958091C3
:101560000001909101010E94341D0895809136027E
:1015700086958695869508958091360287700895A0
:1015800090913602977081E009F480E0089580918F
:101590005A02089590915A02892B80935A02089515
:1015A000809590915A02982390935A020895109230
:1015B0005A02089590915902892B809359020895F7
:1015C0008095909159029823909359020895109212
:1015D0005902089508950E94EA0A089590913702E9
:1015E000292F282331F080958923809337020E9488
:1015F000EB0A089508950E94FA0A0895909138021E
:10160000292F2823281729F0982B909338020E941D
:10161000FB0A089590913802292F282331F08095F4
:101620008923809338020E94FB0A08958091380232
:10163000882329F01092380280E00E94FB0A089566
:10164000CF93DF93E0910001F091010180915A0264
:101650008083E0910001F091010180819091590215
:10166000892B808390913802992381F0E0910001C9
:10167000F09101018081892B8083809100019091FC
:1016800001010E94841C81110E94160BC09100016F
:10169000D091010140E250E066E172E0CE010E948B
:1016A000FA27892B59F080E2FE01A6E1B2E0019011
:1016B0000D928A95E1F7CE010E94121CDF91CF9125
:1016C000089508950E94610B08959091D00292FFB1
:1016D00011C098E0899F90011124622B609336021B
:1016E0000E94B106809136028695869586950E9465
:1016F000620B08950E94B10608951092360280E0B0
:101700000E94620B08959091360280958923809300
:101710003602282F277069F4891759F09091D0026A
:1017200092FF07C08695869586950E94BD060E9409
:101730007D0B08959091D00292FB222720F9281763
:1017400069F080FB92F99093D0028091CF02909142
:10175000D0020E94E30B82E00E94830B08958091E7
:10176000D00282FB882780F991E089270E949A0B9A
:10177000089581E00E949A0B089580E00E949A0BE0
:1017800008956FEF7FEF90E080E00E944C2808956D
:1017900090E080E00E941828863E9E4F19F40E9437
:1017A0003A16089580E0089582E090E00E941028A3
:1017B000089583E090E00E941028089584E090E06E
:1017C0000E9418280895BC0184E090E00E944C28F3
:1017D0000895AB01BC018FE090E00E94402808957D
:1017E000AB01BC0183E190E00E944028089560E0D5
:1017F00070E0CB010E94F00B089560E070E0CB0137
:101800000E94E90B0E94F70B0895A8E0B0E0EBE01E
:10181000FCE00C94BF2766EE7EEF90E080E00E9433
:101820004C2860E082E090E00E942E2860E083E097
:1018300090E00E942E281092D40160E074E184E0D0
:1018400090E00E944C2860E086E090E00E942E2804
:101850006FEF87E090E00E942E2840E050E0BA0150
:1018600088E090E00E94402860E084E290E00E94DE
:101870002E2860E087E190E00E942E2860E08CE056
:1018800090E00E942E2860E08DE090E00E942E28DB
:1018900019821A821B821C821D821E821F82188658
:1018A00048E050E068E170E0CE0101960E941E28F9
:1018B00040E050E0BA0180E290E00E94402880E0E1
:1018C0000E9453160E9482160E94FD0B2896E2E0A9
:1018D0000C94DB270E94050C0895682F8EE090E0A1
:1018E0000E942E280895A6E0B0E0E9E7FCE00C9401
:1018F000BD270E94181E8C0180915B0290915C02B2
:101900008017910781F019821A820E94181E682F91
:1019100049815A81792F80E090E00E940B03109357
:101920005C0200935B022696E4E00C94D9270E94A7
:10193000920F6093690270936A0280936B02909396
:101940006C026093650270936602809367029093C5
:1019500068020895089508950E94AA0C08950895B4
:101960000E94AF0C089581E008958CEA9FE00E94E8
:10197000B1130E94AB0C0E94AC0C08950E94981108
:101980000895089508950E94C10C0E94C20C089504
:101990000E94CB0F0E94DF0208950E940F1E0E943A
:1019A0006C0F0E9492160E94B3110E94F9100E94BF
:1019B000C80C0E9487170E94BD110E94B00C0895A8
:1019C000A6E0B0E0E6EEFCE00C94B6270E94B30C73
:1019D00081110CC00E94730C0E9498110E944C153A
:1019E0000E94F2022696EBE00C94D2270E941C1172
:1019F0008DE5A82E82E0B82E750110E0F701019167
:101A00007F01812F0E94EE0F1F5F183009F441C043
:101A10000817A1F380916D0281FD0E94F40F0E94CE
:101A2000BE0CC82E10E099249394812F0E94EE0FD3
:101A3000082FF50181915F01081729F1D02ED826D2
:101A4000F12CEE24E3948D2D8E21A9F0CC2099F079
:101A5000F9821A830E94181E9C838B839D8291E0D9
:101A6000802F8E2109F490E049815A816B817C811D
:101A70008D810E940B03F394EE0CF5E0FF12E3CF8F
:101A8000F501319700831F5F183079F60E94970C9B
:101A9000A3CF0813BFCF9ECF1F93CF93DF930E9496
:101AA0007B0EEC01C11580E5D807F0F5C11580E487
:101AB000D80708F09CC0C03ED10520F5CD3CD1052B
:101AC00008F082C0C83AD10578F4C53AD10508F0CB
:101AD00073C0C130D10519F1209709F1C430D10587
:101AE000F0F4D0E0C0E01BC0C33CD105D0F7C85A29
:101AF000D0E0CC0FDD1FC859DE4F0990D881C02D32
:101B0000D4640DC0C11580E2D80708F0D1C0C1155A
:101B100081E0D80708F05AC0C83ED10510F7CE01C1
:101B2000DF91CF911F910895C03682E5D80718F54F
:101B3000C03482E5D80708F06BC0C03282E5D80710
:101B400008F05FC0C11582E5D80708F497C02C2FB4
:101B50002695269580E2289F900111248C2F837072
:101B6000C1E0D0E002C0CC0FDD1F8A95E2F7C22BA6
:101B7000D32BDD68D4CFC03A82E5D80760F4C038F3
:101B800082E5D80708F459C0CF71D0E0DC2FCC270C
:101B9000C46FD06AC4CFC03C82E5D80708F462C0E5
:101BA000C03E82E5D80708F09CCFDC2FCC27CC279D
:101BB000DF71C06FD06AB3CFC55AD0E0C256DE4FD6
:101BC000C881D0E0D064ABCFD065A9CF8D2F0E9463
:101BD0001D0F182FCE0199270E947B0EC12FD0E038
:101BE000DC2FCC27CC27DF71C82BD92B98CFCE0187
:101BF00099270E947B0ECC27DF70C82BD92BD06A87
:101C00008ECFCF71D0E0DC2FCC27C16FD06A87CFC9
:101C10002C2F26952695277080E2289F900111246D
:101C20008C2F8370C1E0D0E002C0CC0FDD1F8A95FD
:101C3000E2F7C22BD32BDC6872CF2C2F269526958A
:101C4000277080E2289F900111248C2F8370C1E0BF
:101C5000D0E002C0CC0FDD1F8A95E2F7C22BD32B58
:101C6000DA685DCF8C2F8F710E941D0FC82FD0E0D6
:101C7000DC2FCC27CC27DF71D06251CF8C2F8F7116
:101C80000E941D0F55E0D695C7955A95E1F7CF7084
:101C9000D0E0DC2FCC27282F30E084FF05C044E0C3
:101CA000220F331F4A95E1F7C22BD32BD06937CFD0
:101CB0008D2F8F710E941D0F182FCE0199270E9422
:101CC0007B0EC12FD0E0DC2FCC27CC27DF71C82BB7
:101CD000D92BD2CF462F783030F4653020F4672FDF
:101CE0000E94F619089590E080E008950E946A0E1F
:101CF0000E944C0D089582389105B9F1B0F48133FA
:101D0000910509F47DC048F48932910509F46DC04C
:101D10008A32910509F47BC008958533910509F451
:101D20005FC08933910509F10895833E9105D9F18A
:101D300038F4803E910529F1823E910579F10895AC
:101D4000863E9105D9F1873E910509F43EC0843E57
:101D5000910541F52091D00221FF24C08091CF024E
:101D600084FD19C087EE90E008952091CF02237082
:101D700009F05AC02091D00223FF14C089E290E0FC
:101D800008952091CF0220FD38C03091D00230FF5D
:101D900009C024FF43C090E080E008952091CF0265
:101DA00022FDF7CF08952091CF0222FD3AC0309155
:101DB000D00230FD39C024FFF5CFEDCF2091CF0206
:101DC00023FFF0CF24FDE7CFCDCF2091CF0223FD1D
:101DD0002EC03091D00231FFEECF84EE90E0089516
:101DE0002091CF0225FFDECFC9CF2091CF0225FD64
:101DF00021C02091D00223FFD5CF89E390E0D2CF3C
:101E00002091CF0226FFCECF8AE290E00895209164
:101E1000CF0226FFC7CF81E390E0089583EE90E0E4
:101E2000089582EE90E0089580EE90E0089586EEA9
:101E300090E0089585E390E008959091CF0292FF9D
:101E400010C041E0282F2471243009F040E031E037
:101E5000282F2871283009F030E0431711F02CE0CA
:101E6000822793FF10C041E0282F2471243109F00C
:101E700040E031E0282F2871283109F030E0431785
:101E800011F02CE082273091D00230FF10C051E0D9
:101E9000282F2171213009F050E041E0282F2871CE
:101EA000283009F040E0541711F029E0822731FF73
:101EB00010C041E0282F2171213109F040E031E0CC
:101EC000282F2871283109F030E0431711F029E05C
:101ED000822794FD877E08951092CB021092CC0247
:101EE0001092CD021092CE020895CF92DF92EF921F
:101EF000FF926B017C010E94981181110EC00E941B
:101F0000241EC61AD70AE80AF90AC092CB02D09258
:101F1000CC02E092CD02F092CE02FF90EF90DF90E3
:101F2000CF9008950F931F930E949811882329F052
:101F30000E94241E1F910F9108950E94241E00915B
:101F4000CB021091CC022091CD023091CE02600FD5
:101F5000711F821F931FEECF80E008950E94C10B76
:101F600008950E941C112FEF86E791E021508040D8
:101F70009040E1F700C000000E941C1180E00E9428
:101F8000EE0F80FF04C00E94AE0F0E947F1E0895D6
:101F90000E94B10F08950E94C80B811102C00E94D7
:101FA0006A0C0E94D40B80936D020E94DE0B90930A
:101FB000D0028093CF020E94C80F0E94D90B0E94CA
:101FC00084068091D3010E949C06089508950E9482
:101FD000E60F089508950E94EA0F0895E82FF0E0B3
:101FE000E652FD4F80810895089580EA8A95F1F7C1
:101FF000089500C008950E94F50F089508950E9465
:10200000FE0F0895EF92FF921F93CF93DF9300D0BE
:1020100000D0CDB7DEB70E949811182F6091E20270
:10202000882309F447C019821A821B821C82862FDA
:1020300090E09E012F5F3F4F7901B90186529D4F7D
:102040000E94CB118823E9F08091D10290E044E016
:1020500050E0B70186529D4F0E94FA2721E020935D
:102060006E02892BC9F410E00E94EB0F812F0F90B4
:102070000F900F900F90DF91CF911F91FF90EF90F5
:10208000089580916E02882371F384E0F701119224
:102090008A95E9F710926E02E091D102F0E0E652E3
:1020A000FD4F89819A81AB81BC8180839183A2831A
:1020B000B383DACF70E066527D4F8091D10290E019
:1020C00086529D4F0E9452120E94FF0FCFCFF8946C
:1020D000E82FE295EF70F0E031A1282F2F7081E01A
:1020E00090E001C0880F2A95EAF7982F90959323E6
:1020F00091A392A1892B82A378940895CF93DF9323
:1021000084EF0E94671085EF0E94671086EF0E949F
:10211000671087EF0E946710C1EAD1E089918F3F75
:1021200011F00E94671081E0C63AD807B9F7DF9135
:10213000CF910895B0E0A0E0E0EAF0E10C94B92777
:10214000EC01D62E062F10E0C8018A559E4F7C0167
:10215000FC0180818F3F09F445C0F894E82FE29597
:10216000EF70F0E091A18F7021E030E001C0220F0C
:102170008A95EAF7892F822B81A382A120952823B3
:1021800022A378940E94F90FE1EAF1E046EA51E0D7
:1021900031E0C12C21912F3F51F1A22FA295AF70B8
:1021A000B0E090968C9190E02F7002C09595879545
:1021B0002A95E2F780FD1BC0832FC82A330F4E17E4
:1021C0005F0741F7F70180818F3F11F00E94671090
:1021D00061E0C11001C060E08D2D0E94FB0FC00FB7
:1021E000D11FC882CDB7DEB7E8E00C94D52780E0D8
:1021F000E4CF809102018091020194E0811190E08E
:102200009093E20284E0891B8093D1020E947E10A9
:1022100088E0EAEDF2E0DF01982F1D929A95E9F748
:10222000E2EDF2E0DF011D928A95E9F784E00E9479
:102230005A110E94E70F0895A8E0B0E0E2E2F1E150
:102240000C94BC278E010F5F1F4F88E0F80111929C
:102250008A95E9F7F12C6F2DC8010E949A10F3942A
:10226000F4E0FF12F8CF48E050E0B80182ED92E0D0
:102270000E94FA2721E0009709F420E0892B41F021
:1022800088E0F801A2EDB2E001900D928A95E1F7A5
:102290006091E20270E066527D4F44E082ED92E090
:1022A0000E945B11182F0E940210812B2896E5E0F6
:1022B0000C94D8270895CF92DF92EF92FF920F935C
:1022C0001F93CF936C017B01042F222349F081E0FF
:1022D000809371020E94181E9093700280936F0287
:1022E000C0917102C1110AC0C0E08C2FCF911F9123
:1022F0000F91FF90EF90DF90CF90089580916F0243
:10230000909170020E94301E059770F310E0A801B2
:10231000B601C7010E94FA27892B41F0A801B60136
:10232000C7010E94072810927102DFCFC0E0FBCFE7
:1023300080917402811107C00E948127882351F087
:1023400081E08093740281E090917402913009F0F1
:1023500080E0089582E0809374020E947C27F3CF8E
:102360000E94981108950E94B011809302010E946A
:10237000981181110E94011208950E9498118111F3
:1023800002C00E940412089581E0909175029A3073
:1023900008F080E008950F931F93CF93DF93EC0133
:1023A0008B01809175028A30B8F4B801CE010E9489
:1023B0004F12C82F811122C0809175028F3FB9F44E
:1023C0000E94181E90937302809372028C2FDF91EB
:1023D000CF911F910F910895809172029091730295
:1023E0000E94301E843F914000F7C0E0EFCF8F5F26
:1023F000809375028A3020F7C1E0E8CF1092750211
:10240000E5CF0E94F51E08950E94F81E0895B0E0E1
:10241000A0E0EDE0F2E10C94BA277901C82F880F13
:10242000DD0B41155105A9F0FE0193E0EE0FFF1FF2
:102430009A95E1F7ED5FFE4F818192818A589D4F19
:10244000208130E04217530708F49A01A9010E9445
:102450000728CE010E94E11FD82E8823D1F0011554
:102460001105B9F083E0CC0FDD1F8A95E1F7FE017D
:10247000ED5FFE4F438150E00417150708F4A801F3
:10248000CD5FDE4F6C817D816A587D4FC7010E9410
:1024900007288D2DCDB7DEB7E7E00C94D6270E9434
:1024A000491308950E9460130895A4E0B0E0EBE59D
:1024B000F2E10C94BD2760918B0270918C028091A7
:1024C0008D0290918E020E943F1E11E064367105CC
:1024D0008105910518F10E94920F6E5F7F4F8F4F1B
:1024E0009F4F69837A838B839C8310E000E030E008
:1024F00020E044E050E0BE016F5F7F4F82E00E9429
:102500000712182F882351F00E94241E60938B021B
:1025100070938C0280938D0290938E02812F24966B
:10252000E4E00C94D927B0E0A0E0E9E9F2E10C94F2
:10253000B7277C015B016A010E94C41101E010E031
:10254000882311F00AE010E0C1E0D0E0B501C70136
:10255000F6010995811104C021960C171D072CF472
:10256000CDB7DEB7EAE00C94D327CC9F9001CD9F86
:10257000300D300D112490E080E045E34A95F1F7ED
:102580000000019682179307C1F7E0CFA5E0B0E005
:10259000ECECF2E10C94B7275B01E090AA01F0901B
:1025A000AB0101E010E09E012B5F3F4F50E040E0A7
:1025B00070E060E080E00E940712182F882309F481
:1025C0004BC067018FEFC81AD80A609187027091DB
:1025D00088028091890290918A020E943F1E64368F
:1025E00071058105910580F104E010E09E012F5FE7
:1025F0003F4F50E040E070E060E081E00E94071251
:10260000F82E64E070E0C6010E94881711E09D81F9
:10261000981310E01F2159F10E94241E6093870235
:10262000709388028093890290938A0289819A81AB
:10263000AB81BC818093830290938402A093850236
:10264000B093860211E013C064E070E0C6010E94FE
:1026500088179D818913C8CFF70181819281A38159
:10266000B48189839A83AB83BC831111DFCF8091BE
:10267000830290918402A0918502B0918602F501B7
:1026800080839183A283B383812F2596EAE00C9403
:10269000D3270F931F93CF93DF93EC018B0146EC6D
:1026A00052E10E949312882331F045E552E1B801CE
:1026B000CE010E949312DF91CF911F910F91089547
:1026C0000F931F93CF93DF93C091AA01D091AB01D9
:1026D000CE01019624E0FB01DC0101900D922A95C8
:1026E000E1F764E070E00E94881788836D817E8145
:1026F0008F81988500917F02109180022091810244
:1027000030918202601771078207930751F060933E
:102710007F027093800280938102909382020E94D4
:10272000750FDF91CF911F910F9108950E94D621CF
:102730000E94CD0C0E94E32108950E94E8210E948E
:10274000E00C0E94022208950E94B11D0E94BC214B
:102750000E94B50C0E9496130E949D130E94C30C08
:10276000FBCF9093BD018093BC010895282F35EBDA
:102770002303C001112497FF04C080589109892FB9
:10278000089580589F4FFBCF8091950280FF0DC028
:102790006091200170E0660F771F6038710570F559
:1027A0006115710569F1862F089581FF07C0609159
:1027B000200184E0689FB0011124EFCF60912001D7
:1027C00082FD0AC0809194028823A9F020911F0104
:1027D00060912001821710F088E0ECCF869FC00145
:1027E000112433E0880F991F3A95E1F7622F70E0CA
:1027F0000E948E27D2CF68E070E0D5CF8FE7089592
:1028000081E008958091950280FF0CC060911C01C9
:1028100070E075956795759567956115710549F136
:10282000862F089581FF06C060911C0170E07595A8
:102830006795F3CF60911C0182FD0BC090919302CC
:102840009923A1F060911B0180911C01961738F02B
:10285000682F70E06038710500F38FE70895899F55
:10286000C001112470E00E948E27F4CF61E070E077
:10287000D7CF81E008958D3C31F40E94C413819537
:102880008093990208958E3C19F40E94C413F8CFE6
:102890008F3C31F40E94C41381958093980208956F
:1028A000803D19F40E94C413F8CF893D29F40E9499
:1028B000021480939A0208958A3D21F40E94021422
:1028C0008195F7CF8B3D31F40E940214819580935E
:1028D0009B0208958C3D19F40E940214F8CF9FE2E8
:1028E000980F983070F4815D990B21E030E001C0C1
:1028F000220F8A95EAF780919702822B80939702A4
:1029000008958D3D31F48091950281608093950208
:1029100008958E3D21F4809195028260F7CF8F3D1E
:10292000B9F7809195028460F1CF409198028D3C77
:1029300059F48091990287FF0DC0109299024111BC
:102940000BC01092940208C08E3C81F480919902D1
:1029500018169CF3442381F080919A0290919B0277
:10296000892B09F05AC01092930208958F3C49F4C4
:1029700047FFF0CF10929802809199028111ECCF1D
:10298000E0CF803D19F41416ACF3E4CF90919A0295
:10299000893D29F41916F4F610929A02DBCF8A3D8C
:1029A00019F497FFD7CFF8CF90919B028B3D29F474
:1029B00097FFD0CF10929B02CDCF8C3D19F4191602
:1029C000CCF3C8CF9FE2980F983090F4815D990BBB
:1029D00021E030E0B90102C0660F771F8A95E2F767
:1029E000CB01809590919702892380939702B2CF73
:1029F0008D3D31F4809195028E7F80939502AACF10
:102A00008E3D21F4809195028D7FF7CF8F3D09F0A7
:102A1000A1CF809195028B7FF0CF08950E94181E60
:102A20009C019091980280919902982B21F030930B
:102A300092022093910290919A0280919B02982B8E
:102A400021F03093900220938F0286E992E00E9459
:102A50002C1C089586E0E6E9F2E0DF011D928A95DC
:102A6000E9F7109294021092930210929502089541
:102A7000FC01828181110EC0838181110BC0848190
:102A8000811108C091E08581811101C090E0892FFA
:102A90008170089581E0FCCFA6E0B0E0E2E5F5E1C9
:102AA0000C94BE2786E0E6E9F2E0DE011196019083
:102AB0000D928A95E1F71092980210929902109265
:102AC0009A0210929B028B819C81892B89F08091C4
:102AD0009102909192020E94301EAC01909194025A
:102AE0009923C9F1809121018417150608F440C08B
:102AF0008D819E81892B91F080918F02909190021F
:102B00000E94301EAC0190919302992309F46AC08F
:102B100080911D018417150608F472C0BE016F5F15
:102B20007F4F86E992E00E94461D811105C086E92B
:102B300092E00E94381581110E940E1586E0FE0178
:102B40003196A6E9B2E001900D928A95E1F72696BA
:102B5000E3E00C94DA27209122018AE0289F90017B
:102B600011242417350720F69F5F9093940202C02A
:102B70009F3FD1F71B81112359F00E94C4139FEF8F
:102B800011160CF491E0899F802D112480939802F6
:102B90001C81112359F00E94C4139FEF11160CF4ED
:102BA00091E0899F802D1124809399028091980251
:102BB000882309F49DCF10919902112309F498CF2D
:102BC0000E94B613882351F080939802812F0E94AF
:102BD000B613882329F0809399028ACF81E0F4CF3D
:102BE00081E0F9CF20911E018AE0289F90011124F5
:102BF0002417350708F092CF9F5F9093930202C08D
:102C00009F3FD1F71D81112359F00E9402149FEFBD
:102C100011160CF491E0899F802D112480939A0263
:102C20001E81112359F00E9402149FEF11160CF41B
:102C300091E0899F802D112480939B0280919A02BC
:102C4000882309F46BCF10919B02112309F466CFFE
:102C50000E94B613882351F080939A02812F0E941C
:102C6000B613882329F080939B0258CF81E0F4CFDC
:102C700081E0F9CF85E290E00E941028833289F448
:102C800086E290E00E941028893059F487E290E0B3
:102C90000E94102891E0833109F090E0892F817023
:102CA000089580E0FCCFCF93C82F6FEF811163E2CE
:102CB00085E290E00E942E286FEFC11169E086E264
:102CC00090E00E942E286FEFC11163E187E290E04F
:102CD0000E942E28CF910895089588E290E00E94E6
:102CE0001028682F70E090E080E008950895CF9359
:102CF000C62F0E9476166C2F88E290E00E942E2844
:102D0000CF91089580E00E94531660E070E0CB01FF
:102D10000E9477160E948E190E94511A81E00E942B
:102D2000531608950E946C160E946D160E94761626
:102D30000E943A16811102C00E94821608950895D9
:102D40009C01FB018581882351F0A9015757403828
:102D5000510530F4822F0E94611A80E0089581E0CD
:102D600008952FEFFC01208308950E94B116089565
:102D700080E00895B0E0A0E0E0ECF6E10C94B92723
:102D8000EC01E62E0E94B816811110C0E881E150D6
:102D9000E331B8F4F0E0E059F74D0C94A227198222
:102DA0008CE08A836E2DCE010E94B020CDB7DEB7B5
:102DB000E8E00C94D52789818230C1F028F4813075
:102DC00061F08FEF8883EECF833099F08430C9F7BC
:102DD0001A821B821C821D82E5CF0E94241E0E9443
:102DE000A8276A837B838C839D83DCCF0E946D162A
:102DF000F6CF8A81082F10E06E0193E0C90ED11C36
:102E00009CE1F92EF80E0830110560F6802F0E9423
:102E1000EE0FF60181936F010F5F1F4FF012F3CF9A
:102E2000C1CF8981823031F0853059F68A810E9484
:102E30009F16B8CF6A817B818C819D810E94A827D3
:102E40000E947716AFCF4B816A8189810E94501909
:102E50009827892798279D838C83A4CF2C813D8137
:102E60003227232732274B816A8189810E94721978
:102E700099CF0E948E1996CF6E2DCE010E94B51665
:102E800091CF0E94021A89838DCF0E94041A98273D
:102E9000892798279A83898385CF6B8170E0898100
:102EA0009A81AE014C5F5F4F9827892798270E942F
:102EB000071A78CF6B8170E089819A81AE014C5FEF
:102EC0005F4F9827892798270E942C1A6BCF0E9462
:102ED000511A68CF0E943E19D6CF6B8170E089816C
:102EE0009A81AE014C5F5F4F9827892798270E94EF
:102EF000AE1958CF6B8170E089819A81AE014C5F29
:102F00005F4F9827892798270E94D2194BCF0895A1
:102F1000FC01680F791F8FEF91E36E177F0709F4AB
:102F200008952191822728E030E087FF06C0880FAE
:102F3000892721503109C9F7F0CF880FFACFCF93F5
:102F4000DF93EC01FB018581882309F4D2C09E0147
:102F500030572332310508F0B2C00E94DE0B909347
:102F6000D0028093CF02FE01E150F047E232F1053A
:102F700020F4ED57F74D0C94A2278091CF02816089
:102F80008093CF0293C08091D00288608093D0025A
:102F90008DC08091CF028260F3CF8091CF02846098
:102FA000EFCF8091CF028860EBCF8091D00281601B
:102FB000EDCF8091D0028260E9CF8091CF02806115
:102FC000DFCF8091CF028062DBCF8091CF0280641F
:102FD000D7CF0E9439068091CF028068D1CF8091EF
:102FE000CF028C60CDCF8091D0028360CFCF809113
:102FF000CF028E7FC5CF8091D002877FC7CF8091CF
:10300000CF028D7FBDCF8091CF028B7FB9CF8091D2
:10301000CF02877FB5CF8091D0028E7FB7CF8091CE
:10302000D0028D7FB3CF8091CF028F7EA9CF8091C8
:10303000CF028F7DA5CF8091CF028F7BA1CF0E9441
:1030400039068091CF028F779BCF8091CF02837F0B
:1030500097CF8091D0028C7F99CF8091CF0282FB55
:10306000992790F921E0922790FB82F990FB83F950
:1030700087CF8091D002982F909591708E7F892B69
:1030800090FB81F983CF9091CF02892F8F7B96FFA0
:10309000806476CF0E9439069091CF02892F97FBEA
:1030A00087F980586DCF81E00E946D0C8091CF022E
:1030B0009091D0020E94E30B0E94390680E0DF91DC
:1030C000CF91089580E0F0CF9091CF02892F8F7E2D
:1030D00094FF806155CF9091CF02892F8E7F90FF12
:1030E00081604ECF9091D002892F877F93FF8860B7
:1030F0004DCF81E0E4CFB0E0A0E0E1E8F8E10C944E
:10310000BA27E82FF0E0E450FF4FD490282F2695FF
:103110002695269530E0F901E456FE4F049187701C
:1031200010E0082E02C0159507950A94E2F7017089
:103130001127F901E457FE4FE490F12C082E02C04C
:10314000F594E7940A94E2F791E0E922FF24F9016B
:10315000E458FE4FC491D0E002C0D595C7958A953A
:10316000E2F7C170DD270115110519F081EE0E940B
:103170004E03E114F10419F086EE0E944E038D2DEA
:103180000E94E603E114F10419F086EE0E949B030D
:103190000115110519F081EE0E949B03CD2B19F04A
:1031A0008CE20E94E603CDB7DEB7E7E00C94D627A9
:1031B000EF92FF920F931F93CF93DF93EC01162FA3
:1031C0000AE08881882309F454C0813009F04EC098
:1031D0008981813099F47E0122E0E20EF11C8A811E
:1031E0000E94E603E7012196812F815050F3EFE919
:1031F000FFE03197F1F700C00000F7CF823041F4D3
:103200007E0182E0E80EF11C8A810E944E03EACF23
:10321000833041F47E01E2E0EE0EF11C8A810E94CF
:103220009B03E0CF843011F02196DDCF2A812296D6
:1032300090E080E0AE014F5F5F4F2053330B2A30A8
:10324000310548F0019778F2EFE9FFE03197F1F7A7
:1032500000C00000F7CF089FB001099F700D112436
:10326000C901860F971F2981EA01E4CF0E947B18CC
:10327000BACFCDB7DEB7E6E00C94D72784E0089547
:1032800050E0440F551F9AE0699F400D511D1124D5
:1032900090E5899F400D511D1124CA01899608951A
:1032A0000F931F93CF93DF938430C8F46830B8F442
:1032B0004530A8F40E9440198C010E941028C82FA4
:1032C000D0E0DC2FCC27C80101960E9410289E0177
:1032D000282BC901DF91CF911F910F91089590E0A4
:1032E00080E0F8CF0F931F93CF93DF93122F032F1C
:1032F000843078F4683068F4453058F40E944019FE
:10330000EC01602F0E942E28612FCE0101960E94B1
:103310002E28DF91CF911F910F9108951F93CF9386
:10332000DF93D0E0C0E011C0412F6C2F8D2F0E94A1
:10333000CE019C01412F6C2F8D2F0E9472191F5FAF
:10334000153091F7CF5FC83011F010E0EDCFDF5F9F
:10335000D43041F7DF91CF911F910895EF92FF9202
:103360000F931F93CF93DF93EC018A017C01E60E4C
:10337000F71ECE018996CE15DF0529F4CDB7DEB74D
:10338000E6E00C94D727C03421E0D20740F40E9435
:103390001028F80180830F5F1F4F2196EACFF801B4
:1033A0001082F9CFB0E0A0E0E8EDF9E10C94B92784
:1033B0007C016A018C01060F171FEC01CE01899672
:1033C000C017D10729F4CDB7DEB7E8E00C94D527B4
:1033D000C03421E0D20740F4FE01EE19FF09EC0DE4
:1033E000FD1D60810E942E282196E8CF843038F49C
:1033F000683028F4453018F40E945019089590E080
:1034000080E0089580E1089587E992E00895EF92C1
:10341000FF920F931F93CF93DF93EC018A017C01FE
:10342000E60EF71ECE0187599E4FCE15DF0529F413
:10343000CDB7DEB7E6E00C94D727C73922E0D20734
:1034400040F40E941028F80180830F5F1F4F2196DF
:10345000E9CFF8011082F9CFB0E0A0E0E2E3FAE1B1
:103460000C94B9277C016A018C01060F171FEC012F
:10347000CE0187599E4FC017D10729F4CDB7DEB7CB
:10348000E8E00C94D527C73922E0D20740F4FE01CA
:10349000EE19FF09EC0DFD1D60810E942E2821967A
:1034A000E7CFCF93DF93C9E6D1E060E0CE010E9481
:1034B0002E282196C11584E0D807B9F7DF91CF9166
:1034C0000895A8E0B0E0E7E6FAE10C94B727F82EFB
:1034D0008FE08F1508F46EC08FEF93E00E941028E4
:1034E000811168C009E611E0F11035C0FE01319686
:1034F0006F0188E011928A95E9F77801FFEFEF1AE2
:10350000FF0AC8010E94102889831A82882309F4BF
:1035100051C08130D1F4580182E0A80EB11CC7011E
:103520000E9410288A83882309F444C09FEF980FD3
:103530009330F0F4780193E0E90EF11CC5010E948C
:1035400010288B838823B1F11C8260E0C6010E94A1
:10355000D8188701D2CF011594E0190759F1C80195
:103560000E941028811101C0FA940F5F1F4FBCCF39
:103570007501843051F702E010E07501EFEFEE1AAB
:10358000FE0AC5010E941028F601E00FF11F80839A
:10359000882381F08C3741F4E2E0F0E0EC0FFD1F6E
:1035A000E00FF11F1082D1CF0F5F1F4F570107307F
:1035B000110519F72896EAE00C94D327CF93DF93EF
:1035C000EB0186319C4711F50E94C70A9D81992322
:1035D00099F08A7A91E009F490E090939C0281112D
:1035E00009C089E20E949F0A0E94200B80E0DF91BF
:1035F000CF91089585E3F6CF80919C02811104C09C
:1036000089E20E94A70AF0CF85E3FBCF81E0EFCFEC
:103610000F931F93CF93DF93C42FD22FFC0185818B
:103620008823C9F040939F020E94181E90939E0227
:1036300080939D0280E28C0F883040F4C77081E057
:1036400001C0880FCA95EAF70E94EF03DF91CF917E
:103650001F910F91089510919F02141332C0809111
:103660009D0290919E020E94301E883C910548F573
:10367000C0E2CD0F1D17B9F080E2810F883040F411
:10368000177081E001C0880F1A95EAF70E94F603CF
:10369000C83048F481E09D2F977001C0880F9A953B
:1036A000EAF70E94EF03802F0E94E603C83070F60D
:1036B000D77081E001C0880FDA95EAF70E94F6031F
:1036C000C5CF80E28C0F883008F6C77081E001C05A
:1036D000880FCA95EAF7F2CF0F93DB0188519C4718
:1036E00087309105A0F5FC01EB55F74D0C94A2270E
:1036F00006E221EE41EE6AE17CE7CD010E94081B63
:1037000080E00F91089507E225EE45EE6BE17CE73E
:10371000F4CF06E221EE40EE68E17CE7EECF07E26F
:1037200025EE44EE69E17CE7E8CF06E221EE42EEC9
:103730006CE17CE7E2CF07E225EE46EE6DE17CE747
:10374000DCCF08E221E045EE6EE17CE7D6CF1596AE
:103750008C91882319F010929F02D3CF81E0D1CFB2
:103760001F93CF93DF9387372CE7920759F0C1E07F
:1037700088379C47E1F4FB01C581CC2371F10E949D
:10378000F31B06C0FB01C581CC23B1F00E94F01BE6
:103790000E94B1060E94F61BD82F0E94F31BC82F6F
:1037A0000E94F01B4D2F6C2F0E94D907C0E08C2F78
:1037B000DF91CF911F9108950E94F01B0E94BD06DA
:1037C0000E94F61B182F0E94F31BD82F0E94F01B9B
:1037D000412F6D2F0E94D907EACF0E94F31BEECF35
:1037E00080912501089580912401089580912301FD
:1037F00008959093A6028093A50208950E949811BF
:10380000811103C08091A0020895E091A502F0917A
:10381000A602309729F00190F081E02D09950895D6
:1038200080E00895E091A502F091A602309799F00A
:1038300020912E01222359F02091CF0227FF07C0AB
:10384000DC012C9111962C93119726E02C93028089
:10385000F381E02D09950895E091A502F091A6026B
:10386000309739F022E0DC012C930480F581E02DC3
:1038700009950895A3E0B0E0E0E4FCE10C94BF27D3
:103880002091A3023091A40228173907A1F0909348
:10389000A4028093A302E091A502F091A6023097C2
:1038A00051F023E029839B838A830680F781E02DF2
:1038B000CE01019609952396E2E00C94DB27A3E064
:1038C000B0E0E5E6FCE10C94BF272091A102309125
:1038D000A20228173907A1F09093A2028093A102B7
:1038E000E091A502F091A602309751F024E02983DF
:1038F0009B838A830680F781E02DCE01019609958E
:103900002396E2E00C94DB27FC01329680912E0195
:10391000882321F08091CF029EE187FF96E080E02E
:10392000915008F4089521912223D1F38F5FF8CFAD
:10393000662301F120912E012223F1F02091CF0284
:1039400027FF1AC0462F4695469546954E3190F46E
:10395000677021E030E002C0220F331F6A95E2F762
:10396000840F911DFC01828190E02823392381E09E
:10397000232B69F480E00895FC013296089621918A
:10398000261721F0E817F907D1F7F4CF81E0089561
:103990009C01FC0132969FEF80E04191461751F067
:1039A0009F3F19F4411101C0982F8F5F8630A9F70E
:1039B0009F3F09F40895290F311D97FD3A95F901AC
:1039C00062830895FC01329608962191261303C064
:1039D000DF0111971C92E817F907B9F70895E62F50
:1039E000E695E695E695EE3168F4E80FF92FF11DBE
:1039F000677021E030E001C0220F6A95EAF782810A
:103A0000822B82830895E62FE695E695E695EE31C2
:103A100070F4E80FF92FF11D677021E030E001C06C
:103A2000220F6A95EAF72095828128232283089540
:103A300020912E01222339F02091CF0227FF03C0CD
:103A40000E94EF1C08950E94C81C089520912E0129
:103A5000222339F02091CF0227FF03C00E94031DCB
:103A600008950E94E21C0895FC01329680912E0177
:103A7000882351F08091CF0287FF06C08EE1DF01DD
:103A80001D928A95E9F7089586E0F9CFDC01FB01E4
:103A900011969C9111978181981322C012968C9156
:103AA0001297882319F0928189131AC013968C916A
:103AB0001397882319F09381891312C015968C915E
:103AC0001597882319F0958189130AC014969C9143
:103AD000992321F081E02481291303C080E001C0F3
:103AE00081E08170089508950E94731D08958111E9
:103AF00006C081E08093A7020E94741D089582E0B1
:103B0000F9CF83E08093A7020E94741D08950E945C
:103B1000771D089581E08093A7020E94741D089587
:103B20000E948A1D0895089508950E94941D089585
:103B3000089508950E94931D0895CF930E94981DA3
:103B40000E941C110E94991DC0E08C2F0E94EE0F54
:103B5000811105C0CF5FC830C1F7CF91089581E0D2
:103B6000FCCF85B7806885BF85B7806885BF08951D
:103B70001F921FB61F9211248F939F93AF93BF93F1
:103B80008091A802811113C08091E3029091E40218
:103B9000A091E502B091E6024196A11DB11D80936E
:103BA000E3029093E402A093E502B093E602BF9192
:103BB000AF919F918F911F901FBE1F90189580917C
:103BC000EB02843031F10E94C2021092A80288E117
:103BD00090E020E40FB6F894A895809360000FBEA3
:103BE0002093600083B7817F846083BF83B7816047
:103BF00083BF7894889583B78E7F83BF0FB6F89480
:103C0000A8958091600088618093600010926000A8
:103C10000FBE08950E9439060E94C702089582E0EF
:103C200084BD93E095BD9AEF97BD80936E00089593
:103C30002FB7F8948091E3029091E402A091E502FD
:103C4000B091E6022FBF08952FB7F8946091E30278
:103C50007091E4028091E5029091E6022FBF0895F1
:103C60009C014FB7F8948091E3029091E402A091F7
:103C7000E502B091E6024FBF821B930B0895CF92ED
:103C8000DF92EF92FF922FB7F894C090E302D090AA
:103C9000E402E090E502F090E6022FBFA701960152
:103CA000261B370B480B590BCA01B901FF90EF9047
:103CB000DF90CF90089578941F921FB61F92112421
:103CC0008F939F93AF93BF938091E3029091E4020F
:103CD000A091E502B091E6020196A11DB11D80936D
:103CE000E3029093E402A093E502B093E602BF9151
:103CF000AF919F918F911F901FBE1F90189587E7DE
:103D000097E7909301088093000888E19AE00FB646
:103D1000F894A895809360000FBE90936000FFCF49
:103D200088E19AE00FB6F894A895809360000FBEE2
:103D300090936000FFCF8EE14A9B02C08150E1F773
:103D40004A9BFECF08955A9880E28A95F1F75A9AD5
:103D50000895FC013BE03A95F1F798E020E080E01F
:103D600031E040E14A95F1F7880F4A9B02C081603B
:103D7000232742E04A95F1F7000040E14A95F1F728
:103D8000915079F790E19A95F1F799B132E03A952F
:103D9000F1F7000040E14A95F1F792FB992790F97D
:103DA00092272081920F90830895A1E0B0E0EBED7F
:103DB000FEE10C94BB2719828C017C01E60EF11CFC
:103DC0000E151F0541F481E09981911180E0219643
:103DD000E6E00C94D7270E949B1ECE0101960E941C
:103DE000A91EF80181938F01EBCF529A5A9A089538
:103DF00052985A9AEA9AE9E6F0E080818F7C8083B3
:103E000008956150770B91E001C0990F6A95EAF728
:103E100020E031E0911108C0222391F05A9A80E20B
:103E20008A95F1F75A980895492F482339F05A9AFC
:103E3000232740E24A95F1F79695ECCF5A98F9CFAF
:103E40005A98EDCFFF920F931F93CF93DF93EC011E
:103E50008C01060F111DC017D10729F4CDB7DEB7AD
:103E6000E5E00C94D827F9900E94A31E68E08F2DFE
:103E70000E94011FF0CF1F920F920FB60F921124D4
:103E80000F931F932F933F934F935F936F937F9362
:103E90008F939F93AF93BF93EF93FF93CF93DF9352
:103EA0000F92CDB7DEB719820E949B1ECE010196FC
:103EB0000E94A91E082F069506950695282F229583
:103EC0002570902F9570290F922F93702695269527
:103ED000920F982797708981982B09F05CC0043065
:103EE00008F059C080E18A95F1F75A9A529A82E017
:103EF0008A95F1F700C05A9888E0089F8001112444
:103F0000D801AD5FBE4F1696ED91FC911797309793
:103F1000A9F06091AA017091AB0114962D913C918A
:103F20001597260F371F11968D919C911297680F48
:103F3000791F13964C9113978C910995F801ED5FB9
:103F4000FE4F6381662351F02091AA013091AB01AD
:103F500084819581820F931F0E94221F0E94A31EBD
:103F600080E18A95F1F75A9852985A9A80E18A9599
:103F7000F1F7F801ED5FFE4F6081662351F020916B
:103F8000AA013091AB0181819281820F931F0E941F
:103F9000D51E0E949B1E0F90DF91CF91FF91EF9154
:103FA000BF91AF919F918F917F916F915F914F9151
:103FB0003F912F911F910F910F900FBE0F901F9067
:103FC00018950F931F93CF93DF93EC0104970CF098
:103FD0004CC0F894529A5A9885E08A95F1F70000FF
:103FE0009C2F969595708C2F8570980F892F8370D4
:103FF0009695969523E0CC0FDD1F2A95E1F7980F53
:104000008E01092B0E94A31E00C068E0802F0E9431
:10401000011F80E18A95F1F752985A9A4A9B1EC077
:1040200087E090E04A991CC0FE01ED5FFE4F63817E
:104030006623F9F02091AA013091AB01848195812A
:10404000820F931F0E94D51E811113C0529A5A9A53
:104050007894DF91CF911F910F91089500C0DECF2A
:10406000019729F4529A5A9A789480E0F2CF00C0CE
:10407000D9CF0E949B1E80E28A95F1F75A98529AF6
:1040800080E18A95F1F7CD5FDE4F6881662351F0BC
:104090002091AA013091AB0189819A81820F931FEF
:1040A0000E94221F0E94A31E789481E0D2CF8091AB
:1040B000C90208959B01BA019091EB029430E9F492
:1040C0008F708093E9009FEF8091E800915085FD0B
:1040D00006C085ED8A95F1F700009111F5CF80912A
:1040E000E80085FF0AC050E040E0C9010E94A62216
:1040F0008091E8008E778093E800089543E050E0D7
:10410000BC0184E00E945A20089546E050E0BC01C2
:1041100084E00E945A200895CF93DF93EC018091B0
:104120002E01811111C048E050E0BE0181E00E94E3
:104130005A2080E2FE01A9EAB2E001900D928A9530
:10414000E1F7DF91CF9108958091CF0287FF05C0FD
:1041500040E284E050E0BE01EACF48E081E0FACFDF
:10416000603231F440E250E0BC0182E00E945A200B
:1041700008958091EA02811109C00E9485240E945D
:10418000E2248091E20084608093E200089510921E
:10419000EA0208950E948A1D08956091E70281E075
:1041A000611101C080E00E94811D08959091EB0291
:1041B00081E0943009F080E06091E7020E94871D61
:1041C000089542E061EC81E00E94012442E261EC4A
:1041D00084E00E94012442E261EC82E00E9401241A
:1041E00042E260EC83E00E9401249091EB0281E0C6
:1041F000943009F080E06091E7020E94771D0895F5
:104200008091ED02833009F463C030F48130E1F134
:10421000823009F4A0C008958A3009F48CC08B3034
:1042200009F471C0893009F052C08091EC028132EA
:1042300009F04DC08091F0029091F102009719F0C1
:10424000029709F044C08091E800877F8093E800DE
:104250008091E80082FF37C09091F3008091F200D6
:10426000029731F48091F100813011F0863021F411
:104270008091F1008093C9028091E8008B77809350
:10428000E8000E94352423C08091EC02813AF9F4C1
:104290008091E800877F8093E8008091F002909100
:1042A000F102892B61F460E289EA92E070E00E94F9
:1042B00044238091E8008B778093E800089560E0C4
:1042C00090E080E0F3CF8091EB028111C1CF08959F
:1042D0008091EC02813AD9F78091F0029091F1023D
:1042E000892BA9F78091E800877F8093E80080916F
:1042F000E80080FFFCCF80912E018093F100809137
:10430000E8008E77BCCF8091EC02813201F780917A
:10431000F0029091F102892BD1F68091E800877F1D
:104320008093E8000E9435248091EE0280932E0154
:104330000E94390608958091EC02813241F6809105
:10434000E800877F8093E8000E9435248091EF0287
:104350008093CA0208958091EC02813A09F0B7CFA8
:104360008091E800877F8093E8008091E80080FFDB
:10437000FCCF8091CA02C1CF84B7877F84BF0FB6BC
:10438000F894A895809160008861809360001092F5
:1043900060000FBE80E890E00FB6F8948093610053
:1043A000909361000FBE0E94901D08950E94852485
:1043B0000E94E224E2EEF0E08081846080837894C1
:1043C0000E946127089586E291E00E94F91B0895FA
:1043D0008091EB02853031F48091EB02853019F049
:1043E0000E940A1E08950E94DF1D8091E902882321
:1043F00099F30E949D1D882379F30E9490220E94C8
:104400003906EACFA0E2B0E0E8E0F2E20C94BF2780
:104410008091EB02843009F583E08093E90080917C
:10442000E80082FF1AC08091E80090E085FF09C093
:1044300050E040E060E270E0CE0101960E94F5227B
:1044400091E08091E8008B778093E800992329F030
:1044500060E2CE0101960E94BA16A096E2E00C94AA
:10446000DB279A014091F2025091F3020E94392217
:104470000895492F55274330510521F168F4413003
:10448000510509F443C04230510509F444C090E09D
:1044900080E050E040E026C04132510551F1423207
:1044A0005105A9F76330710590F7FB01EE0FFF1F6F
:1044B000E155FE4F4081518164557E4FFB01808163
:1044C00090E010C099278130910581F0009729F084
:1044D0000297E9F6ECEAF1E002C0E0EDF1E0849148
:1044E00090E0AF01F901518340830895E4ECF1E0DD
:1044F000F6CF6330710558F6660F771FFB01EB545A
:10450000FE4F4081518189E090E0ECCF82E190E064
:104510004FE252E0E7CF8BE590E044ED51E0E2CF8F
:1045200080E189BD82E189BD09B400FEFDCF8091A3
:10453000D8008F7D8093D8008091E00082608093C6
:10454000E0008091E00081FDFCCF0895AF92BF9222
:10455000CF92DF92FF920F931F93CF93DF936C0163
:10456000EB018A010E945424F82E811123C0011509
:10457000110539F0F80180819181C81BD90BC80E53
:10458000D91EB12CA12C2097A9F08091E80085FDBF
:1045900022C08091E8008E778093E8000115110514
:1045A000A1F0F80180819181A80EB91EB182A0828C
:1045B00085E0F82E8F2DDF91CF911F910F91FF9005
:1045C000DF90CF90BF90AF9008950E94542488232D
:1045D000D1F2F82EEFCFF60181916F018093F100B7
:1045E0002197FFEFAF1ABF0ACECFAF92BF92CF9203
:1045F000DF92FF920F931F93CF93DF936C01EB0138
:104600008A010E945424F82E811123C0011511053E
:1046100039F0F80180819181C81BD90BC80ED91ED1
:10462000B12CA12C2097A9F08091E80085FD22C033
:104630008091E8008B778093E80001151105A1F0C7
:10464000F80180819181A80EB91EB182A08285E017
:10465000F82E8F2DDF91CF911F910F91FF90DF905A
:10466000CF90BF90AF9008950E9454248823D1F238
:10467000F82EEFCF8091F100F60181936F01219721
:10468000FFEFAF1ABF0ACECFFC018091F2029091EA
:10469000F30286179707A0F06115710529F4909130
:1046A000E8009E779093E80090E06115710551F461
:1046B000911108C08091E80082FF34C080E0089525
:1046C000BC01F2CF8091EB028823C1F18530C1F1AA
:1046D0008091E80083FD30C08091E80082FDEACF40
:1046E0008091E80080FFE1CF8091F3002091F200FB
:1046F000382F6115710519F02830310558F091E017
:104700002830310509F090E02091E8002E772093C1
:10471000E800CBCF81918093F100615071092F5F48
:104720003F4FE7CF8091EB02882341F0853041F085
:104730008091E80083FFBECF81E0089582E0089574
:1047400083E00895FC018091F2029091F3028617B4
:104750009707A0F06115710529F48091E8008E7724
:104760008093E80090E06115710551F4911108C043
:104770008091E80082FF35C080E00895BC01F2CF4F
:104780008091EB028823C9F18530C9F18091E8005E
:1047900083FD31C08091E80082FDEACF8091E8007E
:1047A00080FFE1CF8091F3002091F200382F611556
:1047B000710519F02830310558F091E028303105A5
:1047C00009F090E08091E8008E778093E800CBCFED
:1047D00084918093F1003196615071092F5F3F4FB2
:1047E000E6CF8091EB02882341F0853041F0809143
:1047F000E80083FFBDCF81E0089582E0089583E063
:104800000895982F973028F08F708093E90081E009
:1048100008959093E900242F762F50E0981731F0F7
:104820007091EC002091ED005091F00021FD02C04C
:104830009F5FE8CF3091EB003E7F3093EB003091EB
:10484000ED003D7F3093ED003091EB00316030930F
:10485000EB007093EC002093ED005093F00020915A
:10486000EE0027FDE5CF80E008958091EC0287FF00
:1048700013C08091E80082FF06C08091E8008B772A
:104880008093E80004C08091EB028111F2CF08957B
:104890008091EB028823D9F38091E80080FFF8CF64
:1048A0008091E8008E77ECCF2091E4003091E50014
:1048B00095E6A9012091EC00822F817020FF06C0AF
:1048C0008091E80080FF06C080E008952091E80014
:1048D00022FD1AC08091EB02882389F0853089F08F
:1048E0008091EB0085FD0FC02091E4003091E50040
:1048F00042175307F9F29150E1F684E0089582E0FF
:10490000089583E0089581E008950E94F4240E94B0
:10491000FC24E0EEF0E0808181608083E8EDF0E04F
:1049200080818F77808319BCA7EDB0E08C918E7F5A
:104930008C9380818F7E80831092EA0208950F937A
:104940001F93CF93DF930E94F4240E94FC24C8EDB0
:10495000D0E088818F778883888180688883888188
:104960008F7D888319BC1092EB021092E70210929F
:10497000E9021092E80200EE10E0F80180818B7FDE
:10498000808388818160888342E060E080E00E94CB
:104990000124E1EEF0E080818E7F8083E2EEF0E0A2
:1049A000808181608083808188608083F80180813C
:1049B0008E7F8083888180618883DF91CF911F9172
:1049C0000F910895E8EDF0E080818F7E8083E7ED20
:1049D000F0E080818160808384E082BF81E0809309
:1049E000EA020E949F240895E8EDF0E080818E7F26
:1049F00080831092E20008951092DA001092E10094
:104A000008951F920F920FB60F9211242F933F9388
:104A10004F935F936F937F938F939F93AF93BF93C6
:104A2000EF93FF938091E10082FF0BC08091E20041
:104A300082FF07C08091E1008B7F8093E1000E949C
:104A400060278091DA0080FF19C08091D80080FF34
:104A500015C08091DA008E7F8093DA008091D900B2
:104A600080FF96C080E189BD82E189BD09B400FE66
:104A7000FDCF81E08093EB020E94B9208091E1009C
:104A800080FF19C08091E20080FF15C08091E20094
:104A90008E7F8093E2008091E20080618093E2004B
:104AA0008091D80080628093D80019BC85E0809303
:104AB000EB020E94CD208091E10084FF2BC0809109
:104AC000E20084FF27C080E189BD82E189BD89B50C
:104AD000982F917080FFFBCF8091D8008F7D8093BD
:104AE000D8008091E1008F7E8093E1008091E20008
:104AF0008F7E8093E2008091E20081608093E200EB
:104B00008091E702882309F449C084E08093EB0296
:104B10000E94D6208091E10083FF29C08091E200AD
:104B200083FF25C08091E100877F8093E10082E0D0
:104B30008093EB021092E7028091E1008E7F8093D8
:104B4000E1008091E2008E7F8093E2008091E2009C
:104B500080618093E20042E060E080E00E940124F6
:104B60008091F00088608093F0000E94CA20FF913D
:104B7000EF91BF91AF919F918F917F916F915F91D5
:104B80004F913F912F910F900FBE0F901F9018954E
:104B900019BC1092EB020E94C72070CF8091E300F5
:104BA00087FD93E09093EB02B3CF1F920F920FB665
:104BB0000F9211242F933F934F935F936F937F93A3
:104BC0008F939F93AF93BF93CF93DF93EF93FF9315
:104BD000D091E900DF708091EC00C82FC17080FD9A
:104BE000C0E81092E9008091F000877F8093F00088
:104BF00078940E9419261092E9008091F000886054
:104C00008093F000CD2BCF70C093E900FF91EF911E
:104C1000DF91CF91BF91AF919F918F917F916F91D4
:104C20005F914F913F912F910F900FBE0F901F906A
:104C30001895AAE2B0E0EFE1F6E20C94BE278CEE04
:104C400092E02091F100FC012193CF01F2E0843F3A
:104C50009F07B9F70E9400218091E80083FF1EC1E1
:104C60008091EC029091ED029A3008F017C1E92F83
:104C7000F0E0E455F74D0C94A227803899F0823883
:104C800009F00CC18091F0028F70873008F006C1E6
:104C90008093E9008091EB0085FB882780F91092D2
:104CA000E90006C08091E8029091E90291118260CA
:104CB0009091E800977F9093E8008093F100109224
:104CC000F1008091E8008E77E5C0882309F4D3C015
:104CD000823009F0E3C08091EE028111D6C080914C
:104CE000F0028F702FEF280F263008F0D7C0809386
:104CF000E9002091EB0020FFC8C0933031F480918F
:104D0000EB0080628093EB00C0C09091EB0090615B
:104D10009093EB0021E030E001C0220F8A95EAF782
:104D20002093EA001092EA008091EB008860EACFBD
:104D30008111B4C01091EE021F778091E30080785A
:104D4000812B8093E3008091E800877F8093E800C7
:104D50000E9435248091E80080FFFCCF8091E30021
:104D600080688093E30082E0111183E08093EB027E
:104D700095C08058823008F091C08091EE029091E9
:104D8000EF028C3D23E09207A1F583E08A838AE25B
:104D900089834FB7F894DE01139620E03EE051E29C
:104DA000E32FF0E050935700E49120FF03C0E29519
:104DB000EF703F5FEF708E2F90E0EA30C0F0C79643
:104DC0008D939D932F5F243159F74FBF8091E80059
:104DD000877F8093E8006AE270E0CE0101960E942E
:104DE00044238091E8008B778093E80057C0C096F9
:104DF000E7CF6091F0027091F102AE014F5F5F4F1B
:104E00000E943122BC01892B09F448C09091E8002E
:104E1000977F9093E80089819A810E94A223E1CF35
:104E20008038E1F58091E800877F8093E8008091E9
:104E3000E7028093F10045CF811130C09091EE02DE
:104E4000923060F58091E800877F8093E80090932E
:104E5000E7020E9435248091E702882311F084E064
:104E600005C08091E30087FDFACF81E08093EB02DB
:104E70000E94E12013C08091EE02813079F481E03C
:104E8000933009F080E08093E9021092E90080916C
:104E9000E800877F8093E8000E9435248091E80035
:104EA00083FF0AC08091E800877F8093E8008091AB
:104EB000EB0080628093EB00AA96E3E00C94DA2783
:104EC0000895CF938091EB028823A1F0C091E9006F
:104ED000CF709091EC00892F817090FD80E8C82BF5
:104EE0001092E9008091E80083FD0E941926CF709E
:104EF000C093E900CF9108950E9485241092EB029F
:104F00000895E8EDF0E08081806180838AE18A95F0
:104F1000F1F700C08091D9008170089597FB072EAA
:104F200016F4009407D077FD09D00E94E62707FC0D
:104F300005D03EF4909581959F4F089570956195A9
:104F40007F4F0895EE0FFF1F0590F491E02D099417
:104F500069279627692778278727782708952F922A
:104F60003F924F925F926F927F928F929F92AF92F9
:104F7000BF92CF92DF92EF92FF920F931F93CF9346
:104F8000DF93CDB7DEB7CA1BDB0B0FB6F894DEBFDD
:104F90000FBECDBF09942A88398848885F846E8403
:104FA0007D848C849B84AA84B984C884DF80EE804D
:104FB000FD800C811B81AA81B981CE0FD11D0FB656
:104FC000F894DEBF0FBECDBFED010895AA1BBB1B39
:104FD00051E107C0AA1FBB1FA617B70710F0A61BF9
:104FE000B70B881F991F5A95A9F780959095BC011A
:104FF000CD010895FB01DC0104C08D910190801961
:1050000021F441505040C8F7881B990B0895FB01CB
:10501000DC0102C001900D9241505040D8F7089534
:10502000F999FECF92BD81BDF89A992780B5089570
:10503000A8E1B0E042E050E00C945428DC01A40F59
:10504000B51F4150504048F0CB01840F951F2E9161
:105050000E942F2841505040D0F70895262FF999EB
:10506000FECF92BD81BDF89A019700B4021639F0C7
:105070001FBA20BD0FB6F894FA9AF99A0FBE089598
:105080000396272F0E942F280E942E28252F0E944A
:105090002F28242F0C942F280196272F0E942F2889
:1050A0000C942E28DC01CB01FC01F999FECF06C03F
:1050B000F2BDE1BDF89A319600B40D9241505040D6
:1050C000B8F70895F894FFCF3C043C048C048C049A
:1050D000F1040D056B046B0412057905880588053C
:1050E000CF16DB16111723172E1739173C173C174D
:1050F0003C17E116E116411745174D175A17671768
:105100006A176D177A17F7176B18FF17C917CD179E
:105110000318D11707181318DD176418E1171718AB
:10512000E5171B184318E9171F184A18EF17251819
:105130002D18D5170B18D9170F18F3172918391868
:1051400053186218C317FB177218891B8F1B781B23
:10515000831B951B9B1BA11B3D2665264E276526A1
:0C5160004E279826B9264E2710271C2742
:10516C0039020100000001000000000000000401F1
:10517C000000000405000000000000280850011E7B
:10518C000A140103020157208C2085207E2001E2A5
:10519C0000E900EA00B500B600B700CD008301CCF1
:1051AC00008A019201940121022302240225022685
:1051BC000227022A02B300B4006F0070009F01CBDB
:1051CC00019F02A002818283E200E900EA00B5009F
:1051DC00B600B700CD008301CC008A019201940186
:1051EC002102230224022502260227022A02B300EE
:1051FC00B4006F0070009F01CB019F02A00281825E
:10520C00833534C69766F4F5F6F776024422B61960
:0C521C000341026302E601FF011F0200D3
:00000001FF
