:100000000C9499010C94B6010C94B6010C94B601B1
:100010000C94B6010C94B6010C94B6010C94B60184
:100020000C94B6010C94B6010C9436200C940A2161
:100030000C94C51A0C94B6010C94B6010C94B6013C
:100040000C94B6010C94B6010C94B6010C94B60154
:100050000C94B6010C944C1B0C94B6010C94B60194
:100060000C94B6010C94B6010C94B6010C94B60134
:100070000C94B6010C94B6010C94B6010C94B60124
:100080000C94B6010C94B6010C94B6010C94B60114
:100090000C94B6010C94B6010C94B6010C94B60104
:1000A0000C94B6010C94B6010C94B60114001A001D
:1000B00008001500170004001600070009000A00D8
:1000C0001D001B000600190005001E001F00200077
:1000D0002100220000000000000000002A2B280060
:1000E00000000000000000000000000000000029E7
:1000F000000000002C1E3420212224342627252E27
:10010000362D3738271E1F2021222324252633335E
:10011000362E37381F0405060708090A0B0C0D0E8A
:100120000F101112131415161718191A1B1C1D2F56
:100130003130232D350405060708090A0B0C0D0E76
:100140000F101112131415161718191A1B1C1D2F36
:100150003130354C000000000000000000000000BD
:10016000000000000000000000000000000000008F
:1001700000000000000000007E0F00D4FFFFFFC75A
:100180000000007812036A006900730061006B00D0
:1001900075003200300000000A036D002E006B0075
:1001A000690000000403090409025B00030100A0C8
:1001B000FA090400000103010100092111010001F5
:1001C000224400070581030800010904010002031D
:1001D000000000092111010001222200070582030D
:1001E00020000107050303200001090402000103A8
:1001F00000000009211101000122B6000705840357
:100200002000011201000200000008434D20000000
:1002100001010200010660FF0961A10109621500E8
:1002200026FF009520750881020963150026FF004E
:10023000952075089102C005010902A101850209F6
:1002400001A1000509190129081500250195087566
:100250000181020501093009311581257F9502755B
:1002600008810609381581257F95017508810605E5
:100270000C0A38021581257F950175088106C0C0DA
:1002800005010980A101850319012AB7001501267E
:10029000B700950175108100C0050C0901A1018509
:1002A0000419012AA002150126A0029501751081EA
:1002B00000C005010906A1018506050719E029E727
:1002C000150025019508750181020507190029EF20
:1002D0001500250195F07501810205081901290510
:1002E000950575019102950175039101C0050109FC
:1002F00006A101050719E029E715002501950875F4
:100300000181029501750881010507190029FF1572
:100310000026FF00950675088100050819012905CA
:10032000150025019505750191029501750391014F
:10033000C00011241FBECFEFDAE0DEBFCDBF11E059
:10034000A0E0B1E0E2EBF7E402C005900D92A03A24
:10035000B107D9F722E0A0EAB1E001C01D92A13AAD
:10036000B207E1F70E94D2100C9485230C94000090
:10037000811112C0643080F4453070F4E42FF0E055
:1003800085E0689FE00DF11D1124EE0FFF1FE4557D
:10039000FF4F85919491089581E090E0089581E068
:1003A00008950E94CF01089581E008950E94CF0131
:1003B00008950E94D601089508950E94DC010895D1
:1003C000A6E0B0E0E6EEF1E00C94E12249835A8326
:1003D0009E833091A70189819A8131111AC03E8193
:1003E000332399F0222389F00E944B07182F682F9E
:1003F00089819A810E94270769817A81812F0E94D1
:100400004D0E2696E3E00C94FD220E943907182F2A
:10041000F3CF0E944B0769817A81F1CFFC01262F2F
:100420004081518162817381848195810E94E001C4
:100430000895CF93DF93EC0161E00E940E02BE01AC
:100440000E94D101DF91CF910895CF93DF93EC010A
:1004500060E00E940E02BE010E94DD01DF91CF919B
:10046000089508950E9423060E9431022FEF84E32D
:100470009CE0215080409040E1F700C000000895CA
:100480000E9432020E94701B08950E9432020E9454
:10049000811B08950F931F93CF93DF938C0161E02D
:1004A0000E940E02EC01B8010E94CE13811106C019
:1004B00080E0DF91CF911F910F910895B801CE0197
:1004C0000E94D9018823A1F3B801CE010E948018AF
:1004D000882371F3B801CE010E94B514882341F33B
:1004E000B801CE010E94F217882311F3B801CE01A2
:1004F0000E94C4188823E1F2F8018581882361F005
:10050000C330FCE7DF07E9F058F4C115ECE7DE077C
:10051000A9F0C130DC47B9F0C8010E94D401C9CFAD
:10052000CB358CE7D807A9F0CC35ECE7DE0771F0C6
:10053000CA35DC4789F70E94A30BEECF0E94400228
:10054000B7CF0E94AB0B0E944502B2CF0E94990B1D
:10055000E3CF0E94A70BE0CF0E94A21A0E94D30211
:1005600008950E94D7020E94A71A0895089581E075
:1005700008950895CF93DF93D82F0E94B702C82F14
:10058000882319F08D2F0E94B9028C2FDF91CF9113
:1005900008950895CF93C82F0E94B6028C2F0E9411
:1005A000BA02CF91089580E00E94CA0208950E9485
:1005B00012190E94CA020895CF930E941219C82FDF
:1005C0008091A2018C1779F0C093A2010E94311B87
:1005D0006093A3017093A4018093A5019093A60159
:1005E0008C2F0E94CA02CF910895ADE0B0E0EBEFEE
:1005F000F2E00C94E222488759876A877B878C87D0
:100600009D8791110E94D10A1F8286E0FE013896D3
:10061000DE01119601900D928A95E1F78D8181118D
:100620000DC029813A814B815C816D817E818F81F2
:100630000E94040A2D96E2E00C94FE22CE0101965F
:100640000E9419028111EDCFF5CFFC0124812130E8
:1006500021F4808191810E9478070895662329F012
:100660000E9469110E943C1208950E94C311FACFA2
:10067000CF93C82F8823B9F08CEF8C0F813AA8F460
:100680006C2F80910001909101010E94A51988238F
:1006900029F08C2F0E94910A0E940A0B8C2F0E9435
:1006A000890A0E940A0BCF91089580E28C0F88304E
:1006B00048F4C77081E001C0880FCA95EAF70E942C
:1006C000B40AEFCFEBE5EC0FE33040F4F0E0E45B8D
:1006D000FE4F808190E00E944719E5CFE8E5EC0FDE
:1006E000EB3150F4F0E0EE0FFF1FEA5EFE4F808129
:1006F00091810E946C19D7CF83E38C0F833198F6D8
:1007000061E08C2F0E942E03CECF882381F19CEFD5
:10071000980F913A28F40E94910A0E940A0B0895BA
:1007200090E2980F983050F4877091E001C0990FD3
:100730008A95EAF7892F0E94BA0AEFCF9BE5980FB6
:10074000933028F490E080E00E944719089598E5DE
:10075000980F9B3128F490E080E00E946C19089576
:1007600093E3980F933118F460E00E942E030895EC
:100770001F93CF93DF93182FEB010E94380320972C
:1007800039F4812F0E948503DF91CF911F91089545
:100790008FE99FE00197F1F700C000002197EFCFAC
:1007A00070E060E0893311F460E570E00E94B80306
:1007B0000895882321F00E94B40A0E940A0B08952C
:1007C000882321F00E94BA0A0E940A0B0895B0E023
:1007D000A0E0EDEEF3E00C94DB226C01D62FC72FE6
:1007E000FC011581068102950F700E94AA0AE82E6D
:1007F0008823E9F0E12E1123D1F08C2F807F803403
:1008000051F080E28D0F8830F8F0011104C08C2F78
:10081000807E8032C9F08091870282FF15C082E01D
:100820000E946D0B0E94AA0A91E0E82EE926BC2ED8
:10083000B2949FE0B922FBE0FB15B8F1EB2DF0E09C
:10084000E957FC4D0C94C522E12CF1CF0C2F0F7011
:10085000C07F11F00295007F112399F0002359F019
:1008600080E28D0F883010F0D11107C0802F0E94D8
:10087000B40A0E940A0B8D2F5AC0802F0E94C40A0E
:10088000F8CF8D2F0E948503002379F080E28D0F31
:10089000883010F0D11104C0802F0E94BA0A03C022
:1008A000802F0E94CA0A0E940A0BEB2DE850FF0B12
:1008B000349720F40E9412190E94CA02EE2089F097
:1008C0000E94A60A80FD0DC0F60115820E94A00AB2
:1008D0000E949B06C6010E94EA050E94A00A0E948F
:1008E000A706CDB7DEB7E9E00C94F7222C2F2F70C6
:1008F000F22EC07FC03219F0F29480EFF822DD238F
:1009000041F0D130D1F1112309F444C00023F1F0BA
:10091000B2CF8091870282FD15C0112359F0FF20CC
:1009200029F08F2D0E94B40A0E940A0B80E00E94D9
:100930003803BBCF80E00E948503FF2009F4B5CFC8
:100940008F2DABCF112369F0011104C08F2D0E94B0
:10095000D903ABCF013009F0A8CF8F2D0E94E80A50
:10096000A4CF0111A2CF8F2D0E94E0038F2D0E94F2
:10097000F40A8F2D0E94D80A98CF112321F0063057
:1009800008F093CFE3CF053008F08FCF8F2D0E9472
:10099000E0038BCF0023D1F3D93349F43FEF87EE47
:1009A00093E0315080409040E1F700C000008D2F6F
:1009B0000E9485037ACF8C2F86958695837069F087
:1009C000813009F072CF8D2F9C2F9370111102C0CE
:1009D00080E090E00E946C1968CF8D2F9C2F93705F
:1009E000111102C080E090E00E9447195ECF612F94
:1009F0008D2F0E942E0359CF8C2F837079F5111102
:100A000054CF4D2F429546954770440F440F8D2F7C
:100A10008F70042E01C0880F0A94EAF72D2F2071E1
:100A2000D4FF07C02FE030E001C0220F4A95EAF75B
:100A30002095C695C695C370822BC23049F058F4F4
:100A4000C13019F00E94770630CF0E9471062DCF79
:100A50000E947D062ACF0E946E0627CF869511231D
:100A600011F08C2F8170882309F41FCF4D2F4295F0
:100A700046954770440F440F8D2F8F70042E01C090
:100A8000880F0A94EAF72D2F2071D4FF07C02FE0BA
:100A900030E001C0220F4A95EAF72095C695C69529
:100AA000C370822BC23049F058F4C13019F00E9453
:100AB000C606FBCE0E94C006F8CE0E94CC06F5CE3C
:100AC0000E948906F2CECF70112329F08C2F0E944C
:100AD0009B068D2F3CCF8D2F0E94E0038C2F0E9410
:100AE000A706E3CED23F41F160F4D03FB9F0D13F49
:100AF00081F0112309F446C00111BDCE8C2F8F71F6
:100B00001FC0D33F01F1D43FA1F78091870282FD3E
:100B100024C08C2F8F71112311F312C0112341F0C7
:100B2000053008F0C2CE8C2F8F710E94B406BDCE66
:100B3000063008F0BACEF7CF8C2F8F711111CFCFBE
:100B40000E949B06B2CE112329F08C2F8F710E9438
:100B50009206ABCE0E948E06A8CE112349F0CF712B
:100B60008C2F0E949B0663E08C2F0E944F0B9DCE22
:100B700081E00E946D0B023008F497CE82E00E9463
:100B80006D0B93CE002359F0D93309F010CFEFEF5E
:100B9000F7EE23E0E150F0402040E1F706CF8C2F44
:100BA0008F719DCF0F931F93CF93DF93EC016881DB
:100BB00079818D810E9483078C010E94D2060E9458
:100BC0006D06B801CE010E94E703DF91CF911F911E
:100BD0000F910895CF93DF93EC018C81882399F0D6
:100BE000CE010E944A02811111C00E94AA0A8823E4
:100BF00051F08D81882339F08091870282FF03C0F4
:100C000082E00E946D0BDF91CF910895CE010E948A
:100C1000D205CE010E942502F6CF90E080E00E942E
:100C2000471990E080E00E946C190E94D10A0E944E
:100C30000A0B0E9458120E943C1208950E94990AC1
:100C40000E940D0608950E94C10A0E941E06089582
:100C500092959F70963091F058F4925F9F70923009
:100C600058F4803F19F030F4883E30F481E0089564
:100C70009A5FF4CF843FD1F380E00895883EB0F3CB
:100C8000813FD1F7F3CFFC012481222339F0808109
:100C900091810E9478070E942806089580E00895B7
:100CA000A6E0B0E0E6E5F6E00C94E2222696E2E06B
:100CB0000C94FE22A7E0B0E0E0E6F6E00C94E2221D
:100CC0002796E2E00C94FE2208950E94640608959F
:100CD0000E9465068093B201089508950E946806F7
:100CE00008959091B201892B0E9468060895909111
:100CF000B20189230E94680608959091B201892764
:100D00000E94680608950E94640608950E94830662
:100D100008950E9486068093B101089580E00E94A4
:100D20008906089591E001C0990F8A95EAF7892F05
:100D30000E948906089521E030E001C0220F8A95C3
:100D4000EAF78091B101822B0E948906089521E083
:100D500030E001C0220F8A95EAF720958091B10119
:100D600082230E948906089521E030E001C0220F0D
:100D70008A95EAF78091B10182270E948906089539
:100D80009091B101892B0E94890608959091B1013B
:100D900089230E94890608959091B10189270E94B4
:100DA000890608950895262F277091E001C0990FB4
:100DB0002A95EAF723E0769567952A95E1F7FB01F6
:100DC000EE0FFF1FE60FF71FE40FF51F50E040E0A6
:100DD000682F70E08191DF0111979B01042E02C002
:100DE000369527950A94E2F7217021952827292323
:100DF00028272C934F5F5F4F4330510559F70895D3
:100E0000A82FA77023E0969587952A95E1F7FC0116
:100E1000EE0FFF1FE80FF91FE60FF71F50E040E04D
:100E200080E0219130E00A2E02C0369527950A9481
:100E3000E2F721703327042E01C0220F0A94EAF74B
:100E4000822B4F5F5F4F4330510559F70895262F8E
:100E5000943070F4853060F4682F70E085E0989FDE
:100E6000600D711D112448EA51E0822F0E94D306C3
:100E70000895292F943068F4853058F490E068EA9A
:100E800071E035E0239F800D911D11240E94000721
:100E9000089580E00895CF92DF92FF920F931F9301
:100EA000CF93DF936C010091B1018091B201082BC7
:100EB000C3E0D0E010E0FC2EC8010C2E02C09595D6
:100EC00087950A94E2F780FD0CC02197A0F7F12CDA
:100ED0008F2DDF91CF911F910F91FF90DF90CF90D9
:100EE0000895B6018C2F0E94590E019771F3F0CF2F
:100EF000CF93DF93EC010E944B07BE010E94590E75
:100F0000DF91CF9108951F93CF93DF93EB019091E1
:100F1000A701992339F0CB010E947807DF91CF9187
:100F20001F910895882369F0CB010E944B07182F69
:100F3000682FCE010E942707BE01812F0E94590E03
:100F4000EDCFCB010E943907182FF6CFE1E0F0E09A
:100F5000DF0102C0AA0FBB1F6A95E2F7BD01DF01E6
:100F600002C0AA0FBB1F4A95E2F76A2B01C0EE0F21
:100F70002A95EAF7962F9823961302C08E2B089590
:100F8000E0958E230895242F462F682F8091B1017C
:100F90000E94A6070E94890608951F93CF93DF93AE
:100FA000C091B30117E08091B4018C1304C0DF91AC
:100FB000CF911F910895D0E01C9FF0011D9FF00D6F
:100FC0001124EB54FE4F2081318142815381648191
:100FD000758186810E945A062196C770E4CF2091C0
:100FE000ED013091EE014091EF015091F0016091DF
:100FF000F1017091F2018091F3010E945A06089567
:10100000CF93DF938091F301807F09F04DC08091F1
:10101000F201882309F448C0E091B3015091B40172
:10102000C091EE01D091ED016091EF017091F0015E
:1010300047E05E17C9F18E2F90E0E49FF001112484
:10104000EB54FE4F2481222391F1489FF001499FE8
:10105000F00D1124DF01AB54BE4F11962C91119766
:101060002C1325C02C912D1322C015962C91159769
:1010700021111DC012962D913C91261B370B283C47
:101080003105A8F48091F3018F7080618093F301A2
:10109000E554FE4F80818F70806180838DEE91E0FA
:1010A0000E94EA050E94CD07DF91CF910895FC01CF
:1010B0003196E770BECF482F2091B3019091B401D3
:1010C00057E0291302C080E0089530E0529FF001FC
:1010D000539FF00D1124EB54FE4F8181681306C01D
:1010E0008081481303C085818111EECF2F5F3F4F70
:1010F0002770E7CFA4E1B0E0E0E8F8E00C94D82254
:101100008C0186E0F801DE011F9601900D928A9510
:10111000E1F7F8018481E5809DEEA92E91E0B92EDA
:101120009091F10191111FC08823D1F0EE20A9F018
:10113000C8010E944306F82E882379F087E0F80161
:10114000D50101900D928A95E1F7C5010E94250312
:101150000E9400080E94EF075FC0C8010E94EA05D4
:10116000FF24F39459C0C080D18082809380F09096
:10117000F2012091EF013091F001A401421B530BC9
:10118000FF2009F4F9C0483C510508F0A7C08823A6
:1011900009F442C09091EE018091F301282F207F45
:1011A00009F05CC09D1116C09091ED01C91212C0EA
:1011B000E1104EC08F7080618093F3010E94EF07B1
:1011C0008DEE91E00E94EA058091F301F80186839B
:1011D000F12C22C0E1103CC06D2D8C2D0E945B08CB
:1011E0006D2D8C2D0E945B08E82E8111F1CFCF86EA
:1011F000D88A8F8598890E947807292F22952F7089
:10120000243078F49F702230A8F09923B9F0F801C7
:101210009681907F99F4FE2C8F2D6496ECE00C94CF
:10122000F4222A5F2F70223068F0C8010E94EA057C
:10123000EF2CF1CF992311F0882369F3805E883079
:1012400050F3F3CF803F38F3815F833070F7E3CF03
:101250008091F30181608093F301BACF9D1113C097
:101260009091ED01C9120FC0E1100DC08683C80135
:101270000E94EA0587E0F801ADEEB1E001900D9221
:101280008A95E1F767CFC8010E944306882309F4D5
:1012900064CFEE2009F461CF8091F301803288F0B1
:1012A0002091ED013091EE01398728879B868A864F
:1012B0009091F1019C871D868E87CE0108960E9431
:1012C000EA0587E0F801ADEEB1E001900D928A9554
:1012D000E1F70E9400080E94EF0742CF9091F301CE
:1012E000292F207FA1F4682D9A8A898AA6017A89FC
:1012F0009E2D0E9450068DEE91E00E94EA0587E047
:10130000F50111928A95E9F70E94EF0761CF8823D2
:1013100009F482CF8091EE018D1110C08091ED0112
:10132000C8120CC0E1100AC09683C8010E94EA05E9
:1013300087E0F50111928A95E9F76ECFC8010E9406
:101340004306882309F409CFEE2009F406CF8091E3
:10135000F301803208F4B5CF2091ED013091EE0118
:101360003A8329839C828B829091F1019D831E8216
:101370008F83CE010196A3CF483C5105B8F5882351
:1013800009F4EECEFE2CEE2009F4E7CE8091EE01BA
:101390008D111EC08091ED01C8121AC08091F30119
:1013A00080FD0DC0982F907F51F08683903F09F407
:1013B0005ECF982F907F905F8F70892B57CF87E0FB
:1013C000F801ADEEB1E001900D928A95E1F724CFDE
:1013D000C8010E944306811174CF8091F30181609E
:1013E0008093F301C8010E94EA0516CF682D9A8AFE
:1013F000898AA6017A899E2D0E94500687E0F50110
:1014000011928A95E9F7A6CEAEE0B0E0EAE0FAE004
:101410000C94E122288739874A875B876C877D8710
:101420008E87CE0108960E947A088823B1F06C85D9
:10143000662341F0288539854A855B857D858E85C3
:101440000E945A0617E08091B3019091B40189136C
:101450003DC02E96E3E00C94FD2287E0FE01389615
:10146000DE01119601900D928A95E1F78C85882313
:1014700049F32091B40130E0C901019687709927A2
:101480004091B3014817190699F097E0929FD00157
:10149000939FB00D1124AB54BE4FFE0131960190C5
:1014A0000D929A95E1F78093B4010E94CD07CACFBF
:1014B0000E9423061092B4011092B30187E0EDEE72
:1014C000F1E0DF011D928A95E9F7BCCF819FC00151
:1014D00011248B549E4F0E947A08882309F4B9CFB7
:1014E000E091B3011E9FF0011124EB54FE4F2081C7
:1014F0003181428153816481758186810E945A06BF
:101500008091B30190E00196877099278093B30191
:101510009ACF682F80910001909101010E94251AB5
:101520000895682F80910001909101010E94331A63
:10153000089580910001909101010E94411A08953F
:10154000809114028695869586950895809114025F
:101550008770089590911402977081E009F480E0FB
:10156000089580913802089590913802892B8093D4
:10157000380208958095909138029823909338020C
:10158000089510923802089590913702892B809324
:1015900037020895809590913702982390933702EF
:1015A000089510923702089508950E94D40A08956C
:1015B00090911502292F282331F08095892380935B
:1015C00015020E94D50A089508950E94E40A08951C
:1015D00090911602292F2823281729F0982B9093F1
:1015E00016020E94E50A089590911602292F2823D9
:1015F00031F080958923809316020E94E50A0895B0
:1016000080911602882329F01092160280E00E9431
:10161000E50A0895CF93DF93E0910001F091010175
:10162000809138028083E0910001F0910101808176
:1016300090913702892B808390911602992381F033
:10164000E0910001F09101018081892B80838091DC
:101650000001909101010E94911981110E94000BDB
:10166000C0910001D091010140E250E064EF71E0CF
:10167000CE010E941D23892B59F080E2FE01A4EFC8
:10168000B1E001900D928A95E1F7CE010E941F19F9
:10169000DF91CF91089508950E944B0B089590918A
:1016A000870292FF11C098E0899F90011124622B5C
:1016B000609314020E949B06809114028695869581
:1016C00086950E944C0B08950E949B0608951092E7
:1016D000140280E00E944C0B0895909114028095B2
:1016E000892380931402282F277069F4891759F0F1
:1016F0009091870292FF07C08695869586950E94F5
:10170000A7060E94670B08959091870292FB2227FB
:1017100020F9281769F080FB92F990938702809155
:101720008602909187020E94CD0B82E00E946D0B91
:1017300008958091870282FB882780F991E08927AC
:101740000E94840B089581E00E94840B089580E03C
:101750000E94840B08956FEF7FEF90E080E00E947D
:101760006F23089590E080E00E943B23863E9E4FC9
:1017700019F40E946813089580E0089582E090E0D3
:101780000E943323089583E090E00E94332308955C
:1017900084E090E00E943B230895BC0184E090E047
:1017A0000E946F230895AB01BC018FE090E00E947E
:1017B00063230895AB01BC0183E190E00E946323A1
:1017C000089560E070E0CB010E94DA0B089560E0BC
:1017D00070E0CB010E94D30B0E94E10B0895A8E0BA
:1017E000B0E0E5EFFBE00C94E22266EE7EEF90E0E5
:1017F00080E00E946F2360E082E090E00E9451232D
:1018000060E083E090E00E9451231092B20160E01A
:1018100074E184E090E00E946F2360E086E090E055
:101820000E9451236FEF87E090E00E94512340E037
:1018300050E0BA0188E090E00E94632360E084E217
:1018400090E00E94512360E087E190E00E945123E4
:1018500060E08CE090E00E94512360E08DE090E039
:101860000E94512319821A821B821C821D821E82B1
:101870001F82188648E050E068E170E0CE010196D2
:101880000E94412340E050E0BA0180E290E00E94D3
:10189000632380E00E9481130E94B0130E94E70B33
:1018A0002896E2E00C94FE220E94EF0B0895682F28
:1018B0008EE090E00E9451230895A6E0B0E0E3E6B8
:1018C000FCE00C94E0220E94251B8C0180913902DF
:1018D00090913A028017910781F019821A820E9432
:1018E000251B682F49815A81792F80E090E00E9462
:1018F000F50210933A02009339022696E4E00C9424
:10190000FC220E94311B6093430270934402809337
:1019100045029093460260933F0270934002809389
:101920004102909342020895089508950E94940CF4
:10193000089508950E94990C08958FE49FE00E94F5
:10194000DF100E94950C0E94960C089581E0089586
:101950000E94A60C08950E94A60C0895089508956B
:101960000E94AE0C0E94AF0C08950E946E0F0E9460
:10197000C90208950E941C1B0E94C0130E943310CC
:101980000E94B50C0E949A0C0895A6E0B0E0EBEC22
:10199000FCE00C94D9220E94A80C81110AC00E947C
:1019A0005D0C0E947A120E94DC022696EBE00C94F9
:1019B000F5220E9449108BE3A82E82E0B82E750113
:1019C00010E0F70101917F01812F0E94910F1F5FAD
:1019D000143009F441C00817A1F38091470281FD3A
:1019E0000E94970F0E94AB0CC82E10E0992493948C
:1019F000812F0E94910F082FF50181915F01081737
:101A000029F1D02ED826F12CEE24E3948D2D8E21B1
:101A1000A9F0CC2099F0F9821A830E94251B9C839F
:101A20008B839D8291E0802F8E2109F490E0498183
:101A30005A816B817C818D810E94F502F394EE0CBA
:101A4000F5E0FF12E3CFF501319700831F5F1430FB
:101A500079F60E94810CA5CF0813BFCFA0CF1F93AA
:101A6000CF93DF930E945E0EEC01C11580E5D8078D
:101A7000F0F5C11580E4D80708F09CC0C03ED10540
:101A800020F5CD3CD10508F082C0C83AD10578F4E4
:101A9000C53AD10508F073C0C130D10519F12097BE
:101AA00009F1C430D105F0F4D0E0C0E01BC0C33C64
:101AB000D105D0F7C85AD0E0CC0FDD1FC15BDE4F97
:101AC0000990D881C02DD4640DC0C11580E2D8071B
:101AD00008F0D1C0C11581E0D80708F05AC0C83E4F
:101AE000D10510F7CE01DF91CF911F910895C03637
:101AF00082E5D80718F5C03482E5D80708F06BC036
:101B0000C03282E5D80708F05FC0C11582E5D8076A
:101B100008F497C02C2F2695269580E2289F9001E7
:101B200011248C2F8370C1E0D0E002C0CC0FDD1FE8
:101B30008A95E2F7C22BD32BDD68D4CFC03A82E579
:101B4000D80760F4C03882E5D80708F459C0CF71CF
:101B5000D0E0DC2FCC27C46FD06AC4CFC03C82E574
:101B6000D80708F462C0C03E82E5D80708F09CCFD1
:101B7000DC2FCC27CC27DF71C06FD06AB3CFC55A1A
:101B8000D0E0CB57DE4FC881D0E0D064ABCFD0657A
:101B9000A9CF8D2F0E94000F182FCE0199270E94E8
:101BA0005E0EC12FD0E0DC2FCC27CC27DF71C82BF5
:101BB000D92B98CFCE0199270E945E0ECC27DF70DB
:101BC000C82BD92BD06A8ECFCF71D0E0DC2FCC2799
:101BD000C16FD06A87CF2C2F26952695277080E27B
:101BE000289F900111248C2F8370C1E0D0E002C0A7
:101BF000CC0FDD1F8A95E2F7C22BD32BDC6872CFA6
:101C00002C2F26952695277080E2289F900111247D
:101C10008C2F8370C1E0D0E002C0CC0FDD1F8A950D
:101C2000E2F7C22BD32BDA685DCF8C2F8F710E9425
:101C3000000FC82FD0E0DC2FCC27CC27DF71D0627B
:101C400051CF8C2F8F710E94000F55E0D695C7950C
:101C50005A95E1F7CF70D0E0DC2FCC27282F30E069
:101C600084FF05C044E0220F331F4A95E1F7C22BE1
:101C7000D32BD06937CF8D2F8F710E94000F182F73
:101C8000CE0199270E945E0EC12FD0E0DC2FCC2719
:101C9000CC27DF71C82BD92BD2CF462F743030F42C
:101CA000653020F4672F0E940A17089590E080E0C5
:101CB00008950E944D0E0E942F0D089582389105BF
:101CC000B9F1B0F48133910509F47DC048F489324B
:101CD000910509F46DC08A32910509F47BC008951D
:101CE0008533910509F45FC08933910509F10895A1
:101CF000833E9105D9F138F4803E910529F1823E69
:101D0000910579F10895863E9105D9F1873E9105B7
:101D100009F43EC0843E910541F52091870221FFE0
:101D200024C08091860284FD19C087EE90E008955A
:101D300020918602237009F05AC02091870223FF68
:101D400014C089E290E008952091860220FD38C0F9
:101D50003091870230FF09C024FF43C090E080E04B
:101D600008952091860222FDF7CF089520918602E2
:101D700022FD3AC03091870230FD39C024FFF5CFF3
:101D8000EDCF2091860223FFF0CF24FDE7CFCDCF0A
:101D90002091860223FD2EC03091870231FFEECFC5
:101DA00084EE90E008952091860225FFDECFC9CF12
:101DB0002091860225FD21C02091870223FFD5CFE7
:101DC00089E390E0D2CF2091860226FFCECF8AE22F
:101DD00090E008952091860226FFC7CF81E390E02E
:101DE000089583EE90E0089582EE90E0089580EEED
:101DF00090E0089586EE90E0089585E390E00895E0
:101E00009091860292FF10C041E0282F2471243067
:101E100009F040E031E0282F2871283009F030E047
:101E2000431711F02CE0822793FF10C041E0282FC8
:101E30002471243109F040E031E0282F2871283145
:101E400009F030E0431711F02CE08227309187022F
:101E500030FF10C051E0282F2171213009F050E0EF
:101E600041E0282F2871283009F040E0541711F084
:101E700029E0822731FF10C041E0282F2171213154
:101E800009F040E031E0282F2871283109F030E0D6
:101E9000431711F029E0822794FD877E089580E0A2
:101EA00008950E94AB0B08950E9449102FEF86E71A
:101EB00091E0215080409040E1F700C000000E9476
:101EC000491080E00E94910F80FF04C00E94510FD2
:101ED0000E94701B08950E94540F08950E94B20B37
:101EE000811102C00E94540C0E94BE0B80934702D5
:101EF0000E94C80B90938702809386020E946B0F0A
:101F00000E94C30B0E946E068091B1010E9486065A
:101F1000089508950E94890F089508950E948D0FD5
:101F20000895E82FF0E0E457FD4F8081089508956B
:101F300080EA8A95F1F7089500C008950E94980FED
:101F40000895F894E82FE295EF70F0E031A1282F82
:101F50002F7081E090E001C0880F2A95EAF7982F52
:101F60009095932391A392A1892B82A378940895AD
:101F7000CF93DF9384EF0E94A10F85EF0E94A10F02
:101F800086EF0E94A10F87EF0E94A10FC8E8D1E061
:101F900089918F3F11F00E94A10F81E0CD38D807C1
:101FA000B9F7DF91CF910895B0E0A0E0EAEDFFE04E
:101FB0000C94DC22EC01D62E062F10E0C8018357CA
:101FC0009E4F7C01FC0180818F3F09F445C0F8944D
:101FD000E82FE295EF70F0E091A18F7021E030E002
:101FE00001C0220F8A95EAF7892F822B81A382A153
:101FF0002095282322A378940E949C0FE8E8F1E022
:102000004DE851E031E0C12C21912F3F51F1A22F39
:10201000A295AF70B0E090968C9190E02F7002C0C6
:10202000959587952A95E2F780FD1BC0832FC82AD6
:10203000330F4E175F0741F7F70180818F3F11F093
:102040000E94A10F61E0C11001C060E08D2D0E94CF
:102050009E0FC00FD11FC882CDB7DEB7E8E00C9449
:10206000F82280E0E4CF0E94B80F84E0ECE8F2E0D0
:10207000DF01982F1D929A95E9F7E8E8F2E0DF0179
:102080001D928A95E9F784E00E9486100E948A0FCB
:102090000895A4E0B0E0EFE4F0E10C94E1221982AD
:1020A0001A821B821C8210E0612FCE0101960E94D1
:1020B000D40F1F5F1430C1F744E050E0BE016F5FE2
:1020C0007F4F88E892E00E941D2321E0009709F4E9
:1020D00020E0892B61F089819A81AB81BC8180935A
:1020E000880290938902A0938A02B0938B0244E005
:1020F0006CE872E088E892E00E948710182F0E9436
:102100008E0F812F2496E3E00C94FD220895CF9248
:10211000DF92EF92FF920F931F93CF936C017B019D
:10212000042F222349F081E080934A020E94251B5C
:102130009093490280934802C0914A02C1110AC09B
:10214000C0E08C2FCF911F910F91FF90EF90DF9007
:10215000CF90089580914802909149020E943D1BC2
:10216000059770F310E0A801B601C7010E941D2376
:10217000892B41F0A801B601C7010E942A231092C1
:102180004A02DFCFC0E0FBCF0E940B1D0E94BA0CB9
:102190000E94181D08950E941D1D0E94C50C0E94DA
:1021A000371D08950E94BE1A0E94F11C0E949D0CCA
:1021B0000E94C4100E94CB100E94B00CFBCF9093E1
:1021C000A1018093A0010895282F35EB2303C001BE
:1021D000112497FF04C080589109892F08958058D1
:1021E0009F4FFBCF8091510280FF0DC0609107018E
:1021F00070E0660F771F6038710570F56115710525
:1022000069F1862F089581FF07C06091070184E07E
:10221000689FB0011124EFCF6091070182FD0AC0D1
:10222000809150028823A9F0209106016091070156
:10223000821710F088E0ECCF869FC001112433E0B4
:10224000880F991F3A95E1F7622F70E00E94B12242
:10225000D2CF68E070E0D5CF8FE7089581E0089590
:102260008091510280FF0CC06091030170E0759570
:102270006795759567956115710549F1862F0895E4
:1022800081FF06C06091030170E075956795F3CFFB
:102290006091030182FD0BC090914F029923A1F040
:1022A0006091020180910301961738F0682F70E069
:1022B0006038710500F38FE70895899FC0011124EC
:1022C00070E00E94B122F4CF61E070E0D7CF81E0EE
:1022D00008958D3C31F40E94F2108195809355024F
:1022E00008958E3C19F40E94F210F8CF8F3C31F41F
:1022F0000E94F2108195809354020895803D19F454
:102300000E94F210F8CF893D29F40E943011809389
:10231000560208958A3D21F40E9430118195F7CF2D
:102320008B3D31F40E9430118195809357020895BE
:102330008C3D19F40E943011F8CF9FE2980F98302D
:1023400070F4815D990B21E030E001C0220F8A9585
:10235000EAF780915302822B8093530208958D3DBA
:1023600031F48091510281608093510208958E3D35
:1023700021F4809151028260F7CF8F3DB9F78091AF
:1023800051028460F1CF409154028D3C59F4809108
:10239000550287FF0DC01092550241110BC01092DB
:1023A000500208C08E3C81F48091550218169CF3AF
:1023B000442381F08091560290915702892B09F0B5
:1023C0005AC010924F0208958F3C49F447FFF0CF56
:1023D00010925402809155028111ECCFE0CF803DE4
:1023E00019F41416ACF3E4CF90915602893D29F408
:1023F0001916F4F610925602DBCF8A3D19F497FFB6
:10240000D7CFF8CF909157028B3D29F497FFD0CFCB
:1024100010925702CDCF8C3D19F41916CCF3C8CFCA
:102420009FE2980F983090F4815D990B21E030E0A5
:10243000B90102C0660F771F8A95E2F7CB0180953C
:1024400090915302892380935302B2CF8D3D31F492
:10245000809151028E7F80935102AACF8E3D21F44C
:10246000809151028D7FF7CF8F3D09F0A1CF8091F0
:1024700051028B7FF0CF08950E94251B9C01909103
:10248000540280915502982B21F030934E022093F4
:102490004D029091560280915702982B21F0309373
:1024A0004C0220934B0282E592E00E943919089574
:1024B00086E0E2E5F2E0DF011D928A95E9F71092ED
:1024C000500210924F02109251020895FC01828135
:1024D00081110EC0838181110BC08481811108C0DC
:1024E00091E08581811101C090E0892F817008956C
:1024F00081E0FCCFA6E0B0E0E0E8F2E10C94E1225C
:1025000086E0E2E5F2E0DE01119601900D928A95F7
:10251000E1F7109254021092550210925602109256
:1025200057028B819C81892B89F080914D0290917B
:102530004E020E943D1BAC01909150029923C9F1BB
:10254000809108018417150608F440C08D819E8192
:10255000892B91F080914B0290914C020E943D1B7F
:10256000AC0190914F02992309F46AC08091040153
:102570008417150608F472C0BE016F5F7F4F82E5B5
:1025800092E00E94531A811105C082E592E00E94F8
:10259000661281110E943C1286E0FE013196A2E58E
:1025A000B2E001900D928A95E1F72696E3E00C9453
:1025B000FD22209109018AE0289F9001112424170F
:1025C000350720F69F5F9093500202C09F3FD1F7DE
:1025D0001B81112359F00E94F2109FEF11160CF489
:1025E00091E0899F802D1124809354021C81112336
:1025F00059F00E94F2109FEF11160CF491E0899FA0
:10260000802D11248093550280915402882309F46F
:102610009DCF10915502112309F498CF0E94E41028
:10262000882351F080935402812F0E94E410882364
:1026300029F0809355028ACF81E0F4CF81E0F9CF71
:10264000209105018AE0289F900111242417350765
:1026500008F092CF9F5F90934F0202C09F3FD1F747
:102660001D81112359F00E9430119FEF11160CF4B7
:1026700091E0899F802D1124809356021E811123A1
:1026800059F00E9430119FEF11160CF491E0899FD0
:10269000802D11248093570280915602882309F4DB
:1026A0006BCF10915702112309F466CF0E94E410FA
:1026B000882351F080935602812F0E94E4108823D2
:1026C00029F08093570258CF81E0F4CF81E0F9CF11
:1026D00085E290E00E943323833289F486E290E021
:1026E0000E943323893059F487E290E00E9433231B
:1026F00091E0833109F090E0892F8170089580E0A6
:10270000FCCFCF93C82F6FEF811163E285E290E099
:102710000E9451236FEFC11169E086E290E00E94B0
:1027200051236FEFC11163E187E290E00E945123D2
:10273000CF910895089588E290E00E943323682F96
:1027400070E090E080E008950895CF93C62F0E9436
:10275000A4136C2F88E290E00E945123CF9108953A
:1027600080E00E94811360E070E0CB010E94A5131D
:102770000E94A4160E94651781E00E9481130895AB
:102780000E949A130E949B130E94A4130E94681334
:10279000811102C00E94B013089508959C01FB01AD
:1027A0008581882351F0A90157574038510530F4ED
:1027B000822F0E94751780E0089581E008952FEF21
:1027C000FC01208308950E94DF13089580E008959E
:1027D000B0E0A0E0EEEEF3E10C94DC22EC01E62E9A
:1027E0000E94E613811110C0E881E150E331B8F492
:1027F000F0E0ED56FC4D0C94C52219828CE08A83E2
:102800006E2DCE010E94E51BCDB7DEB7E8E00C943B
:10281000F82289818230C1F028F4813061F08FEF95
:102820008883EECF833099F08430C9F71A821B82F7
:102830001C821D82E5CF0E94311B0E94CB226A833D
:102840007B838C839D83DCCF0E949B13F6CF8A8190
:10285000082F10E06E0193E0C90ED11C9CE1F92E07
:10286000F80E0430110560F6802F0E94910FF601DA
:1028700081936F010F5F1F4FF012F3CFC1CF89819A
:10288000823031F0853059F68A810E94CD13B8CF5D
:102890006A817B818C819D810E94CB220E94A5133D
:1028A000AFCF4B816A8189810E946616982789275C
:1028B00098279D838C83A4CF2C813D8132272327A9
:1028C00032274B816A8189810E94881699CF0E94A4
:1028D000A41696CF6E2DCE010E94E31391CF0E94D5
:1028E000161789838DCF0E94181798278927982754
:1028F0009A83898385CF6B8170E089819A81AE014B
:102900004C5F5F4F9827892798270E941B1778CF25
:102910006B8170E089819A81AE014C5F5F4F98278F
:10292000892798270E9440176BCF0E94651768CFB0
:102930000E945416D6CF6B8170E089819A81AE01D6
:102940004C5F5F4F9827892798270E94C41658CF5D
:102950006B8170E089819A81AE014C5F5F4F98274F
:10296000892798270E94E7164BCFCF93DF93EC017E
:10297000FB018581882309F4D2C09E0130572332A0
:10298000310508F0B2C00E94C80B90938702809373
:102990008602FE01E150F047E232F10520F4EA55EB
:1029A000FC4D0C94C5228091860281608093860242
:1029B00093C0809187028860809387028DC0809148
:1029C00086028260F3CF809186028460EFCF80918F
:1029D00086028860EBCF809187028160EDCF809185
:1029E00087028260E9CF809186028061DFCF80918B
:1029F00086028062DBCF809186028064D7CF0E94FE
:102A00002306809186028068D1CF809186028C60F7
:102A1000CDCF809187028360CFCF809186028E7F59
:102A2000C5CF80918702877FC7CF809186028D7F37
:102A3000BDCF809186028B7FB9CF80918602877F40
:102A4000B5CF809187028E7FB7CF809187028D7F2F
:102A5000B3CF809186028F7EA9CF809186028F7D31
:102A6000A5CF809186028F7BA1CF0E942306809103
:102A700086028F779BCF80918602837F97CF80914C
:102A800087028C7F99CF8091860282FB992790F9EB
:102A900021E0922790FB82F990FB83F987CF809108
:102AA0008702982F909591708E7F892B90FB81F9EA
:102AB00083CF90918602892F8F7B96FF806476CF9B
:102AC0000E94230690918602892F97FB87F98058F0
:102AD0006DCF81E00E94570C809186029091870211
:102AE0000E94CD0B0E94230680E0DF91CF910895D4
:102AF00080E0F0CF90918602892F8F7E94FF8061D5
:102B000055CF90918602892F8E7F90FF81604ECFA6
:102B100090918702892F877F93FF88604DCF81E056
:102B2000E4CFB0E0A0E0E7E9F5E10C94DD22E82F86
:102B3000F0E0EC52FF4FD490282F2695269526954D
:102B400030E0F901EC58FE4F0491877010E0082E38
:102B500002C0159507950A94E2F701701127F90153
:102B6000EC59FE4FE490F12C082E02C0F594E79446
:102B70000A94E2F791E0E922FF24F901EC5AFE4FB2
:102B8000C491D0E002C0D595C7958A95E2F7C1708F
:102B9000DD270115110519F081EE0E943803E114BB
:102BA000F10419F086EE0E9438038D2D0E94D003A7
:102BB000E114F10419F086EE0E9485030115110558
:102BC00019F081EE0E948503CD2B19F08CE20E9452
:102BD000D003CDB7DEB7E7E00C94F922EF92FF9275
:102BE0000F931F93CF93DF93EC01162F0AE0888198
:102BF000882309F454C0813009F04EC089818130A6
:102C000099F47E0122E0E20EF11C8A810E94D00339
:102C1000E7012196812F815050F3EFE9FFE03197D2
:102C2000F1F700C00000F7CF823041F47E0182E06E
:102C3000E80EF11C8A810E943803EACF833041F408
:102C40007E01E2E0EE0EF11C8A810E948503E0CF56
:102C5000843011F02196DDCF2A81229690E080E029
:102C6000AE014F5F5F4F2053330B2A30310548F0E0
:102C7000019778F2EFE9FFE03197F1F700C000002B
:102C8000F7CF089FB001099F700D1124C901860F6D
:102C9000971F2981EA01E4CF0E949115BACFCDB7E1
:102CA000DEB7E6E00C94FA2284E0089550E0440F89
:102CB000551F9AE0699F400D511D112498E2899F8C
:102CC000400D511D1124CA01899608950F931F9339
:102CD000CF93DF938430C8F46430B8F44530A8F45F
:102CE0000E9456168C010E943323C82FD0E0DC2F9F
:102CF000CC27C80101960E9433239E01282BC901CD
:102D0000DF91CF911F910F91089590E080E0F8CF6F
:102D10000F931F93CF93DF93122F032F843078F4F8
:102D2000643068F4453058F40E945616EC01602F68
:102D30000E945123612FCE0101960E945123DF9101
:102D4000CF911F910F9108951F93CF93DF93D0E000
:102D5000C0E011C0412F6C2F8D2F0E94B8019C0143
:102D6000412F6C2F8D2F0E9488161F5F153091F711
:102D7000CF5FC43011F010E0EDCFDF5FD43041F70A
:102D8000DF91CF911F910895EF92FF920F931F93C0
:102D9000CF93DF93EC018A017C01E60EF71ECE0192
:102DA0008996CE15DF0529F4CDB7DEB7E6E00C94A1
:102DB000FA22C03AD10540F40E943323F8018083FF
:102DC0000F5F1F4F2196EBCFF8011082F9CFB0E0D3
:102DD000A0E0EDEEF6E10C94DC227C016A018C01AE
:102DE000060F171FEC01CE018996C017D10729F4F1
:102DF000CDB7DEB7E8E00C94F822C03AD10540F434
:102E0000FE01EE19FF09EC0DFD1D60810E945123AA
:102E10002196E9CF843038F4643028F4453018F432
:102E20000E946616089590E080E0089580E108957C
:102E300087E393E00895EF92FF920F931F93CF9350
:102E4000DF93EC018A017C01E60EF71ECE01875369
:102E50009F4FCE15DF0529F4CDB7DEB7E6E00C9421
:102E6000FA22C73323E0D20740F40E943323F8014B
:102E700080830F5F1F4F2196E9CFF8011082F9CFB1
:102E8000B0E0A0E0E6E4F7E10C94DC227C016A010A
:102E90008C01060F171FEC01CE0187539F4FC017FF
:102EA000D10729F4CDB7DEB7E8E00C94F822C73398
:102EB00023E0D20740F4FE01EE19FF09EC0DFD1DE1
:102EC00060810E9451232196E7CFCF93DF93C9EC15
:102ED000D0E060E0CE010E9451232196C11584E02C
:102EE000D807B9F7DF91CF910895A8E0B0E0EBE7FC
:102EF000F7E10C94DA22F82E8FE08F1508F46EC0FB
:102F00008FEF93E00E943323811168C009EC10E039
:102F1000F11035C0FE0131966F0188E011928A955B
:102F2000E9F77801FFEFEF1AFF0AC8010E94332387
:102F300089831A82882309F451C08130D1F4580161
:102F400082E0A80EB11CC7010E9433238A83882324
:102F500009F444C09FEF980F9330F0F4780193E0A8
:102F6000E90EF11CC5010E9433238B838823B1F144
:102F70001C8260E0C6010E94EE158701D2CF0115C8
:102F800094E0190759F1C8010E943323811101C04F
:102F9000FA940F5F1F4FBCCF7501843051F702E0E8
:102FA00010E07501EFEFEE1AFE0AC5010E9433230F
:102FB000F601E00FF11F8083882381F08C3741F404
:102FC000E2E0F0E0EC0FFD1FE00FF11F1082D1CF27
:102FD0000F5F1F4F57010730110519F72896EAE0D8
:102FE0000C94F622CF93DF93EB0186319C4711F5C9
:102FF0000E94B10A9D81992399F08A7A91E009F49F
:1030000090E090935802811109C089E20E94890AD8
:103010000E940A0B80E0DF91CF91089585E3F6CFFF
:1030200080915802811104C089E20E94910AF0CF78
:1030300085E3FBCF81E0EFCF0F931F93CF93DF9317
:10304000C42FD22FFC0185818823C9F040935B02F5
:103050000E94251B90935A028093590280E28C0FA4
:10306000883040F4C77081E001C0880FCA95EAF744
:103070000E94D903DF91CF911F910F910895109174
:103080005B02141332C08091590290915A020E943F
:103090003D1B883C910548F5C0E2CD0F1D17B9F0E6
:1030A00080E2810F883040F4177081E001C0880F02
:1030B0001A95EAF70E94E003C83048F481E09D2F9A
:1030C000977001C0880F9A95EAF70E94D903802F64
:1030D0000E94D003C83070F6D77081E001C0880F1D
:1030E000DA95EAF70E94E003C5CF80E28C0F8830C2
:1030F00008F6C77081E001C0880FCA95EAF7F2CFE1
:103100000F93DB0188519C4787309105A0F5FC01A6
:10311000E853FC4D0C94C52206E221EE41EE6AE133
:103120007CE7CD010E941C1880E00F91089507E212
:1031300025EE45EE6BE17CE7F4CF06E221EE40EEB2
:1031400068E17CE7EECF07E225EE44EE69E17CE73B
:10315000E8CF06E221EE42EE6CE17CE7E2CF07E247
:1031600025EE46EE6DE17CE7DCCF08E221E045EE9E
:103170006EE17CE7D6CF15968C91882319F01092DA
:103180005B02D3CF81E0D1CF1F93CF93DF938737FB
:103190002CE7920759F0C1E088379C47E1F4FB0126
:1031A000C581CC2371F10E94071906C0FB01C581BE
:1031B000CC23B1F00E9404190E949B060E940A19B8
:1031C000D82F0E940719C82F0E9404194D2F6C2F69
:1031D0000E94C307C0E08C2FDF91CF911F9108950B
:1031E0000E9404190E94A7060E940A19182F0E9423
:1031F0000719D82F0E940419412F6D2F0E94C30771
:10320000EACF0E940719EECF80910C0108958091BA
:103210000B01089580910A010895909361028093B3
:1032200060020895E0916002F0916102309729F008
:103230000190F081E02D0995089580E00895E091D6
:103240006002F0916102309799F0209115012223DC
:1032500059F02091860227FF07C0DC012C911196BE
:103260002C93119726E02C930280F381E02D099591
:103270000895E0916002F0916102309739F022E008
:10328000DC012C930480F581E02D09950895A3E0DD
:10329000B0E0EDE4F9E10C94E22220915E0230917D
:1032A0005F0228173907A1F090935F0280935E02B6
:1032B000E0916002F0916102309751F023E02983A0
:1032C0009B838A830680F781E02DCE0101960995C4
:1032D0002396E2E00C94FE22A3E0B0E0E2E7F9E1FD
:1032E0000C94E22220915C0230915D02281739078C
:1032F000A1F090935D0280935C02E0916002F091F6
:103300006102309751F024E029839B838A830680F1
:10331000F781E02DCE01019609952396E2E00C9409
:10332000FE22FC01329680911501882321F08091C4
:1033300086029EE187FF96E080E0915008F40895B0
:1033400021912223D1F38F5FF8CF662301F12091E1
:1033500015012223F1F02091860227FF1AC0462F83
:103360004695469546954E3190F4677021E030E0E1
:1033700002C0220F331F6A95E2F7840F911DFC01F2
:10338000828190E02823392381E0232B69F480E0B7
:103390000895FC01329608962191261721F0E8172E
:1033A000F907D1F7F4CF81E008959C01FC01329632
:1033B0009FEF80E04191461751F09F3F19F4411172
:1033C00001C0982F8F5F8630A9F79F3F09F40895B9
:1033D000290F311D97FD3A95F90162830895FC018B
:1033E000329608962191261303C0DF0111971C9293
:1033F000E817F907B9F70895E62FE695E695E695FB
:10340000EE3168F4E80FF92FF11D677021E030E02C
:1034100001C0220F6A95EAF78281822B8283089588
:10342000E62FE695E695E695EE3170F4E80FF92F74
:10343000F11D677021E030E001C0220F6A95EAF7C4
:10344000209582812823228308952091150122232B
:1034500039F02091860227FF03C00E94FC190895CD
:103460000E94D519089520911501222339F0209149
:10347000860227FF03C00E94101A08950E94EF19C8
:103480000895FC01329680911501882351F08091B6
:10349000860287FF06C08EE1DF011D928A95E9F75B
:1034A000089586E0F9CFDC01FB0111969C911197FC
:1034B0008181981322C012968C911297882319F05B
:1034C000928189131AC013968C911397882319F04F
:1034D0009381891312C015968C911597882319F042
:1034E000958189130AC014969C91992321F081E05B
:1034F0002481291303C080E001C081E08170089518
:1035000008950E94801A0895811106C081E0809379
:1035100062020E94811A089582E0F9CF83E08093CD
:1035200062020E94811A08950E94841A089581E01F
:10353000809362020E94811A08950E94971A08954A
:10354000089508950E94A11A0895089508950E946B
:10355000A01A0895CF930E94A51A0E9449100E94B4
:10356000A61AC0E08C2F0E94910F811105C0CF5F79
:10357000C430C1F7CF91089581E0FCCF85B7806852
:1035800085BF85B7806885BF08951F921FB61F92BB
:1035900011248F939F93AF93BF9380916302811106
:1035A00013C08091900290919102A0919202B091EB
:1035B00093024196A11DB11D8093900290939102B8
:1035C000A0939202B0939302BF91AF919F918F917C
:1035D0001F901FBE1F90189580919802843031F182
:1035E0000E94AC021092630288E190E020E40FB6E2
:1035F000F894A895809360000FBE2093600083B775
:10360000817F846083BF83B7816083BF789488950E
:1036100083B78E7F83BF0FB6F894A8958091600022
:10362000886180936000109260000FBE08950E9430
:1036300023060E94B102089582E084BD93E095BD07
:103640009AEF97BD80936E0008952FB7F8948091FC
:10365000900290919102A0919202B09193022FBF9B
:1036600008952FB7F8946091900270919102809123
:103670009202909193022FBF08959C014FB7F89446
:103680008091900290919102A0919202B091930248
:103690004FBF821B930B089578941F921FB61F9201
:1036A00011248F939F93AF93BF9380919002909139
:1036B0009102A0919202B09193020196A11DB11DB9
:1036C0008093900290939102A0939202B093930200
:1036D000BF91AF919F918F911F901FBE1F90189522
:1036E00087E797E7909301088093000888E19AE0C4
:1036F0000FB6F894A895809360000FBE9093600079
:10370000FFCF88E19AE00FB6F894A8958093600007
:103710000FBE90936000FFCF8091840208959B01BB
:10372000BA01909198029430E9F48F708093E90087
:103730009FEF8091E800915085FD06C085ED8A9548
:10374000F1F700009111F5CF8091E80085FF0AC0E4
:1037500050E040E0C9010E94DB1D8091E8008E77B7
:103760008093E800089543E050E0BC0184E00E94AB
:103770008F1B089546E050E0BC0184E00E948F1B3F
:103780000895CF93DF93EC0180911501811111C051
:1037900048E050E0BE0181E00E948F1B80E2FE0104
:1037A000A4E6B2E001900D928A95E1F7DF91CF9106
:1037B00008958091860287FF05C040E284E050E0D2
:1037C000BE01EACF48E081E0FACF603231F440E256
:1037D00050E0BC0182E00E948F1B08958091970207
:1037E000811109C00E94BA1F0E9417208091E20037
:1037F00084608093E20008951092970208950E94D9
:10380000971A08956091940281E0611101C080E0EF
:103810000E948E1A08959091980281E0943009F0E8
:1038200080E0609194020E94941A089542E061EC55
:1038300081E00E94361F42E261EC84E00E94361F64
:1038400042E261EC82E00E94361F42E260EC83E0DB
:103850000E94361F9091980281E0943009F080E038
:10386000609194020E94841A089580919A02833094
:1038700009F463C030F48130E1F1823009F4A0C072
:1038800008958A3009F48CC08B3009F471C08930F6
:1038900009F052C080919902813209F04DC08091A7
:1038A0009D0290919E02009719F0029709F044C082
:1038B0008091E800877F8093E8008091E80082FF94
:1038C00037C09091F3008091F200029731F480911B
:1038D000F100813011F0863021F48091F100809365
:1038E00084028091E8008B778093E8000E946A1F31
:1038F00023C080919902813AF9F48091E800877F92
:103900008093E80080919D0290919E02892B61F442
:1039100060E284E692E070E00E94791E8091E80007
:103920008B778093E800089560E090E080E0F3CF2B
:10393000809198028111C1CF089580919902813AB6
:10394000D9F780919D0290919E02892BA9F78091D1
:10395000E800877F8093E8008091E80080FFFCCF3B
:10396000809115018093F1008091E8008E77BCCFA3
:1039700080919902813201F780919D0290919E027F
:10398000892BD1F68091E800877F8093E8000E9420
:103990006A1F80919B02809315010E94230608955F
:1039A00080919902813241F68091E800877F80936F
:1039B000E8000E946A1F80919C028093850208950E
:1039C00080919902813A09F0B7CF8091E800877F12
:1039D0008093E8008091E80080FFFCCF8091850211
:1039E000C1CF84B7877F84BF0FB6F894A895809124
:1039F0006000886180936000109260000FBE80E8D4
:103A000090E00FB6F89480936100909361000FBE30
:103A10000E949D1A08950E94BA1F0E941720E2EE8C
:103A2000F0E080818460808378940E9496220895DB
:103A30008DE091E00E940D190895809198028530E3
:103A400031F480919802853019F00E94171B089577
:103A50000E94EC1A80919602882399F30E94AA1A78
:103A6000882379F30E94C51D0E942306EACFA0E2B5
:103A7000B0E0EDE3FDE10C94E22280919802843005
:103A800009F583E08093E9008091E80082FF1AC085
:103A90008091E80090E085FF09C050E040E060E2DE
:103AA00070E0CE0101960E942A1E91E08091E8000C
:103AB0008B778093E800992329F060E2CE0101968C
:103AC0000E94E813A096E2E00C94FE229A01409135
:103AD0009F025091A0020E946E1D0895492F552704
:103AE0004330510521F168F44130510509F443C0D8
:103AF0004230510509F444C090E080E050E040E0DD
:103B000026C04132510551F142325105A9F76330C7
:103B1000710590F7FB01EE0FFF1FEC56FE4F408141
:103B200051816F567E4FFB01808190E010C0992734
:103B30008130910581F0009729F00297E9F6E4E8D9
:103B4000F1E002C0E4EAF1E0849190E0AF01F90114
:103B5000518340830895E8E9F1E0F6CF63307105C1
:103B600058F6660F771FFB01E656FE4F40815181E4
:103B700089E090E0ECCF82E190E043E052E0E7CFD3
:103B80008BE590E048EA51E0E2CF80E189BD82E137
:103B900089BD09B400FEFDCF8091D8008F7D809350
:103BA000D8008091E00082608093E0008091E00086
:103BB00081FDFCCF0895AF92BF92CF92DF92FF922A
:103BC0000F931F93CF93DF936C01EB018A010E9447
:103BD000891FF82E811123C00115110539F0F80154
:103BE00080819181C81BD90BC80ED91EB12CA12C84
:103BF0002097A9F08091E80085FD22C08091E8001F
:103C00008E778093E80001151105A1F0F8018081FD
:103C10009181A80EB91EB182A08285E0F82E8F2D69
:103C2000DF91CF911F910F91FF90DF90CF90BF90C8
:103C3000AF9008950E94891F8823D1F2F82EEFCF0C
:103C4000F60181916F018093F1002197FFEFAF1A88
:103C5000BF0ACECFAF92BF92CF92DF92FF920F9367
:103C60001F93CF93DF936C01EB018A010E94891FA0
:103C7000F82E811123C00115110539F0F80180815A
:103C80009181C81BD90BC80ED91EB12CA12C20972D
:103C9000A9F08091E80085FD22C08091E8008B7733
:103CA0008093E80001151105A1F0F8018081918150
:103CB000A80EB91EB182A08285E0F82E8F2DDF916B
:103CC000CF911F910F91FF90DF90CF90BF90AF9059
:103CD00008950E94891F8823D1F2F82EEFCF80919A
:103CE000F100F60181936F012197FFEFAF1ABF0A30
:103CF000CECFFC0180919F029091A002861797077A
:103D0000A0F06115710529F49091E8009E779093D9
:103D1000E80090E06115710551F4911108C080919F
:103D2000E80082FF34C080E00895BC01F2CF8091AA
:103D300098028823C1F18530C1F18091E80083FDAC
:103D400030C08091E80082FDEACF8091E80080FFDA
:103D5000E1CF8091F3002091F200382F61157105B9
:103D600019F02830310558F091E02830310509F07C
:103D700090E02091E8002E772093E800CBCF81914E
:103D80008093F100615071092F5F3F4FE7CF809121
:103D90009802882341F0853041F08091E80083FF4C
:103DA000BECF81E0089582E0089583E00895FC018C
:103DB00080919F029091A00286179707A0F061154D
:103DC000710529F48091E8008E778093E80090E0F7
:103DD0006115710551F4911108C08091E80082FFCE
:103DE00035C080E00895BC01F2CF8091980288230D
:103DF000C9F18530C9F18091E80083FD31C080911F
:103E0000E80082FDEACF8091E80080FFE1CF809159
:103E1000F3002091F200382F6115710519F0283058
:103E2000310558F091E02830310509F090E080919B
:103E3000E8008E778093E800CBCF84918093F100E7
:103E40003196615071092F5F3F4FE6CF8091980204
:103E5000882341F0853041F08091E80083FFBDCF99
:103E600081E0089582E0089583E00895982F9730C7
:103E700028F08F708093E90081E008959093E90025
:103E8000242F762F50E0981731F07091EC0020919C
:103E9000ED005091F00021FD02C09F5FE8CF30910E
:103EA000EB003E7F3093EB003091ED003D7F30938F
:103EB000ED003091EB0031603093EB007093EC003B
:103EC0002093ED005093F0002091EE0027FDE5CF08
:103ED00080E008958091990287FF13C08091E800E7
:103EE00082FF06C08091E8008B778093E80004C0D1
:103EF000809198028111F2CF0895809198028823D1
:103F0000D9F38091E80080FFF8CF8091E8008E77A8
:103F1000ECCF2091E4003091E50095E6A9012091D5
:103F2000EC00822F817020FF06C08091E80080FFA6
:103F300006C080E008952091E80022FD1AC080911B
:103F40009802882389F0853089F08091EB0085FD07
:103F50000FC02091E4003091E50042175307F9F2B9
:103F60009150E1F684E0089582E0089583E0089599
:103F700081E008950E9429200E943120E0EEF0E0C7
:103F8000808181608083E8EDF0E080818F7780839D
:103F900019BCA7EDB0E08C918E7F8C9380818F7ED1
:103FA00080831092970208950F931F93CF93DF930E
:103FB0000E9429200E943120C8EDD0E088818F77AF
:103FC000888388818068888388818F7D888319BCF5
:103FD00010929802109294021092960210929502FA
:103FE00000EE10E0F80180818B7F80838881816002
:103FF000888342E060E080E00E94361FE1EEF0E05E
:1040000080818E7F8083E2EEF0E08081816080831A
:10401000808188608083F80180818E7F80838881A1
:1040200080618883DF91CF911F910F910895E8ED12
:10403000F0E080818F7E8083E7EDF0E08081816019
:10404000808384E082BF81E0809397020E94D41F26
:104050000895E8EDF0E080818E7F80831092E20089
:1040600008951092DA001092E10008951F920F92C5
:104070000FB60F9211242F933F934F935F936F933B
:104080007F938F939F93AF93BF93EF93FF93809111
:10409000E10082FF0BC08091E20082FF07C08091A7
:1040A000E1008B7F8093E1000E9495228091DA00ED
:1040B00080FF19C08091D80080FF15C08091DA0080
:1040C0008E7F8093DA008091D90080FF96C080E1D6
:1040D00089BD82E189BD09B400FEFDCF81E08093F6
:1040E00098020E94EE1B8091E10080FF19C0809130
:1040F000E20080FF15C08091E2008E7F8093E20095
:104100008091E20080618093E2008091D80080621B
:104110008093D80019BC85E0809398020E94021C0D
:104120008091E10084FF2BC08091E20084FF27C0D2
:1041300080E189BD82E189BD89B5982F917080FFAA
:10414000FBCF8091D8008F7D8093D8008091E100D3
:104150008F7E8093E1008091E2008F7E8093E20069
:104160008091E20081608093E20080919402882334
:1041700009F449C084E0809398020E940B1C80914E
:10418000E10083FF29C08091E20083FF25C0809178
:10419000E100877F8093E10082E080939802109293
:1041A00094028091E1008E7F8093E1008091E20093
:1041B0008E7F8093E2008091E20080618093E20034
:1041C00042E060E080E00E94361F8091F00088604D
:1041D0008093F0000E94FF1BFF91EF91BF91AF9180
:1041E0009F918F917F916F915F914F913F912F910F
:1041F0000F900FBE0F901F90189519BC1092980247
:104200000E94FC1B70CF8091E30087FD93E09093A8
:104210009802B3CF1F920F920FB60F9211242F93D3
:104220003F934F935F936F937F938F939F93AF933E
:10423000BF93CF93DF93EF93FF93D091E900DF70AB
:104240008091EC00C82FC17080FDC0E81092E90099
:104250008091F000877F8093F00078940E944E2137
:104260001092E9008091F00088608093F000CD2BDF
:10427000CF70C093E900FF91EF91DF91CF91BF9193
:10428000AF919F918F917F916F915F914F913F91EE
:104290002F910F900FBE0F901F901895AAE2B0E0DB
:1042A000E4E5F1E20C94E12289E992E02091F10049
:1042B000FC012193CF01F2E0813A9F07B9F70E94F8
:1042C000351C8091E80083FF1EC180919902909176
:1042D0009A029A3008F017C1E92FF0E0E153FC4D43
:1042E0000C94C522803899F0823809F00CC1809175
:1042F0009D028F70873008F006C18093E90080919D
:10430000EB0085FB882780F91092E90006C08091B8
:10431000950290919602911182609091E800977FAA
:104320009093E8008093F1001092F1008091E800F2
:104330008E77E5C0882309F4D3C0823009F0E3C04A
:1043400080919B028111D6C080919D028F702FEFCA
:10435000280F263008F0D7C08093E9002091EB00A9
:1043600020FFC8C0933031F48091EB0080628093CD
:10437000EB00C0C09091EB0090619093EB0021E0C6
:1043800030E001C0220F8A95EAF72093EA001092EC
:10439000EA008091EB008860EACF8111B4C01091EF
:1043A0009B021F778091E3008078812B8093E3004C
:1043B0008091E800877F8093E8000E946A1F8091C7
:1043C000E80080FFFCCF8091E30080688093E300E9
:1043D00082E0111183E08093980295C0805882306A
:1043E00008F091C080919B0290919C028C3D23E04B
:1043F0009207A1F583E08A838AE289834FB7F89414
:10440000DE01139620E03EE051E2E32FF0E050930E
:104410005700E49120FF03C0E295EF703F5FEF701B
:104420008E2F90E0EA30C0F0C7968D939D932F5F5A
:10443000243159F74FBF8091E800877F8093E800CF
:104440006AE270E0CE0101960E94791E8091E80038
:104450008B778093E80057C0C096E7CF60919D02AC
:1044600070919E02AE014F5F5F4F0E94661DBC01BE
:10447000892B09F448C09091E800977F9093E80059
:1044800089819A810E94D71EE1CF8038E1F5809121
:10449000E800877F8093E800809194028093F10088
:1044A00045CF811130C090919B02923060F5809190
:1044B000E800877F8093E800909394020E946A1F2F
:1044C00080919402882311F084E005C08091E3007C
:1044D00087FDFACF81E0809398020E94161C13C0DA
:1044E00080919B02813079F481E0933009F080E083
:1044F000809396021092E9008091E800877F809374
:10450000E8000E946A1F8091E80083FF0AC0809142
:10451000E800877F8093E8008091EB0080628093C1
:10452000EB00AA96E3E00C94FD220895CF938091CE
:1045300098028823A1F0C091E900CF709091EC001F
:10454000892F817090FD80E8C82B1092E90080913E
:10455000E80083FD0E944E21CF70C093E900CF9107
:10456000089597FB072E16F4009407D077FD09D025
:104570000E94092307FC05D03EF4909581959F4F3A
:104580000895709561957F4F0895EE0FFF1F059078
:10459000F491E02D099469279627692778278727C2
:1045A000782708952F923F924F925F926F927F9259
:1045B0008F929F92AF92BF92CF92DF92EF92FF9233
:1045C0000F931F93CF93DF93CDB7DEB7CA1BDB0BDF
:1045D0000FB6F894DEBF0FBECDBF09942A88398884
:1045E00048885F846E847D848C849B84AA84B9848B
:1045F000C884DF80EE80FD800C811B81AA81B98197
:10460000CE0FD11D0FB6F894DEBF0FBECDBFED01AA
:104610000895AA1BBB1B51E107C0AA1FBB1FA61709
:10462000B70710F0A61BB70B881F991F5A95A9F75B
:1046300080959095BC01CD010895FB01DC0104C07B
:104640008D910190801921F441505040C8F7881B8A
:10465000990B0895FB01DC0102C001900D924150BD
:104660005040D8F70895F999FECF92BD81BDF89AD0
:10467000992780B50895A8E1B0E042E050E00C949D
:104680007723DC01A40FB51F4150504048F0CB0107
:10469000840F951F2E910E94522341505040D0F715
:1046A0000895262FF999FECF92BD81BDF89A019702
:1046B00000B4021639F01FBA20BD0FB6F894FA9A6A
:1046C000F99A0FBE08950396272F0E9452230E9445
:1046D0005123252F0E945223242F0C9452230196FC
:1046E000272F0E9452230C945123DC01CB01FC01A3
:1046F000F999FECF06C0F2BDE1BDF89A319600B43B
:104700000D9241505040B8F70895F894FFCF260419
:10471000260476047604DB04F70455045504FC04EF
:10472000630572057205FD1309143F1451145C14DE
:1047300067146A146A146A140F140F146F14731434
:104740007B148814951498149B14A8140D158115C6
:104750001515DF14E3141915E7141D152915F314A5
:104760007A15F7142D15FB1431155915FF1435154D
:10477000601505153B154315EB142115EF14251590
:1047800009153F154F1569157815D9141115881598
:104790009D18A3188C189718A918AF18B51872216E
:1047A0009A2183229A218322CD21EE218322452240
:0247B000512294
:1047B2001702280850011E0A14010302018C1BC1B2
:1047C2001BBA1BB31B01E200E900EA00B500B60008
:1047D200B700CD008301CC008A019201940121022D
:1047E200230224022502260227022A02B300B40071
:1047F2006F0070009F01CB019F02A002818283E2C1
:1048020000E900EA00B500B600B700CD008301CC94
:10481200008A019201940121022302240225022628
:104822000227022A02B300B4006F0070009F01CB7E
:10483200019F02A0028182833534C69766F4F5F6A1
:10484200F74422B6ED0215023702BA01D301F30191
:00000001FF
